:100000000C94AC020C94C9020C94C9020C94C90261
:100010000C94C9020C94C9020C94C9020C94C90234
:100020000C94C9020C94C9020C94D5210C94A922F9
:100030000C94741C0C94C9020C94C9020C94C9024F
:100040000C94C9020C94C9020C94C9020C94C90204
:100050000C94C9020C94FB1C0C94C9020C94C902A8
:100060000C94C9020C94C9020C94C9020C94C902E4
:100070000C94C9020C94C9020C94C9020C94C902D4
:100080000C94C9020C94C9020C94C9020C94C902C4
:100090000C94C9020C94C9020C94C9020C94C902B4
:1000A0000C94C9020C94C9020C94C90229001E00C8
:1000B0001F00200021002200240025002B00140036
:1000C0001A000800150023001C001800E0000400BE
:1000D00016000700090017000B000D00E1001D00CD
:1000E0001B00060019000A0011001000E000E300E8
:1000F000E20091002C0005002C00000026002700E3
:100100002D004C00570056002D0200000C0012007C
:1001100013002A0024002500260000000E000F0016
:1001200033002800210022002300000036003700A1
:10013000380052001E001F00200000009000E60062
:10014000500051004F00270037000000010001005F
:100150000100010001000100010001000100010097
:100160000100010001000100010001000100010087
:100170000100010001000100010001000100010077
:100180000100010001000100010001000100010067
:100190000100010001000100010000000100010058
:1001A0000100010001000100010000000100010048
:1001B0000100010001000100010000000100010038
:1001C0000100010001000100010000000100010028
:1001D0000100010001000100010000000100010018
:1001E0000100010001000100010000000100010008
:1001F00001000100010001000100010001000100F7
:1002000001000100010001000100010001000100E6
:1002100001000100010001000100010001000100D6
:1002200001000100010001000100010001000100C6
:1002300001000100010001000100000001000100B7
:1002400001000100010001000100000001000100A7
:100250000100010001000100010000000100010097
:100260000100010001000100010000000100010087
:100270000100010001000100010000000100010077
:100280000100010001000100010000000100010067
:100290000100010001000100010001000100010056
:1002A0000100010001000100010001000100010046
:1002B0000100010001000100010001000100010036
:1002C0000100010001000100010001000100010026
:1002D0000100010001000100010000000100010017
:1002E0000100010001000100010000000100010007
:1002F00001000100010001000100000001000100F7
:1003000001000100010001000100000001000100E6
:1003100001000100010001000100000001000100D6
:1003200001000100010001000100000000000000C8
:10033000000000002A2B2800000000000000000040
:100340000000000000000029000000002C1E3420E6
:10035000212224342627252E362D3738271E1F200C
:100360002122232425263333362E37381F04050651
:100370000708090A0B0C0D0E0F1011121314151695
:100380001718191A1B1C1D2F3130232D3504050693
:100390000708090A0B0C0D0E0F1011121314151675
:1003A0001718191A1B1C1D2F3130354C0000000086
:1003B000000000000000000000000000000000003D
:1003C000000000000000000000000000000000002D
:1003D0007E0F00D4FFFFFFC7000000780E03390036
:1003E00036003700340047004C00000018036F004F
:1003F00074006100680069006E006F0073006100A6
:100400006D00650000000403090409025B0003019C
:1004100000A03209040000010301010009211101BB
:1004200000012244000705810308000109040100BE
:10043000020300000009211101000122220007052A
:1004400082032000010705030320000109040200C4
:100450000103000000092111010001227B000705B2
:100460008403200001120100020000000816F57448
:10047000960100010200010660FF0961A101096205
:10048000150026FF009520750881020963150026D6
:10049000FF00952075089102C005010902A10185A0
:1004A000020901A100050919012908150025019576
:1004B00008750181020501093009311581257F95F3
:1004C000027508810609381581257F950175088117
:1004D00006050C0A38021581257F950175088106ED
:1004E000C0C005010980A101850319012AB70015C3
:1004F0000126B700950175108100C0050C0901A106
:1005000001850419012AA002150126A00295017592
:10051000108100C005010906A101050719E029E7BE
:100520001500250195087501810295017508810165
:100530000507190029FF150026FF0095067508819B
:10054000000508190129051500250195057501917A
:1005500002950175039101C011241FBECFEFDAE0AF
:10056000DEBFCDBF11E0A0E0B1E0E0EFFAE402C0F1
:1005700005900D92AA3AB107D9F722E0AAEAB1E0B4
:1005800001C01D92AA38B207E1F70E94F7120C943D
:1005900024250C94000008950E946904089508958C
:1005A0000E94CF0208950E94D0020895E82FF0E043
:1005B000E455FE4F808108950895FF920F931F9395
:1005C000CF93DF93AEE1B1E0ED0161E070E089919E
:1005D000E82FE295EF70F0E041A18F709B0101C020
:1005E000220F8A95EAF7922F9095942391A382A1E6
:1005F000822B82A381E0C832D80749F7C6E1D1E057
:100600002EE131E0AE0161E070E0FA018191AF01CD
:10061000E82FE295EF70F0E0F1A08F708B0101C040
:10062000000F8A95EAF7902F90959F2191A382A1C0
:10063000802B82A32417350741F761E070E0899190
:10064000E82FE295EF70F0E011A18F70AB0101C0CF
:10065000440F8A95EAF7942F9095912391A382A154
:10066000842B82A32C173D0751F761E070E08D9138
:10067000E82FE295EF70F0E041A18F709B0101C07F
:10068000220F8A95EAF7922F9095942391A382A145
:10069000822B82A3F1E0A832BF0749F7E6EBF1E035
:1006A000ACEAB1E080EC91E011921D928E179F07A9
:1006B000D9F70E94CC02CDB7DEB7E5E00C949A24BE
:1006C0002F923F925F926F927F928F929F92AF9202
:1006D000BF92CF92DF92EF92FF920F931F93CF932F
:1006E000DF93F6EB2F2EF1E03F2EABEB8A2EA1E04D
:1006F0009A2EBEE1EB2EB1E0FB2EC0E0AA24A3941B
:10070000B12CD1017C90F10111921F01D7018D9183
:100710007D01E82FE295EF70F0E091A18F70B501B7
:1007200001C0660F8A95EAF7892F862B81A382A1E3
:10073000D62FD0958D2382A3B0EABA95F1F726E1A2
:1007400031E0690190E080E0A10141505109D601FA
:100750005D906D01052D02950F7010E0D801909607
:100760000C91DA016C9010E0B52DBF7002C01595A8
:100770000795BA95E2F710E000FD06C01A2D082E85
:1007800001C0110F0A94EAF71629DA011C930196A9
:1007900088309105E1F681A1D823D1A382A1682BED
:1007A00062A381E09C91971101C080E0C82B821464
:1007B000930409F0A6CF50E040E061E070E0E3E28E
:1007C0006E2EE1E07E2EF90181919F01E82FE295E6
:1007D000EF70F0E0D1A18F708B0102C0000F111FEC
:1007E0008A95E2F7C8019D2F982B91A392A180953D
:1007F000892382A310EA1A95F1F78B01042E01C018
:10080000000F0A94EAF7802E0095EBEBF1E09EE1F1
:10081000E92E91E0F92ED0E06F019080D7011D9173
:100820007D01A12EA2948FE0A822B12CD501909633
:100830008C9190E01F7002C0959587951A95E2F70C
:1008400080FD44C0882D892980833196D6018C9102
:100850009812D1E06E147F04F9F6F9013197808186
:10086000E82FE295EF70F0E0F1A08F708B0101C0EE
:10087000000F8A95EAF7902F90959F2191A382A16E
:10088000802B82A3CD2B4F5F5F4F4830510509F07D
:100890009ACF2C2F4AE06CEA71E086EB91E00E943F
:1008A000AC120E94D3028C2FDF91CF911F910F9138
:1008B000FF90EF90DF90CF90BF90AF909F908F9080
:1008C0007F906F905F903F902F900895802F8921A7
:1008D000BBCF0E94CB0208958430C8F46A30B8F4CC
:1008E0004830A8F4E62FF0E09AE0899FE00DF11D72
:1008F000112483E0EE0FFF1F8A95E1F7E40FF11D4D
:10090000EE0FFF1FE455FF4F85919491089581E00C
:1009100090E0089581E008950E948A04089581E09E
:1009200008950E948A0408950E94910408950895EC
:100930000E9497040895A6E0B0E0E1EAF4E00C9488
:10094000802449835A839E833091C50189819A818D
:1009500031111AC03E81332399F0222389F00E947D
:10096000710A182F682F89819A810E944E0A698125
:100970007A81812F0E9473112696E3E00C949C24C7
:100980000E945F0A182FF3CF0E94710A69817A8151
:10099000F1CFFC01262F40815181628173818481D6
:1009A00095810E949B040895CF93DF93EC0161E051
:1009B0000E94C904BE010E948C04DF91CF9108956A
:1009C000CF93DF93EC0160E00E94C904BE010E9456
:1009D0009804DF91CF91089508950E944A090E94DA
:1009E000EC042FEF84E39CE0215080409040E1F73D
:1009F00000C0000008950E94ED040E941F1D08958C
:100A00000E94ED040E94301D08950F931F93CF9311
:100A1000DF938C0161E00E94C904EC01B8010E94DF
:100A2000F315811106C080E0DF91CF911F910F91E6
:100A30000895B801CE010E9494048823A1F3B8015F
:100A4000CE010E94A81A882371F3B801CE010E943A
:100A5000DA16882341F3B801CE010E941A1A8823BE
:100A600011F3B801CE010E94EC1A8823E1F2F801DB
:100A70008581882361F0C330FCE7DF07E9F058F493
:100A8000C115ECE7DE07A9F0C130DC47B9F0C801B9
:100A90000E948F04C9CFCB358CE7D807A9F0CC359D
:100AA000ECE7DE0771F0CA35DC4789F70E94C90E12
:100AB000EECF0E94FB04B7CF0E94D10E0E9400052A
:100AC000B2CF0E94BF0EE3CF0E94CD0EE0CF0E94B6
:100AD000511C0E948E0508950E9492050E94561C8A
:100AE0000895089581E008950895CF93DF93D82F56
:100AF0000E947205C82F882319F08D2F0E9474055B
:100B00008C2FDF91CF9108950895CF93C82F0E9425
:100B100071058C2F0E947505CF91089580E00E9489
:100B2000850508950E943A1B0E9485050895CF937C
:100B30000E943A1BC82F8091C0018C1779F0C09396
:100B4000C0010E94E01C6093C1017093C2018093B8
:100B5000C3019093C4018C2F0E948505CF91089505
:100B6000ADE0B0E0E6EBF5E00C94812448875987CE
:100B70006A877B878C879D8791110E94F70D1F8262
:100B800086E0FE013896DE01119601900D928A955D
:100B9000E1F78D8181110DC029813A814B815C8102
:100BA0006D817E818F810E942A0D2D96E2E00C944A
:100BB0009D24CE0101960E94D4048111EDCFF5CF82
:100BC000FC012481213021F4808191810E949E0AC0
:100BD0000895662329F00E948E130E9461140895DF
:100BE0000E94E813FACFCF93C82F8823C9F0823828
:100BF000C9F40E94471B81FD13C089E30E94AF0D19
:100C00000E94300E2FEF87EE93E0215080409040FD
:100C1000E1F700C0000089E30E94B70D0E94300E8A
:100C2000CF9108958338A1F40E94471B80FDF8CF2F
:100C300083E50E94AF0D0E94300E2FEF81EE94E00D
:100C4000215080409040E1F700C0000083E5E4CFF0
:100C50008438A1F40E94471B82FDE2CF87E40E9402
:100C6000AF0D0E94300E2FEF81EE94E021508040B6
:100C70009040E1F700C0000087E4CECF8CEF8C0FEE
:100C8000813A90F46C2F80910001909101010E94B3
:100C9000BF1B882329F08C2F0E94B70D0E94300EB5
:100CA0008C2F0E94AF0DBACF80E28C0F883048F4B1
:100CB000C77081E001C0880FCA95EAF70E94DA0D7B
:100CC000ADCFEBE5EC0FE33040F4F0E0E25AFE4F3D
:100CD000808190E00E94631BA3CFE8E5EC0FEB312D
:100CE00050F4F0E0EE0FFF1FE85DFE4F8081918130
:100CF0000E94881B95CF83E38C0F833108F090CF3F
:100D000061E08C2F0E94E9058BCF882309F456C03F
:100D1000823879F40E94471B81FF50C089E30E940A
:100D2000AF0D0E94300E89E30E94B70D0E94300E75
:100D30000895833859F40E94471B80FF3FC083E524
:100D40000E94AF0D0E94300E83E5EECF843859F437
:100D50000E94471B82FF32C087E40E94AF0D0E94B1
:100D6000300E87E4E1CF9CEF980F913AE8F290E2E1
:100D7000980F983050F4877091E001C0990F8A95D0
:100D8000EAF7892F0E94E00DD1CF9BE5980F9330B1
:100D900028F490E080E00E94631B089598E5980F86
:100DA0009B3128F490E080E00E94881B089593E333
:100DB000980F933118F460E00E94E90508951F939D
:100DC000CF93DF93182FEB010E94F305209739F49E
:100DD000812F0E948506DF91CF911F9108958FE9A1
:100DE0009FE00197F1F700C000002197EFCF70E07E
:100DF00060E0893311F460E570E00E94DF06089539
:100E0000882321F00E94DA0D0E94300E0895882375
:100E100021F00E94E00D0E94300E0895B0E0A0E0A5
:100E2000E4E1F7E00C947A246C01D62FC72FFC0183
:100E30001581068102950F700E94D00DE82E88233F
:100E4000E9F0E12E1123D1F08C2F807F803451F016
:100E500080E28D0F8830F8F0011104C08C2F807E65
:100E60008032C9F08091780282FF15C082E00E9432
:100E7000930E0E94D00D91E0E82EE926BC2EB2948C
:100E80009FE0B922FBE0FB15B8F1EB2DF0E0EA5D45
:100E9000FA4D0C946424E12CF1CF0C2F0F70C07F1D
:100EA00011F00295007F112399F0002359F080E2A0
:100EB0008D0F883010F0D11107C0802F0E94DA0DFD
:100EC0000E94300E8D2F5AC0802F0E94EA0DF8CF5D
:100ED0008D2F0E948506002379F080E28D0F8830E7
:100EE00010F0D11104C0802F0E94E00D03C0802FAC
:100EF0000E94F00D0E94300EEB2DE850FF0B34974E
:100F000020F40E943A1B0E948505EE2089F00E9481
:100F1000CC0D80FD0DC0F60115820E94C60D0E9409
:100F2000C209C6010E9411090E94C60D0E94CE0985
:100F3000CDB7DEB7E9E00C9496242C2F2F70F22E5B
:100F4000C07FC03219F0F29480EFF822DD2341F027
:100F5000D130D1F1112309F444C00023F1F0B2CF14
:100F60008091780282FD15C0112359F0FF2029F0ED
:100F70008F2D0E94DA0D0E94300E80E00E94F30552
:100F8000BBCF80E00E948506FF2009F4B5CF8F2DEE
:100F9000ABCF112369F0011104C08F2D0E9400070F
:100FA000ABCF013009F0A8CF8F2D0E940E0EA4CF39
:100FB0000111A2CF8F2D0E9407078F2D0E941A0EBC
:100FC0008F2D0E94FE0D98CF112321F0063008F0DE
:100FD00093CFE3CF053008F08FCF8F2D0E94070706
:100FE0008BCF0023D1F3D93349F43FEF87EE93E061
:100FF000315080409040E1F700C000008D2F0E94EA
:1010000085067ACF8C2F86958695837069F081301E
:1010100009F072CF8D2F9C2F9370111102C080E0C8
:1010200090E00E94881B68CF8D2F9C2F9370111128
:1010300002C080E090E00E94631B5ECF612F8D2F85
:101040000E94E90559CF8C2F837079F5111154CF87
:101050004D2F429546954770440F440F8D2F8F704A
:10106000042E01C0880F0A94EAF72D2F2071D4FFB7
:1010700007C02FE030E001C0220F4A95EAF7209523
:10108000C695C695C370822BC23049F058F4C13062
:1010900019F00E949E0930CF0E9498092DCF0E941E
:1010A000A4092ACF0E94950927CF8695112311F014
:1010B0008C2F8170882309F41FCF4D2F42954695C0
:1010C0004770440F440F8D2F8F70042E01C0880F7E
:1010D0000A94EAF72D2F2071D4FF07C02FE030E0EB
:1010E00001C0220F4A95EAF72095C695C695C370B0
:1010F000822BC23049F058F4C13019F00E94ED093A
:10110000FBCE0E94E709F8CE0E94F309F5CE0E94BB
:10111000B009F2CECF70112329F08C2F0E94C209A2
:101120008D2F3CCF8D2F0E9407078C2F0E94CE0958
:10113000E3CED23F41F160F4D03FB9F0D13F81F02E
:10114000112309F446C00111BDCE8C2F8F711FC031
:10115000D33F01F1D43FA1F78091780282FD24C0F2
:101160008C2F8F71112311F312C0112341F0053020
:1011700008F0C2CE8C2F8F710E94DB09BDCE0630E5
:1011800008F0BACEF7CF8C2F8F711111CFCF0E94FC
:10119000C209B2CE112329F08C2F8F710E94B90998
:1011A000ABCE0E94B509A8CE112349F0CF718C2F88
:1011B0000E94C20963E08C2F0E94750E9DCE81E0D3
:1011C0000E94930E023008F497CE82E00E94930EA4
:1011D00093CE002359F0D93309F010CFEFEFF7EE9B
:1011E00023E0E150F0402040E1F706CF8C2F8F71D3
:1011F0009DCF0F931F93CF93DF93EC01688179818B
:101200008D810E94A90A8C010E94F9090E9494090B
:10121000B801CE010E940E07DF91CF911F910F916F
:101220000895CF93DF93EC018C81882399F0CE0150
:101230000E940505811111C00E94D00D882351F034
:101240008D81882339F08091780282FF03C082E08B
:101250000E94930EDF91CF910895CE010E94F9086C
:10126000CE010E94E004F6CF90E080E00E94631B74
:1012700090E080E00E94881B0E94F70D0E94300ED3
:101280000E947D140E94611408950E94BF0D0E9467
:10129000340908950E94E70D0E944509089592952A
:1012A0009F70963091F058F4925F9F70923058F48E
:1012B000803F19F030F4883E30F481E008959A5F61
:1012C000F4CF843FD1F380E00895883EB0F3813FAE
:1012D000D1F7F3CFFC012481222339F08081918161
:1012E0000E949E0A0E944F09089580E00895A6E09A
:1012F000B0E0EDE7F9E00C9481242696E2E00C944E
:101300009D24A7E0B0E0E7E8F9E00C94812427965B
:10131000E2E00C949D2408950E948B0908950E9498
:101320008C098093E501089508950E948F0908951E
:101330009091E501892B0E948F0908959091E50114
:1013400089230E948F0908959091E50189270E94C1
:101350008F0908950E948B0908950E94AA09089593
:101360000E94AD098093E401089580E00E94B009D5
:10137000089591E001C0990F8A95EAF7892F0E949C
:10138000B009089521E030E001C0220F8A95EAF704
:101390008091E401822B0E94B009089521E030E0A1
:1013A00001C0220F8A95EAF720958091E4018223FB
:1013B0000E94B009089521E030E001C0220F8A9513
:1013C000EAF78091E40182270E94B0090895909184
:1013D000E401892B0E94B00908959091E4018923CA
:1013E0000E94B00908959091E40189270E94B009F4
:1013F00008950895262F277091E001C0990F2A952E
:10140000EAF723E0769567952A95E1F7FB01EE0F61
:10141000FF1FE60FF71FE40FF51F50E040E0682FB5
:1014200070E08191DF0111979B01042E02C0369577
:1014300027950A94E2F72170219528272923282748
:101440002C934F5F5F4F4330510559F70895A82FF4
:10145000A77023E0969587952A95E1F7FC01EE0F9A
:10146000FF1FE80FF91FE60FF71F50E040E080E094
:10147000219130E00A2E02C0369527950A94E2F7B2
:1014800021703327042E01C0220F0A94EAF7822B21
:101490004F5F5F4F4330510559F70895262F9A301B
:1014A00068F4883058F438E0939FB0011124680F35
:1014B000711D46EC51E0822F0E94FA0908959A307E
:1014C00070F4883060F448E0949F9001112466EC39
:1014D00071E0820F932F911D0E94270A089580E0EA
:1014E0000895CF92DF92FF920F931F93CF93DF93D4
:1014F0006C010091E4018091E501082BC3E0D0E08C
:1015000010E0FC2EC8010C2E02C0959587950A9418
:10151000E2F780FD0CC02197A0F7F12C8F2DDF9111
:10152000CF911F910F91FF90DF90CF900895B6015A
:101530008C2F0E947F11019771F3F0CFCF93DF932F
:10154000EC010E94710ABE010E947F11DF91CF91D0
:1015500008951F93CF93DF93EB019091C5019923D9
:1015600039F0CB010E949E0ADF91CF911F9108951F
:10157000882369F0CB010E94710A182F682FCE01D1
:101580000E944E0ABE01812F0E947F11EDCFCB0138
:101590000E945F0A182FF6CFE1E0F0E0DF0102C001
:1015A000AA0FBB1F6A95E2F7BD01DF0102C0AA0FB7
:1015B000BB1F4A95E2F76A2B01C0EE0F2A95EAF7A6
:1015C000962F9823961302C08E2B0895E0958E23B4
:1015D0000895242F462F682F8091E4010E94CC0AA1
:1015E0000E94B00908951F93CF93DF93C091E60145
:1015F00017E08091E7018C1304C0DF91CF911F9118
:101600000895D0E01C9FF0011D9FF00D1124E851BA
:10161000FE4F2081318142815381648175818681B1
:101620000E9481092196C770E4CF20912002309159
:101630002102409122025091230260912402709174
:101640002502809126020E9481090895CF93DF939D
:1016500080912602807F09F04DC080912502882369
:1016600009F448C0E091E6015091E701C0912102E0
:10167000D0912002609122027091230247E05E1710
:10168000C9F18E2F90E0E49FF0011124E851FE4F44
:101690002481222391F1489FF001499FF00D1124EC
:1016A000DF01A851BE4F11962C9111972C1325C024
:1016B0002C912D1322C015962C91159721111DC028
:1016C00012962D913C91261B370B283C3105A8F42E
:1016D000809126028F70806180932602E251FE4F36
:1016E00080818F708061808380E292E00E94110986
:1016F0000E94F30ADF91CF910895FC013196E770C3
:10170000BECF482F2091E6019091E70157E02913C1
:1017100002C080E0089530E0529FF001539FF00D29
:101720001124E851FE4F8181681306C0808148135F
:1017300003C085818111EECF2F5F3F4F2770E7CF28
:10174000A4E1B0E0E6EAFBE00C9477248C0186E0AB
:10175000F801DE011F9601900D928A95E1F7F801DC
:101760008481E58090E2A92E92E0B92E9091240226
:1017700091111FC08823D1F0EE20A9F0C8010E946A
:101780006A09F82E882379F087E0F801D5010190E5
:101790000D928A95E1F7C5010E94E0050E94260B93
:1017A0000E94150B5FC0C8010E941109FF24F39429
:1017B00059C0C080D18082809380F0902502209112
:1017C000220230912302A401421B530BFF2009F493
:1017D000F9C0483C510508F0A7C0882309F442C06D
:1017E0009091210280912602282F207F09F05CC071
:1017F0009D1116C090912002C91212C0E1104EC076
:101800008F708061809326020E94150B80E292E027
:101810000E94110980912602F8018683F12C22C0D2
:10182000E1103CC06D2D8C2D0E94810B6D2D8C2DF7
:101830000E94810BE82E8111F1CFCF86D88A8F8547
:1018400098890E949E0A292F22952F70243078F4BF
:101850009F702230A8F09923B9F0F8019681907F0B
:1018600099F4FE2C8F2D6496ECE00C9493242A5F5F
:101870002F70223068F0C8010E941109EF2CF1CFBF
:10188000992311F0882369F3805E883050F3F3CFF9
:10189000803F38F3815F833070F7E3CF8091260279
:1018A000816080932602BACF9D1113C090912002CF
:1018B000C9120FC0E1100DC08683C8010E94110932
:1018C00087E0F801A0E2B2E001900D928A95E1F77D
:1018D00067CFC8010E946A09882309F464CFEE200B
:1018E00009F461CF80912602803288F02091200295
:1018F00030912102398728879B868A86909124021D
:101900009C871D868E87CE0108960E94110987E06C
:10191000F801A0E2B2E001900D928A95E1F70E94F1
:10192000260B0E94150B42CF90912602292F207F73
:10193000A1F4682D9A8A898AA6017A899E2D0E942F
:10194000770980E292E00E94110987E0F501119287
:101950008A95E9F70E94150B61CF882309F482CF9D
:10196000809121028D1110C080912002C8120CC0FC
:10197000E1100AC09683C8010E94110987E0F501B1
:1019800011928A95E9F76ECFC8010E946A098823EF
:1019900009F409CFEE2009F406CF809126028032A7
:1019A00008F4B5CF20912002309121023A83298397
:1019B0009C828B82909124029D831E828F83CE0114
:1019C0000196A3CF483C5105B8F5882309F4EECE23
:1019D000FE2CEE2009F4E7CE809121028D111EC06D
:1019E00080912002C8121AC08091260280FD0DC08D
:1019F000982F907F51F08683903F09F45ECF982F07
:101A0000907F905F8F70892B57CF87E0F801A0E21D
:101A1000B2E001900D928A95E1F724CFC8010E94AF
:101A20006A09811174CF8091260281608093260219
:101A3000C8010E94110916CF682D9A8A898AA601C9
:101A40007A899E2D0E94770987E0F50111928A9587
:101A5000E9F7A6CEAEE0B0E0E0E3FDE00C94802430
:101A6000288739874A875B876C877D878E87CE0179
:101A700008960E94A00B8823B1F06C85662341F084
:101A8000288539854A855B857D858E850E948109FB
:101A900017E08091E6019091E70189133DC02E96F1
:101AA000E3E00C949C2487E0FE013896DE01119659
:101AB00001900D928A95E1F78C85882349F3209156
:101AC000E70130E0C9010196877099274091E6014E
:101AD0004817190699F097E0929FD001939FB00D97
:101AE0001124A851BE4FFE01319601900D929A9596
:101AF000E1F78093E7010E94F30ACACF0E944A09E6
:101B00001092E7011092E60187E0E0E2F2E0DF01E7
:101B10001D928A95E9F7BCCF819FC001112488519D
:101B20009E4F0E94A00B882309F4B9CFE091E601F3
:101B30001E9FF0011124E851FE4F20813181428126
:101B400053816481758186810E9481098091E601BB
:101B500090E00196877099278093E6019ACF682FCD
:101B600080910001909101010E94F51B0895682F5A
:101B700080910001909101010E94F81B08958091CD
:101B80000001909101010E94FB1B089580912F029A
:101B9000869586958695089580912F028770089581
:101BA00090912F02977081E009F480E00895809170
:101BB0003B02089590913B02892B80933B0208954C
:101BC000809590913B02982390933B020895109248
:101BD0003B02089590913A02892B80933A0208952E
:101BE000809590913A02982390933A02089510922A
:101BF0003A02089508950E94FA0D089590913002D6
:101C0000292F282331F080958923809330020E9468
:101C1000FB0D089508950E940A0E089590913102D7
:101C2000292F2823281729F0982B909331020E94FE
:101C30000B0E089590913102292F282331F08095C1
:101C40008923809331020E940B0E08958091310206
:101C5000882329F01092310280E00E940B0E089533
:101C6000CF93DF93E0910001F091010180913B025D
:101C70008083E0910001F0910101808190913A020E
:101C8000892B808390913102992381F0E0910001AA
:101C9000F09101018081892B8083809100019091D6
:101CA00001010E94AD1B81110E94260EC09100010E
:101CB000D091010148E050E067E272E0CE010E945D
:101CC000BC24892B59F088E0FE01A7E2B2E0019024
:101CD0000D928A95E1F7CE010E944A1BDF91CF91C8
:101CE000089508950E94710E08959091780292FFD0
:101CF00011C098E0899F90011124622B60932F02FC
:101D00000E94C20980912F028695869586950E9431
:101D1000720E08950E94C209089510922F0280E069
:101D20000E94720E089590912F02809589238093CE
:101D30002F02282F277069F4891759F090917802A3
:101D400092FF07C08695869586950E94CE090E94CF
:101D50008D0E08959091780292FB222720F9281782
:101D600069F080FB92F990937802809177029091CC
:101D700078020E94F30E82E00E94930E08958091F3
:101D8000780282FB882780F991E089270E94AA0EB9
:101D9000089581E00E94AA0E089580E00E94AA0E94
:101DA00008956FEF7FEF90E080E00E940E25089588
:101DB00090E080E00E94DA24863E9E4F19F40E9453
:101DC0008D15089580E0089582E090E00E94D2246D
:101DD000089583E090E00E94D224089584E090E08A
:101DE0000E94DA240895BC0184E090E00E940E2550
:101DF0000895AB01BC018FE090E00E940225089598
:101E0000AB01BC0183E190E00E940225089560E0EF
:101E100070E0CB010E94000F089560E070E0CB01FC
:101E20000E94F90E0E94070F0895A8E0B0E0EBE1D0
:101E3000FFE00C94812466EE7EEF90E080E00E944B
:101E40000E2560E082E090E00E94F02460E083E0F4
:101E500090E00E94F0241092E50160E074E184E0DB
:101E600090E00E940E2560E086E090E00E94F02461
:101E70006FEF87E090E00E94F02440E050E0BA016C
:101E800088E090E00E94022560E084E290E00E94F9
:101E9000F02460E087E190E00E94F02460E08CE0B4
:101EA00090E00E94F02460E08DE090E00E94F02439
:101EB00019821A821B821C821D821E821F82188632
:101EC00048E050E068E170E0CE0101960E94E02415
:101ED00040E050E0BA0180E290E00E94022580E0FC
:101EE0000E94A6150E94D5150E940D0F2896E2E0CB
:101EF0000C949D240E94150F0895682F8EE090E0A9
:101F00000E94F0240895A6E0B0E0E9E8FFE00C9418
:101F10007F240E94D41C8C0180913C0290913D0250
:101F20008017910781F019821A820E94D41C682FB1
:101F300049815A81792F80E090E00E94B00510938A
:101F40003D0200933C022696E4E00C949B240E9400
:101F5000E01C60934C0270934D0280934E0290936C
:101F60004F02609348027093490280934A02909313
:101F70004B020895089508950E94BA0F0895089598
:101F80000E94BF0F089585E792E10E9404130E940A
:101F9000BB0F0E94BC0F089581E008950E94CC0FF2
:101FA00008950E94CC0F0895089508950E94D40FBB
:101FB0000E94D50F08950E9491120E9484050895F1
:101FC0000E94CB1C0E94E5150E94DD020E94DB0FDF
:101FD0000E94C00F0895A6E0B0E0E1EFFFE00C948E
:101FE00078240E94CE0F81110AC00E94830F0E94A4
:101FF0009F140E9497052696EBE00C9494240E946F
:1020000060038EE3A82E82E0B82E750110E0F70180
:1020100001917F01812F0E94D6021F5F1A3009F4BF
:1020200041C00817A1F38091500281FD0E94DC029B
:102030000E94D10FC82E10E099249394812F0E9402
:10204000D602082FF50181915F01081729F1D02EE2
:10205000D826F12CEE24E3948D2D8E21A9F0CC20EE
:1020600099F0F9821A830E94D41C9C838B839D82F1
:1020700091E0802F8E2109F490E049815A816B8193
:102080007C818D810E94B005F394EE0CF8E0FF1284
:10209000E3CFF501319700831F5F1A3079F60E9474
:1020A000A70FA5CF0813BFCFA0CF1F93CF93DF9368
:1020B0000E948411EC01C11580E5D807F0F5C11527
:1020C00080E4D80708F09CC0C03ED10520F5CD3C87
:1020D000D10508F082C0C83AD10578F4C53AD105D7
:1020E00008F073C0C130D10519F1209709F1C4304F
:1020F000D105F0F4D0E0C0E01BC0C33CD105D0F75F
:10210000C85AD0E0CC0FDD1FCF59DE4F0990D881DF
:10211000C02DD4640DC0C11580E2D80708F0D1C02D
:10212000C11581E0D80708F05AC0C83ED10510F7A4
:10213000CE01DF91CF911F910895C03682E5D80777
:1021400018F5C03482E5D80708F06BC0C03282E5CC
:10215000D80708F05FC0C11582E5D80708F497C01A
:102160002C2F2695269580E2289F900111248C2FF4
:102170008370C1E0D0E002C0CC0FDD1F8A95E2F78A
:10218000C22BD32BDD68D4CFC03A82E5D80760F4E8
:10219000C03882E5D80708F459C0CF71D0E0DC2FF1
:1021A000CC27C46FD06AC4CFC03C82E5D80708F4FE
:1021B00062C0C03E82E5D80708F09CCFDC2FCC2758
:1021C000CC27DF71C06FD06AB3CFC55AD0E0C956F3
:1021D000DE4FC881D0E0D064ABCFD065A9CF8D2FC2
:1021E0000E942612182FCE0199270E948411C12F18
:1021F000D0E0DC2FCC27CC27DF71C82BD92B98CF90
:10220000CE0199270E948411CC27DF70C82BD92BCF
:10221000D06A8ECFCF71D0E0DC2FCC27C16FD06ACF
:1022200087CF2C2F26952695277080E2289F900136
:1022300011248C2F8370C1E0D0E002C0CC0FDD1FD1
:102240008A95E2F7C22BD32BDC6872CF2C2F269510
:102250002695277080E2289F900111248C2F83708F
:10226000C1E0D0E002C0CC0FDD1F8A95E2F7C22B9F
:10227000D32BDA685DCF8C2F8F710E942612C82F66
:10228000D0E0DC2FCC27CC27DF71D06251CF8C2F50
:102290008F710E94261255E0D695C7955A95E1F7A1
:1022A000CF70D0E0DC2FCC27282F30E084FF05C092
:1022B00044E0220F331F4A95E1F7C22BD32BD0699C
:1022C00037CF8D2F8F710E942612182FCE0199279C
:1022D0000E948411C12FD0E0DC2FCC27CC27DF71E6
:1022E000C82BD92BD2CF462F7A3030F4683020F467
:1022F000672F0E943219089590E080E008950E94AF
:1023000073110E945510089582389105B9F1B0F407
:102310008133910509F47DC048F48932910509F4AF
:102320006DC08A32910509F47BC00895853391050B
:1023300009F45FC08933910509F10895833E910541
:10234000D9F138F4803E910529F1823E910579F169
:102350000895863E9105D9F1873E910509F43EC066
:10236000843E910541F52091780221FF24C080919F
:10237000770284FD19C087EE90E0089520917702DE
:10238000237009F05AC02091780223FF14C089E21B
:1023900090E008952091770220FD38C030917802B6
:1023A00030FF09C024FF43C090E080E008952091F1
:1023B000770222FDF7CF08952091770222FD3AC0DF
:1023C0003091780230FD39C024FFF5CFEDCF209158
:1023D000770223FFF0CF24FDE7CFCDCF2091770206
:1023E00023FD2EC03091780231FFEECF84EE90E0D5
:1023F00008952091770225FFDECFC9CF2091770283
:1024000025FD21C02091780223FFD5CF89E390E0FC
:10241000D2CF2091770226FFCECF8AE290E00895B6
:102420002091770226FFC7CF81E390E0089583EEE5
:1024300090E0089582EE90E0089580EE90E0089597
:1024400086EE90E0089585E390E0089590917702FC
:1024500092FF10C041E0282F2471243009F040E0A1
:1024600031E0282F2871283009F030E0431711F0AF
:102470002CE0822793FF10C041E0282F24712431E3
:1024800009F040E031E0282F2871283109F030E0D0
:10249000431711F02CE082273091780230FF10C0F2
:1024A00051E0282F2171213009F050E041E0282F20
:1024B0002871283009F040E0541711F029E08227F4
:1024C00031FF10C041E0282F2171213109F040E097
:1024D00031E0282F2871283109F030E0431711F03E
:1024E00029E0822794FD877E089580E008950E9468
:1024F000D10E08950E9460038FE39CE90197F1F7E4
:1025000000C000000E94600380E00E94D60280FFAD
:1025100004C00E9477120E941F1D08950E947A1223
:1025200008950E94D80E811102C00E947A0F0E9465
:10253000E40E809350020E94EE0E909378028093F6
:1025400077020E948E120E94E90E0E9495098091E6
:10255000E4010E94AD090895CF92DF92EF92FF92BD
:102560000F931F93CF936C017B01042F222349F01B
:1025700081E0809353020E94D41C90935202809376
:102580005102C0915302C1110AC0C0E08C2FCF91FB
:102590001F910F91FF90EF90DF90CF900895809161
:1025A0005102909152020E94EC1C059770F310E0CA
:1025B000A801B601C7010E94BC24892B41F0A801E3
:1025C000B601C7010E94C92410925302DFCFC0E0B8
:1025D000FBCF0E94AA1E0E94E00F0E94B71E089522
:1025E0000E94BC1E0E94EB0F0E94D61E08950E94FE
:1025F0006D1C0E94901E0E94C30F0E94E9120E944F
:10260000F0120E94D60FFBCF9093AB018093AA01EA
:102610000895282F35EB2303C001112497FF04C030
:1026200080589109892F089580589F4FFBCF809142
:102630005A0280FF0DC06091070170E0660F771F9E
:102640006038710570F56115710569F1862F08957F
:1026500081FF07C06091070184E0689FB0011124E9
:10266000EFCF6091070182FD0AC080915902882353
:10267000A9F02091060160910701821710F088E00F
:10268000ECCF869FC001112433E0880F991F3A9543
:10269000E1F7622F70E00E945024D2CF68E070E032
:1026A000D5CF8FE7089581E0089580915A0280FF89
:1026B0000CC06091030170E07595679575956795FD
:1026C0006115710549F1862F089581FF06C060915B
:1026D000030170E075956795F3CF6091030182FD6A
:1026E0000BC0909158029923A1F060910201809152
:1026F0000301961738F0682F70E06038710500F319
:102700008FE70895899FC001112470E00E94502432
:10271000F4CF61E070E0D7CF81E008958D3C31F4D3
:102720000E941713819580935E0208958E3C19F4E0
:102730000E941713F8CF8F3C31F40E941713819534
:1027400080935D020895803D19F40E941713F8CF1D
:10275000893D29F40E94551380935F0208958A3DB4
:1027600021F40E9455138195F7CF8B3D31F40E94DF
:10277000551381958093600208958C3D19F40E9451
:102780005513F8CF9FE2980F983070F4815D990B44
:1027900021E030E001C0220F8A95EAF780915C02C7
:1027A000822B80935C0208958D3D31F480915A0212
:1027B000816080935A0208958E3D21F480915A02DF
:1027C0008260F7CF8F3DB9F780915A028460F1CFD4
:1027D00040915D028D3C59F480915E0287FF0DC0EF
:1027E00010925E0241110BC01092590208C08E3C3B
:1027F00081F480915E0218169CF3442381F080914D
:102800005F0290916002892B09F05AC01092580221
:1028100008958F3C49F447FFF0CF10925D028091FC
:102820005E028111ECCFE0CF803D19F41416ACF3B9
:10283000E4CF90915F02893D29F41916F4F61092C5
:102840005F02DBCF8A3D19F497FFD7CFF8CF909185
:1028500060028B3D29F497FFD0CF10926002CDCF5C
:102860008C3D19F41916CCF3C8CF9FE2980F98301D
:1028700090F4815D990B21E030E0B90102C0660F50
:10288000771F8A95E2F7CB01809590915C028923AE
:1028900080935C02B2CF8D3D31F480915A028E7FDD
:1028A00080935A02AACF8E3D21F480915A028D7FE7
:1028B000F7CF8F3D09F0A1CF80915A028B7FF0CFE7
:1028C00008950E94D41C9C0190915D0280915E024B
:1028D000982B21F0309357022093560290915F027B
:1028E00080916002982B21F030935502209354027E
:1028F0008BE592E00E94551B089586E0EBE5F2E03F
:10290000DF011D928A95E9F7109259021092580240
:1029100010925A020895FC01828181110EC08381B8
:1029200081110BC08481811108C091E085818111E2
:1029300001C090E0892F8170089581E0FCCFA6E06E
:10294000B0E0E5EAF4E10C94802486E0EBE5F2E007
:10295000DE01119601900D928A95E1F710925D02C9
:1029600010925E0210925F02109260028B819C8135
:10297000892B89F080915602909157020E94EC1C9D
:10298000AC01909159029923C9F1809108018417F3
:10299000150608F440C08D819E81892B91F08091AD
:1029A0005402909155020E94EC1CAC019091580287
:1029B000992309F46AC0809104018417150608F46C
:1029C00072C0BE016F5F7F4F8BE592E00E94021CD8
:1029D000811105C08BE592E00E948B1481110E9449
:1029E000611486E0FE013196ABE5B2E001900D92F4
:1029F0008A95E1F72696E3E00C949C242091090146
:102A00008AE0289F900111242417350720F69F5F44
:102A10009093590202C09F3FD1F71B81112359F0B7
:102A20000E9417139FEF11160CF491E0899F802DDF
:102A3000112480935D021C81112359F00E94171309
:102A40009FEF11160CF491E0899F802D1124809343
:102A50005E0280915D02882309F49DCF10915E0291
:102A6000112309F498CF0E940913882351F0809311
:102A70005D02812F0E940913882329F080935E0252
:102A80008ACF81E0F4CF81E0F9CF209105018AE07F
:102A9000289F900111242417350708F092CF9F5FDB
:102AA0009093580202C09F3FD1F71D81112359F026
:102AB0000E9455139FEF11160CF491E0899F802D11
:102AC000112480935F021E81112359F00E94551337
:102AD0009FEF11160CF491E0899F802D11248093B3
:102AE000600280915F02882309F46BCF109160022D
:102AF000112309F466CF0E940913882351F08093B3
:102B00005F02812F0E940913882329F080936002BD
:102B100058CF81E0F4CF81E0F9CF85E290E00E94C8
:102B2000D224833289F486E290E00E94D224893054
:102B300059F487E290E00E94D22491E0863109F0B6
:102B400090E0892F8170089580E0FCCFCF93C82F4B
:102B50006FEF811163E285E290E00E94F0246FEF55
:102B6000C11169E086E290E00E94F0246FEFC1118C
:102B700066E187E290E00E94F024CF9108950895E5
:102B800088E290E00E94D224682F70E090E080E01C
:102B900008950895CF93C62F0E94C9156C2F88E21F
:102BA00090E00E94F024CF91089580E00E94A61545
:102BB00060E070E0CB010E94CA150E94CA180E9412
:102BC0008D1981E00E94A61508950E94BF150E94EC
:102BD000C0150E94C9150E948D15811102C00E9466
:102BE000D515089508959C01FB018581882351F036
:102BF000A90157574038510530F4822F0E949D1982
:102C000080E0089581E008952FEFFC01208308956E
:102C10000E940416089580E00895B0E0A0E0E3E18A
:102C2000F6E10C947B24EC01E62E0E940B16811138
:102C300010C0E881E150E331B8F4F0E0EE5CFA4D09
:102C40000C94642419828CE08A836E2DCE010E943C
:102C5000841DCDB7DEB7E8E00C94972489818230DB
:102C6000C1F028F4813061F08FEF8883EECF83309C
:102C700099F08430C9F71A821B821C821D82E5CF2D
:102C80000E94E01C0E946A246A837B838C839D835C
:102C9000DCCF0E94C015F6CF8A81082F10E06E01AC
:102CA00093E0C90ED11C9CE1F92EF80E0A301105F3
:102CB00060F6802F0E94D602F60181936F010F5FAC
:102CC0001F4FF012F3CFC1CF8981823031F08530B0
:102CD00059F68A810E94F215B8CF6A817B818C8176
:102CE0009D810E946A240E94CA15AFCF4B816A81E0
:102CF00089810E948C189827892798279D838C8327
:102D0000A4CF2C813D813227232732274B816A8132
:102D100089810E94AE1899CF0E94CA1896CF6E2D55
:102D2000CE010E94081691CF0E943E1989838DCF53
:102D30000E9440199827892798279A83898385CFED
:102D40006B8170E089819A81AE014C5F5F4F98275B
:102D5000892798270E94431978CF6B8170E0898179
:102D60009A81AE014C5F5F4F9827892798270E9470
:102D700068196BCF0E948D1968CF0E947918D6CF41
:102D80006B8170E089819A81AE014C5F5F4F98271B
:102D9000892798270E94EA1858CF6B8170E08981B3
:102DA0009A81AE014C5F5F4F9827892798270E9430
:102DB0000E194BCFCF93DF93EC01FB018581882364
:102DC00009F4D2C09E0130572332310508F0B2C059
:102DD0000E94EE0E9093780280937702FE01E150FC
:102DE000F047E232F10520F4EB5BFA4D0C946424D9
:102DF0008091770281608093770293C080917802FE
:102E00008860809378028DC0809177028260F3CFD2
:102E1000809177028460EFCF809177028860EBCF5A
:102E2000809178028160EDCF809178028260E9CF55
:102E3000809177028061DFCF809177028062DBCF63
:102E4000809177028064D7CF0E944A0980917702EF
:102E50008068D1CF809177028C60CDCF809178024D
:102E60008360CFCF809177028E7FC5CF809178022B
:102E7000877FC7CF809177028D7FBDCF809177020A
:102E80008B7FB9CF80917702877FB5CF8091780211
:102E90008E7FB7CF809178028D7FB3CF80917702FC
:102EA0008F7EA9CF809177028F7DA5CF8091770209
:102EB0008F7BA1CF0E944A09809177028F779BCFA9
:102EC00080917702837F97CF809178028C7F99CF12
:102ED0008091770282FB992790F921E0922790FB5D
:102EE00082F990FB83F987CF80917802982F909593
:102EF00091708E7F892B90FB81F983CF909177021F
:102F0000892F8F7B96FF806476CF0E944A0990912B
:102F10007702892F97FB87F980586DCF81E00E9457
:102F20007D0F80917702909178020E94F30E0E94AB
:102F30004A0980E0DF91CF91089580E0F0CF909131
:102F40007702892F8F7E94FF806155CF9091770211
:102F5000892F8E7F90FF81604ECF90917802892FCC
:102F6000877F93FF88604DCF81E0E4CFB0E0A0E0A1
:102F7000ECEBF7E10C947C24E82FF0E0E45DFC4FEF
:102F8000D490282F26952695269530E0F901E45314
:102F9000FC4F0491877010E0082E02C0159507952C
:102FA0000A94E2F701701127F901E454FC4FE49010
:102FB000F12C082E02C0F594E7940A94E2F791E010
:102FC000E922FF24F901E455FC4FC491D0E002C08E
:102FD000D595C7958A95E2F7C170DD2701151105D2
:102FE00019F081EE0E94F305E114F10419F086EE68
:102FF0000E94F3058D2D0E94F706E114F10419F0EB
:1030000086EE0E9485060115110519F081EE0E94D9
:103010008506CD2B19F08CE20E94F706CDB7DEB7FE
:10302000E7E00C949824EF92FF920F931F93CF93B5
:10303000DF93EC01162F0AE08881882309F454C03D
:10304000813009F04EC08981813099F47E0122E0FF
:10305000E20EF11C8A810E94F706E7012196812F7A
:10306000815050F3EFE9FFE03197F1F700C0000025
:10307000F7CF823041F47E0182E0E80EF11C8A81B4
:103080000E94F305EACF833041F47E01E2E0EE0EC8
:10309000F11C8A810E948506E0CF843011F02196D0
:1030A000DDCF2A81229690E080E0AE014F5F5F4F36
:1030B0002053330B2A30310548F0019778F2EFE9BD
:1030C000FFE03197F1F700C00000F7CF089FB00193
:1030D000099F700D1124C901860F971F2981EA01EC
:1030E000E4CF0E94B617BACFCDB7DEB7E6E00C94B6
:1030F000992484E0089590E1699FB001112450E083
:10310000440F551F640F751F90EA899F600D711D54
:103110001124CB01899608950F931F93CF93DF93CA
:103120008430C8F46A30B8F44830A8F40E947B18A0
:103130008C010E94D224C82FD0E0DC2FCC27C801FC
:1031400001960E94D2249E01282BC901DF91CF91C4
:103150001F910F91089590E080E0F8CF0F931F9397
:10316000CF93DF93122F032F843078F46A3068F402
:10317000483058F40E947B18EC01602F0E94F02424
:10318000612FCE0101960E94F024DF91CF911F9113
:103190000F9108951F93CF93DF93D0E0C0E011C04B
:1031A000412F6C2F8D2F0E946C049C01412F6C2F9E
:1031B0008D2F0E94AE181F5F183091F7CF5FCA3075
:1031C00011F010E0EDCFDF5FD43041F7DF91CF9108
:1031D0001F910895EF92FF920F931F93CF93DF9368
:1031E000EC018A017C01E60EF71ECE018996CE1510
:1031F000DF0529F4CDB7DEB7E6E00C949924C0389A
:1032000022E0D20740F40E94D224F80180830F5FAD
:103210001F4F2196EACFF8011082F9CFB0E0A0E06D
:10322000E4E1F9E10C947B247C016A018C01060F36
:10323000171FEC01CE018996C017D10729F4CDB72D
:10324000DEB7E8E00C949724C03822E0D20740F4BF
:10325000FE01EE19FF09EC0DFD1D60810E94F024B6
:103260002196E8CF843038F46A3028F4483018F4D6
:103270000E948C18089590E080E0089580E1089500
:1032800087E591E00895EF92FF920F931F93CF93FC
:10329000DF93EC018A017C01E60EF71ECE01875513
:1032A0009D4FCE15DF0529F4CDB7DEB7E6E00C94CF
:1032B0009924C73521E0D20740F40E94D224F801B6
:1032C00080830F5F1F4F2196E9CFF8011082F9CF5D
:1032D000B0E0A0E0EEE6F9E10C947B247C016A0109
:1032E0008C01060F171FEC01CE0187559D4FC017AB
:1032F000D10729F4CDB7DEB7E8E00C949724C735A1
:1033000021E0D20740F4FE01EE19FF09EC0DFD1D8E
:1033100060810E94F0242196E7CFCF93DF93C9EA22
:10332000D2E060E0CE010E94F0242196C11584E035
:10333000D807B9F7DF91CF910895A8E0B0E0E3EAAC
:10334000F9E10C947924F82E8FE08F1508F46EC003
:103350008FEF93E00E94D224811168C009EA12E045
:10336000F11035C0FE0131966F0188E011928A9507
:10337000E9F77801FFEFEF1AFF0AC8010E94D22493
:1033800089831A82882309F451C08130D1F458010D
:1033900082E0A80EB11CC7010E94D2248A83882330
:1033A00009F444C09FEF980F9330F0F4780193E054
:1033B000E90EF11CC5010E94D2248B838823B1F150
:1033C0001C8260E0C6010E9413188701D2CF01154C
:1033D00094E0190759F1C8010E94D224811101C05B
:1033E000FA940F5F1F4FBCCF7501843051F702E094
:1033F00010E07501EFEFEE1AFE0AC5010E94D2241B
:10340000F601E00FF11F8083882381F08C3741F4AF
:10341000E2E0F0E0EC0FFD1FE00FF11F1082D1CFD2
:103420000F5F1F4F57010730110519F72896EAE083
:103430000C949524CF93DF93EB0186319C4711F5D3
:103440000E94D70D9D81992399F08A7A91E009F421
:1034500090E090936102811109C089E20E94AF0D52
:103460000E94300E80E0DF91CF91089585E3F6CF82
:1034700080916102811104C089E20E94B70DF0CFF2
:1034800085E3FBCF81E0EFCF0F931F93CF93DF93C3
:10349000C42FD22FFC0185818823C9F04093640298
:1034A0000E94D41C909363028093620280E28C0F8E
:1034B000883040F4C77081E001C0880FCA95EAF7F0
:1034C0000E940007DF91CF911F910F9108951091F5
:1034D0006402141332C080916202909163020E94D0
:1034E000EC1C883C910548F5C0E2CD0F1D17B9F0E2
:1034F00080E2810F883040F4177081E001C0880FAE
:103500001A95EAF70E940707C83048F481E09D2F1A
:10351000977001C0880F9A95EAF70E940007802FE4
:103520000E94F706C83070F6D77081E001C0880F9E
:10353000DA95EAF70E940707C5CF80E28C0F883042
:1035400008F6C77081E001C0880FCA95EAF7F2CF8C
:103550000F93DB0188519C4787309105A0F5FC0152
:10356000E959FA4D0C94642406E221EE41EE6AE139
:103570007CE7CD010E94441A80E00F91089507E294
:1035800025EE45EE6BE17CE7F4CF06E221EE40EE5E
:1035900068E17CE7EECF07E225EE44EE69E17CE7E7
:1035A000E8CF06E221EE42EE6CE17CE7E2CF07E2F3
:1035B00025EE46EE6DE17CE7DCCF08E221E045EE4A
:1035C0006EE17CE7D6CF15968C91882319F0109286
:1035D0006402D3CF81E0D1CF1F93CF93DF9387379E
:1035E0002CE7920759F0C1E088379C47E1F4FB01D2
:1035F000C581CC2371F10E942F1B06C0FB01C58140
:10360000CC23B1F00E942C1B0E94C2090E94321BE5
:10361000D82F0E942F1BC82F0E942C1B4D2F6C2FC0
:103620000E94E90AC0E08C2FDF91CF911F9108958D
:103630000E942C1B0E94CE090E94321B182F0E9450
:103640002F1BD82F0E942C1B412F6D2F0E94E90A9F
:10365000EACF0E942F1BEECF80910C01089580913C
:103660000B01089580910A01089590936A02809356
:1036700069020895E0916902F0916A02309729F099
:103680000190F081E02D0995089580E008950E9451
:103690003A1B0895E0916902F0916A02309721F097
:1036A0000280F381E02D09950895E0916902F0917F
:1036B0006A02309739F022E0DC012C930480F58116
:1036C000E02D09950895A3E0B0E0E9E6FBE10C9454
:1036D0008124209167023091680228173907A1F0F0
:1036E0009093680280936702E0916902F0916A0208
:1036F000309751F023E029839B838A830680F781EA
:10370000E02DCE01019609952396E2E00C949D24CC
:10371000A3E0B0E0EEE8FBE10C9481242091650287
:103720003091660228173907A1F0909366028093C2
:103730006502E0916902F0916A02309751F024E04D
:1037400029839B838A830680F781E02DCE01019631
:1037500009952396E2E00C949D249C012E5F3F4F37
:10376000AC01485F5F4F80E02417350709F40895E6
:10377000F90191919F019923B9F38F5FF5CF6623EA
:1037800049F0FC01329608962191261729F0E81796
:10379000F907D1F780E0089581E008959C01FC01CC
:1037A00032969FEF80E04191461751F09F3F19F408
:1037B000411101C0982F8F5F8630A9F79F3F09F410
:1037C0000895290F311D97FD3A95F90162830895F7
:1037D000FC01329608962191261303C0DF01119750
:1037E0001C92E817F907B9F708950E94CE1B0895B7
:1037F0000E94E81B0895029626E0FC0111922A958A
:10380000E9F70895DC01FB0111969C9111978181E4
:10381000981322C012968C911297882319F09281E6
:1038200089131AC013968C911397882319F09381EA
:10383000891312C015968C911597882319F09581DC
:1038400089130AC014969C91992321F081E0248168
:10385000291303C080E001C081E0817008950895BC
:103860000E942F1C0895811106C081E080936B0295
:103870000E94301C089582E0F9CF83E080936B02B0
:103880000E94301C08950E94331C089581E08093AB
:103890006B020E94301C08950E94461C08950895F2
:1038A00008950E94501C0895089508950E944F1C89
:1038B0000895CF930E94541C0E9460030E94551CDF
:1038C000C0E08C2F0E94D602811105C0CF5FCA30A4
:1038D000C1F7CF91089581E0FCCF85B7806885BF9F
:1038E00085B7806885BF08951F921FB61F92112467
:1038F0008F939F93AF93BF9380916C02811113C0FC
:103900008091790290917A02A0917B02B0917C0221
:103910004196A11DB11D8093790290937A02A093E4
:103920007B02B0937C02BF91AF919F918F911F90CA
:103930001FBE1F90189580918102843031F10E9442
:10394000670510926C0288E190E020E40FB6F894CD
:10395000A895809360000FBE2093600083B7817F9D
:10396000846083BF83B7816083BF7894889583B771
:103970008E7F83BF0FB6F894A89580916000886110
:1039800080936000109260000FBE08950E944A0963
:103990000E946C05089582E084BD93E095BD9AEF86
:1039A00097BD80936E0008952FB7F89480917902A7
:1039B00090917A02A0917B02B0917C022FBF089572
:1039C0002FB7F8946091790270917A0280917B020E
:1039D00090917C022FBF08959C014FB7F89480917D
:1039E000790290917A02A0917B02B0917C024FBF44
:1039F000821B930B089578941F921FB61F92112477
:103A00008F939F93AF93BF938091790290917A02A5
:103A1000A0917B02B0917C020196A11DB11D809303
:103A2000790290937A02A0937B02B0937C02BF91BB
:103A3000AF919F918F911F901FBE1F90189587E7A0
:103A400097E7909301088093000888E19AE00FB609
:103A5000F894A895809360000FBE90936000FFCF0C
:103A600088E19AE00FB6F894A895809360000FBEA5
:103A700090936000FFCF8091750208959B01BA0179
:103A8000909181029430E9F48F708093E9009FEF68
:103A90008091E800915085FD06C085ED8A95F1F78B
:103AA00000009111F5CF8091E80085FF0AC050E039
:103AB00040E0C9010E947A1F8091E8008E778093D0
:103AC000E800089543E050E0BC0184E00E943E1D00
:103AD000089546E050E0BC0184E00E943E1D089538
:103AE000CF93DF93EC0148E050E0BC0181E00E94FD
:103AF0003E1D88E0FE01ADE6B2E001900D928A9590
:103B0000E1F7DF91CF910895603231F440E250E067
:103B1000BC0182E00E943E1D0895809180028111C7
:103B200009C00E9459210E94B6218091E200846060
:103B30008093E20008951092800208950E94461C2E
:103B4000089560917D0281E0611101C080E00E94D2
:103B50003D1C08959091810281E0943009F080E04D
:103B600060917D020E94431C089542E061EC81E077
:103B70000E94D52042E261EC84E00E94D52042E21E
:103B800061EC82E00E94D52042E260EC83E00E947A
:103B9000D5209091810281E0943009F080E060911D
:103BA0007D020E94331C089580918302833009F4C2
:103BB00063C030F48130E1F1823009F4A0C008958F
:103BC0008A3009F48CC08B3009F471C0893009F057
:103BD00052C080918202813209F04DC080918602EC
:103BE00090918702009719F0029709F044C08091E4
:103BF000E800877F8093E8008091E80082FF37C06B
:103C00009091F3008091F200029731F48091F100DD
:103C1000813011F0863021F48091F100809375029B
:103C20008091E8008B778093E8000E94092123C0EF
:103C300080918202813AF9F48091E800877F809335
:103C4000E8008091860290918702892B61F468E0F8
:103C50008DE692E070E00E9418208091E8008B775A
:103C60008093E800089560E090E080E0F3CF8091D9
:103C700081028111C1CF089580918202813AD9F7E2
:103C80008091860290918702892BA9F78091E800A4
:103C9000877F8093E8008091E80080FFFCCF8091CF
:103CA00015018093F1008091E8008E77BCCF809160
:103CB0008202813201F78091860290918702892BDE
:103CC000D1F68091E800877F8093E8000E94092167
:103CD00080918402809315010E944A090895809181
:103CE0008202813241F68091E800877F8093E8006C
:103CF0000E94092180918502809376020895809127
:103D00008202813A09F0B7CF8091E800877F8093E3
:103D1000E8008091E80080FFFCCF80917602C1CF5F
:103D200084B7877F84BF0FB6F894A8958091600010
:103D3000886180936000109260000FBE80E890E080
:103D40000FB6F89480936100909361000FBE0E94BB
:103D50004C1C08950E9459210E94B621E2EEF0E029
:103D600080818460808378940E94352408958DE05A
:103D700091E00E94351B089580918102853031F4D5
:103D800080918102853019F00E94C61C08950E941E
:103D90009B1C80917F02882399F30E94591C8823E1
:103DA00079F30E94641F0E944A09EACFA0E2B0E0C2
:103DB000ECEDFEE10C94812480918102843009F5C0
:103DC00083E08093E9008091E80082FF1AC080912F
:103DD000E80090E085FF09C050E040E060E270E05C
:103DE000CE0101960E94C91F91E08091E8008B7777
:103DF0008093E800992329F060E2CE0101960E94A9
:103E00000D16A096E2E00C949D249A014091880240
:103E1000509189020E940D1F0895492F5527433064
:103E2000510521F168F44130510509F443C0423095
:103E3000510509F444C090E080E050E040E026C025
:103E40004132510551F142325105A9F763307105F4
:103E500090F7FB01EE0FFF1FE356FE4F40815181AB
:103E600066567E4FFB01808190E010C0992781301B
:103E7000910581F0009729F00297E9F6ECEDF3E067
:103E800002C0E6E0F4E0849190E0AF01F9015183D3
:103E900040830895ECEEF3E0F6CF6330710558F6F9
:103EA000660F771FFB01ED55FE4F4081518189E080
:103EB00090E0ECCF82E190E045E654E0E7CF8BE57F
:103EC00090E04AE054E0E2CF80E189BD82E189BD23
:103ED00009B400FEFDCF8091D8008F7D8093D8007B
:103EE0008091E00082608093E0008091E00081FD9D
:103EF000FCCF0895AF92BF92CF92DF92FF920F93C3
:103F00001F93CF93DF936C01EB018A010E9428215C
:103F1000F82E811123C00115110539F0F8018081B7
:103F20009181C81BD90BC80ED91EB12CA12C20978A
:103F3000A9F08091E80085FD22C08091E8008E778D
:103F40008093E80001151105A1F0F80180819181AD
:103F5000A80EB91EB182A08285E0F82E8F2DDF91C8
:103F6000CF911F910F91FF90DF90CF90BF90AF90B6
:103F700008950E9428218823D1F2F82EEFCFF60170
:103F800081916F018093F1002197FFEFAF1ABF0A73
:103F9000CECFAF92BF92CF92DF92FF920F931F933B
:103FA000CF93DF936C01EB018A010E942821F82E48
:103FB000811123C00115110539F0F801808191812B
:103FC000C81BD90BC80ED91EB12CA12C2097A9F063
:103FD0008091E80085FD22C08091E8008B77809376
:103FE000E80001151105A1F0F80180819181A80E6A
:103FF000B91EB182A08285E0F82E8F2DDF91CF917E
:104000001F910F91FF90DF90CF90BF90AF900895D8
:104010000E9428218823D1F2F82EEFCF8091F10061
:10402000F60181936F012197FFEFAF1ABF0ACECF40
:10403000FC01809188029091890286179707A0F071
:104040006115710529F49091E8009E779093E8003E
:1040500090E06115710551F4911108C08091E8005C
:1040600082FF34C080E00895BC01F2CF80918102CC
:104070008823C1F18530C1F18091E80083FD30C013
:104080008091E80082FDEACF8091E80080FFE1CFD7
:104090008091F3002091F200382F6115710519F01D
:1040A0002830310558F091E02830310509F090E0D2
:1040B0002091E8002E772093E800CBCF8191809368
:1040C000F100615071092F5F3F4FE7CF809181026E
:1040D000882341F0853041F08091E80083FFBECF16
:1040E00081E0089582E0089583E00895FC018091C5
:1040F00088029091890286179707A0F061157105D3
:1041000029F48091E8008E778093E80090E06115B3
:10411000710551F4911108C08091E80082FF35C00B
:1041200080E00895BC01F2CF809181028823C9F11B
:104130008530C9F18091E80083FD31C08091E800AD
:1041400082FDEACF8091E80080FFE1CF8091F3000B
:104150002091F200382F6115710519F028303105D2
:1041600058F091E02830310509F090E08091E800A6
:104170008E778093E800CBCF84918093F1003196C5
:10418000615071092F5F3F4FE6CF809181028823F4
:1041900041F0853041F08091E80083FFBDCF81E0A0
:1041A000089582E0089583E00895982F973028F0CD
:1041B0008F708093E90081E008959093E900242FA7
:1041C000762F50E0981731F07091EC002091ED00BF
:1041D0005091F00021FD02C09F5FE8CF3091EB00CD
:1041E0003E7F3093EB003091ED003D7F3093ED004A
:1041F0003091EB0031603093EB007093EC00209332
:10420000ED005093F0002091EE0027FDE5CF80E017
:1042100008958091820287FF13C08091E80082FF99
:1042200006C08091E8008B778093E80004C08091FD
:1042300081028111F2CF0895809181028823D9F300
:104240008091E80080FFF8CF8091E8008E77ECCF76
:104250002091E4003091E50095E6A9012091EC0061
:10426000822F817020FF06C08091E80080FF06C089
:1042700080E008952091E80022FD1AC0809181021B
:10428000882389F0853089F08091EB0085FD0FC08F
:104290002091E4003091E50042175307F9F2915064
:1042A000E1F684E0089582E0089583E0089581E0D6
:1042B00008950E94C8210E94D021E0EEF0E08081A4
:1042C00081608083E8EDF0E080818F77808319BC86
:1042D000A7EDB0E08C918E7F8C9380818F7E808360
:1042E0001092800208950F931F93CF93DF930E9443
:1042F000C8210E94D021C8EDD0E088818F778883C3
:1043000088818068888388818F7D888319BC10921A
:10431000810210927D0210927F0210927E0200EEC6
:1043200010E0F80180818B7F8083888181608883A1
:1043300042E060E080E00E94D520E1EEF0E0808184
:104340008E7F8083E2EEF0E08081816080838081D7
:1043500088608083F80180818E7F8083888180617E
:104360008883DF91CF911F910F910895E8EDF0E0E0
:1043700080818F7E8083E7EDF0E0808181608083A3
:1043800084E082BF81E0809380020E9473210895BF
:10439000E8EDF0E080818E7F80831092E200089546
:1043A0001092DA001092E10008951F920F920FB65A
:1043B0000F9211242F933F934F935F936F937F93AB
:1043C0008F939F93AF93BF93EF93FF938091E100FF
:1043D00082FF0BC08091E20082FF07C08091E10064
:1043E0008B7F8093E1000E9434248091DA0080FF6B
:1043F00019C08091D80080FF15C08091DA008E7FAF
:104400008093DA008091D90080FF96C080E189BD59
:1044100082E189BD09B400FEFDCF81E08093810275
:104420000E948D1D8091E10080FF19C08091E20003
:1044300080FF15C08091E2008E7F8093E200809122
:10444000E20080618093E2008091D80080628093D6
:10445000D80019BC85E0809381020E94A11D809143
:10446000E10084FF2BC08091E20084FF27C080E13F
:1044700089BD82E189BD89B5982F917080FFFBCFFE
:104480008091D8008F7D8093D8008091E1008F7E4D
:104490008093E1008091E2008F7E8093E200809122
:1044A000E20081608093E20080917D02882309F41C
:1044B00049C084E0809381020E94AA1D8091E1009E
:1044C00083FF29C08091E20083FF25C08091E10035
:1044D000877F8093E10082E08093810210927D02C9
:1044E0008091E1008E7F8093E1008091E2008E7FD9
:1044F0008093E2008091E20080618093E20042E0DC
:1045000060E080E00E94D5208091F0008860809378
:10451000F0000E949E1DFF91EF91BF91AF919F917E
:104520008F917F916F915F914F913F912F910F905C
:104530000FBE0F901F90189519BC109281020E9417
:104540009B1D70CF8091E30087FD93E090938102E3
:10455000B3CF1F920F920FB60F9211242F933F9358
:104560004F935F936F937F938F939F93AF93BF937B
:10457000CF93DF93EF93FF93D091E900DF708091A9
:10458000EC00C82FC17080FDC0E81092E900809156
:10459000F000877F8093F00078940E94ED221092C3
:1045A000E9008091F00088608093F000CD2BCF70FF
:1045B000C093E900FF91EF91DF91CF91BF91AF914F
:1045C0009F918F917F916F915F914F913F912F912B
:1045D0000F900FBE0F901F901895AAE2B0E0E3EF86
:1045E000F2E20C94802482E892E02091F100FC0138
:1045F0002193CF01F2E08A389F07B9F70E94D41DBA
:104600008091E80083FF1EC1809182029091830215
:104610009A3008F017C1E92FF0E0E259FA4D0C94F6
:104620006424803899F0823809F00CC180918602A8
:104630008F70873008F006C18093E9008091EB000D
:1046400085FB882780F91092E90006C080917E02E0
:1046500090917F02911182609091E800977F9093F2
:10466000E8008093F1001092F1008091E8008E77CD
:10467000E5C0882309F4D3C0823009F0E3C08091FB
:1046800084028111D6C0809186028F702FEF280F8F
:10469000263008F0D7C08093E9002091EB0020FF7E
:1046A000C8C0933031F48091EB0080628093EB00BE
:1046B000C0C09091EB0090619093EB0021E030E05E
:1046C00001C0220F8A95EAF72093EA001092EA00CF
:1046D0008091EB008860EACF8111B4C01091840210
:1046E0001F778091E3008078812B8093E300809195
:1046F000E800877F8093E8000E9409218091E8000C
:1047000080FFFCCF8091E30080688093E30082E02B
:10471000111183E08093810295C08058823008F0A7
:1047200091C080918402909185028C3D23E0920794
:10473000A1F583E08A838AE289834FB7F894DE018A
:10474000139620E03EE051E2E32FF0E05093570053
:10475000E49120FF03C0E295EF703F5FEF708E2F72
:1047600090E0EA30C0F0C7968D939D932F5F24317F
:1047700059F74FBF8091E800877F8093E8006AE295
:1047800070E0CE0101960E9418208091E8008B779E
:104790008093E80057C0C096E7CF60918602709181
:1047A0008702AE014F5F5F4F0E94051FBC01892B3E
:1047B00009F448C09091E800977F9093E8008981C0
:1047C0009A810E947620E1CF8038E1F58091E8005F
:1047D000877F8093E80080917D028093F10045CF30
:1047E000811130C090918402923060F58091E80090
:1047F000877F8093E80090937D020E940921809139
:104800007D02882311F084E005C08091E30087FDDC
:10481000FACF81E0809381020E94B51D13C0809180
:104820008402813079F481E0933009F080E0809354
:104830007F021092E9008091E800877F8093E80072
:104840000E9409218091E80083FF0AC08091E8005E
:10485000877F8093E8008091EB0080628093EB007B
:10486000AA96E3E00C949C240895CF938091810252
:104870008823A1F0C091E900CF709091EC00892FBE
:10488000817090FD80E8C82B1092E9008091E800CB
:1048900083FD0E94ED22CF70C093E900CF9108956F
:1048A00097FB072E16F4009407D077FD09D00E94DD
:1048B000A82407FC05D03EF4909581959F4F08955C
:1048C000709561957F4F0895EE0FFF1F0590F4914D
:1048D000E02D099469279627692778278727782765
:1048E00008952F923F924F925F926F927F928F9294
:1048F0009F92AF92BF92CF92DF92EF92FF920F936F
:104900001F93CF93DF93CDB7DEB7CA1BDB0B0FB678
:10491000F894DEBF0FBECDBF09942A883988488835
:104920005F846E847D848C849B84AA84B984C884CB
:10493000DF80EE80FD800C811B81AA81B981CE0FC2
:10494000D11D0FB6F894DEBF0FBECDBFED010895A7
:10495000AA1BBB1B51E107C0AA1FBB1FA617B707A5
:1049600010F0A61BB70B881F991F5A95A9F78095C1
:104970009095BC01CD010895FB01DC0104C08D912F
:104980000190801921F441505040C8F7881B990BC1
:104990000895FB01DC0102C001900D92415050408E
:1049A000D8F70895F999FECF92BD81BDF89A99275D
:1049B00080B50895A8E1B0E042E050E00C941625DF
:1049C000DC01A40FB51F4150504048F0CB01840FCB
:1049D000951F2E910E94F12441505040D0F7089528
:1049E000262FF999FECF92BD81BDF89A019700B4A8
:1049F000021639F01FBA20BD0FB6F894FA9AF99A48
:104A00000FBE08950396272F0E94F1240E94F024E0
:104A1000252F0E94F124242F0C94F1240196272F96
:104A20000E94F1240C94F024DC01CB01FC01F999E3
:104A3000FECF06C0F2BDE1BDF89A319600B40D92EA
:104A400041505040B8F70895F894FFCF4D074D07F7
:104A50009D079D0702081E087C077C0723088A081B
:104A60009908990822162E166416761681168C1649
:104A70008F168F168F163416341694169816A016A5
:104A8000AD16BA16BD16C016CD163217A6173A17B0
:104A9000041708173E170C1742174E1718179F17C1
:104AA0001C175217201756177E1724175A178517E9
:104AB0002A17601768171017461714174A172E176A
:104AC000641774178E179D17FE163617AD17C51A83
:104AD000CB1AB41ABF1AD11AD71ADD1A11233923E7
:104AE0002224392322246C238D232224E423F0233F
:104AF0003202280850011E0A14010302013B1D70F6
:104B00001D691D621D01F4F5F6F7313332C691902F
:104B10009466970000000000E200E900EA00B5009A
:104B2000B600B700CD008301CC008A019201940148
:104B30002102230224022502260227022A02B300B0
:104B4000B4006F0070009F01CB019F02A002818220
:104B500083E200E900EA00B500B600B700CD0083AB
:104B600001CC008A01920194012102230224022532
:104B700002260227022A02B300B4006F0070009FD1
:104B800001CB019F02A00281828344227B1405771E
:0A4B90000499041C043504550400C8
:00000001FF
