:100000000C948B030C94A8030C94A8030C94A803E1
:100010000C94A8030C94A8030C94A8030C94A803B4
:100020000C94A8030C94A8030C94072A0C94C329DD
:100030000C94042B0C94A8030C94A8030C94A80310
:100040000C94A8030C94A8030C94A8030C94A80384
:100050000C94A8030C94E02A0C94A8030C94A80315
:100060000C94A8030C94A8030C94A8030C94A80364
:100070000C94A8030C94A8030C94A8030C94A80354
:100080000C94A8030C94A8030C94A8030C94A80344
:100090000C94A8030C94A8030C94A8030C94A80334
:1000A0000C94A8030C94A8030C94A803050109025E
:1000B000A10185020901A1000509190129081500FE
:1000C0002501950875018102050109300931158165
:1000D000257F95027508810609381581257F9501D0
:1000E00075088106050C0A38021581257F95017572
:1000F000088106C0C005010980A101850319012AF4
:10010000B700150126B700950175108100C0050CD8
:100110000901A101850419012AA002150126A002E6
:10012000950175108100C00660FF0961A101096297
:10013000150026FF00952075088102096315002629
:10014000FF00952075089102C005010906A101056F
:100150000719E029E7150025019508750181029529
:1001600001750881010507190029FF150026FF0008
:100170009506750881000508190129059505750181
:100180009102950175039101C0FD377A585A00001C
:1001900004E6D6B4460200210116000000742FE5E3
:1001A000A3E0033D01075D003D8889C65436C317AF
:1001B0004FE4D60EDFFB835C0E534C006FA917454E
:1001C000788B4D5B83BE4FDDF9299995469EEF45AF
:1001D000FDA253B539FECF34993C387E2759694585
:1001E00015284FA35683305992FADB58049E65F6C2
:1001F000EF5C7BF0D070B223E4BE3128178BC7F4DC
:100200001E47DDB71C47890ACF2802AB80961436FB
:1002100077FF9597F0A9AB0C0BCCA6F9763CD2E70B
:1002200082846ED6725490199966B66A643709D57D
:10023000F229E4128FFFC13BFDAA58177D1FB61C9F
:10024000F672993A968A3B0690FC596EF464A8BB04
:1002500034A34F10276DAC1A54249535B5022A27C4
:10026000DEB9ED1A365E2B5161B886B49D22392471
:1002700034A05E5764AF67F7FA42067C2DC6E3F6FA
:100280005FBE1408416ABF08FF9F07CD5FA22F72AF
:10029000A86B4C2A8FC38C360306FD0A51CE57B685
:1002A000221E0B90B7A443CFAD45C46F0563B500C4
:1002B00000C65CDCD15DFA08310001A302BE060075
:1002C00000E6A13DDFB1C467FB0200000000045955
:1002D0005A010001009E03DA0EBF0E000002000268
:1002E000009A03DA0EBF0E0000030001009F03DA3C
:1002F0000EBF0E0000040002008403DA0EBF0E04DD
:100300000705000100A003DA0EBF0E000006000280
:10031000008603DA0EBF0E0000070002009C03DA1D
:100320000EBF0E000008000100A103DA0EBF0E0090
:1003300000090002008803DA0EBF0EDF060A000281
:10034000008A03DA0EBF0EDF060B0002008C03DA10
:100350000EBF0EDF060C0002008E03DA0EBF0EDFAA
:10036000060D0002009003DA0EBF0EDF060E00023B
:10037000009203DA0EBF0EDF060F0002009403DACC
:100380000EBF0EDF06100002009603DA0EBF0EDF6E
:1003900006110002009803DA0EBF0EDF06120002FB
:1003A00000A203DA0EBF0E000013000200A403DA5D
:1003B0000EBF0E000014000100A603DA0EBF0E00EF
:1003C0000015000000000065065514000029001EFD
:1003D000001F00200021002200240025002B001413
:1003E000001A000800150023001C001800E000049B
:1003F0000016000700090017000B000D00E1001DAA
:10040000001B00060019000A0011001000E000E3C4
:1004100000E20091002C0005002C000000260027BF
:10042000002D004C00570056002D0200000C001259
:100430000013002A0024002500260000000E000FF3
:10044000003300280021002200230000003600377E
:1004500000380052001E001F00200000009000E63F
:1004600000500051004F002700370000000100013C
:100470000001000100010001000100010001000174
:100480000001000100010001000100010001000164
:100490000001000100010001000100010001000154
:1004A0000001000100010001000100010001000144
:1004B0000001000100010001000100000001000135
:1004C0000001000100010001000100000001000125
:1004D0000001000100010001000100000001000115
:1004E0000001000100010001000100000001000105
:1004F00000010001000100010001000000010001F5
:1005000000010001000100010001000000010001E4
:1005100000010001000100010001000100010001D3
:1005200000010001000100010001000100010001C3
:1005300000010001000100010001000100010001B3
:1005400000010001000100010001000100010001A3
:100550000001000100010001000100000001000194
:100560000001000100010001000100000001000184
:100570000001000100010001000100000001000174
:100580000001000100010001000100000001000164
:100590000001000100010001000100000001000154
:1005A0000001000100010001000100000009025BE0
:1005B00000030100A0320904000001030101000949
:1005C00021110100012240000705810308000109F3
:1005D0000401000203000000092111010001222290
:1005E000000705820320000107050303200001091D
:1005F0000402000103000000092111010001227B17
:100600000007058403200001120100020000000819
:1006100016F574960100010203011C0376006900BF
:1006200061006C003A00660036003400630032005E
:1006300062003300630000000E033900360037000B
:10064000340047004C00000018036F007400610084
:10065000680069006E006F00730061006D00650046
:100660000000040309040000000000000000000076
:10067000000000000000000000000000000000007A
:10068000000000000000000000007E0F00D4FFFF0B
:10069000FFC70000007800000000000000002A2BC7
:1006A0002800000000000000000000000000000022
:1006B0000029000000002C1E34202122243426278B
:1006C000252E362D3738271E1F20212223242526AC
:1006D0003333362E37381F0405060708090A0B0C7A
:1006E0000D0E0F101112131415161718191A1B1CC2
:1006F0001D2F3130232D350405060708090A0B0C80
:100700000D0E0F101112131415161718191A1B1CA1
:100710001D2F3130354C11241FBECFEFDAE0DEBF84
:10072000CDBF11E0A0E0B1E0EEE2F9E602C0059035
:100730000D92A837B107D9F724E0A8E7B1E001C0CE
:100740001D92A33EB207E1F70E942B2B0C9441347B
:100750000C940000482F2091E1049091980459E0F6
:10076000291302C080E0089530E0529FF001539FAA
:10077000F00D1124E756FB4F8181681306C080817C
:10078000481303C085818111EECF2F5F3F4F277043
:10079000E7CFE8EDF0E080818E7F80831092E20069
:1007A0001092DA001092E100A0EEB0E08C9181602E
:1007B0008C9380818F77808319BCA7EDB0E08C91FA
:1007C0008E7F8C9380818F7E808310928104089528
:1007D0002091E4003091E50095E6A9012091EC001C
:1007E000822F817020FF06C08091E80080FF06C044
:1007F00080E008952091E80022FD1AC080918E04C7
:10080000882389F0853089F08091EB0085FD0FC049
:100810002091E4003091E50042175307F9F291501E
:10082000E1F684E0089582E0089583E0089581E090
:1008300008958091900487FF13C08091E80082FFA3
:1008400006C08091E8008B778093E80004C0809117
:100850008E048111F2CF089580918E048823D9F3FC
:100860008091E80080FFF8CF8091E8008E77ECCF90
:10087000982F9093E900242F762F50E0891731F0BC
:100880007091EC002091ED005091F00021FD07C027
:100890009F5F973071F78093E90081E00895309170
:1008A000EB003E7F3093EB003091ED003D7F3093C5
:1008B000ED003091EB0031603093EB007093EC0071
:1008C0002093ED005093F0002091EE0027FDE0CF43
:1008D00080E00895B0E0A0E0E0E7F4E00C94843319
:1008E000C8EDD0E088818F7E8883E7EDF0E08081DD
:1008F0008160808384E082BF81E08093810488816D
:100900008E7F888302EE10E0F80110821092DA00E8
:1009100081EEC82ED12CF601108288818F778883D2
:1009200088818068888388818F7D888319BC109234
:100930008E0410928F0410928D0410928C0490EE0D
:10094000E92EF12CF70180818B7F80838881816083
:10095000888342E060E080E00E943804F6018081F4
:100960008E7F8083F80180818160808380818860B0
:100970008083F70180818E7F808388818061888376
:10098000CDB7DEB7E8E00C94A033FC01809196046B
:100990009091970486179707A0F06115710529F4C7
:1009A0009091E8009E779093E80090E061157105C2
:1009B00051F4911108C08091E80082FF34C080E0BA
:1009C0000895BC01F2CF80918E048823C1F1853057
:1009D000C1F18091E80083FD30C08091E80082FD84
:1009E000EACF8091E80080FFE1CF8091F300209171
:1009F000F200382F6115710519F02830310558F0D3
:100A000091E02830310509F090E02091E8002E7740
:100A10002093E800CBCF81918093F1006150710960
:100A20002F5F3F4FE7CF80918E04882341F08530C0
:100A300041F08091E80083FFBECF81E0089582E01D
:100A4000089583E0089580918304089587E797E7E8
:100A5000909301088093000888E19AE00FB6F8941B
:100A6000A895809360000FBE90936000FFCF9C011B
:100A70004FB7F89480917D0490917E04A0917F04FB
:100A8000B09180044FBF821B930B08952FB7F89449
:100A900060917D0470917E0480917F049091800428
:100AA0002FBF08952FB7F89480917D0490917E0414
:100AB000A0917F04B09180042FBF0895A3E0B0E01F
:100AC000E4E6F5E00C948A3320917A0430917B04BB
:100AD00028173907A1F090937B0480937A04E09162
:100AE0007804F0917904309751F024E029839B83B6
:100AF0008A830680F781E02DCE0101960995239621
:100B0000E2E00C94A633A3E0B0E0E9E8F5E00C9451
:100B10008A33209176043091770428173907A1F0A1
:100B20009093770480937604E0917804F0917904AF
:100B3000309751F023E029839B838A830680F781D5
:100B4000E02DCE01019609952396E2E00C94A633A0
:100B5000E0917804F0917904309729F00190F081C8
:100B6000E02D0995089580E00895CF93DF93EC017F
:100B70004091660450916704609168047091690423
:100B80002FB7F89480917D0490917E04A0917F040A
:100B9000B09180042FBF841B950BA60BB70B843F2D
:100BA0009140A105B10518F5809166049091670404
:100BB000A0916804B09169048093620490936304E7
:100BC000A0936404B093650484EF91E0A0E0B0E0EA
:100BD00080935E0490935F04A0936004B0936104DB
:100BE000D0936E04C0936D04DF91CF9108950E945D
:100BF0004605609362047093630480936404909349
:100C0000650482E390E0A0E0B0E0E2CFFC018481E3
:100C1000862351F492819923B9F06923808583FF5B
:100C200005C081E061110FC080E00895892F8F70A9
:100C300092959F70982B862F8F7062956F70682B9E
:100C400081E09613F1CF089581E0FDCFDC01609142
:100C5000580480915904962F891301C00895292FB3
:100C600030E0F901EE0FFF1FE05BFB4F4081518147
:100C70004A175B07A1F487E08A9FA0018B9F500D64
:100C8000112441555C4F81E0FA0184839613E6CF2D
:100C90002F5F3F4F237033272093580408952F5F11
:100CA0003F4F922F9370D8CF1092AD031092AC03A8
:100CB000EFEAF3E08581811102C014821682379633
:100CC00083E0E73EF807B1F70895B0E0A0E0EBE677
:100CD000F6E00C9482338FEF9FEF4430510508F417
:100CE00069C04091610341FB882780F990E0880F3B
:100CF000991F42FB002700F910E0000F111F000FA1
:100D0000111F802B912B40FBCC24C0F8D12C8C29B7
:100D10009D2943FB222720F9C22FE0E0DE2F53E07C
:100D2000CC0FDD1F5A95E1F78C2B9D2B44FBAA2796
:100D3000A0F9B0E0E4E0AA0FBB1FEA95E1F78A2B27
:100D40009B2B45FBEE27E0F9F0E0A5E0EE0FFF1F3F
:100D5000AA95E1F78E2B9F2B46FB222720F930E046
:100D6000B6E0220F331FBA95E1F7822B932B47FB96
:100D7000222720F930E03695322F22273795279504
:100D8000822B932B20916203322F3170F32EE82EA9
:100D9000F92A26952170B22EBB0CA82EBF28C501BA
:100DA000BB0CAA0BBB0BFB0180839183A283B38393
:100DB00090E080E0CDB7DEB7EAE00C949E33E4E843
:100DC000F3E0848195812AE030E0B9010E94453347
:100DD00060931001868180930F01828580930E01BC
:100DE000848580930D0186859785B9010E944533DE
:100DF00060930C01808980930B01828980930A01A2
:100E000084898093090108958091840390918503DA
:100E100090931201809311010895E6E1F2E090E0D1
:100E200080E064E079E24BE259E22AE738E2778336
:100E30006683518740873387228795878487019609
:100E40003E968830910599F7089581152CE7920711
:100E500041F420915C0430915D04232B11F490E067
:100E600080E008950E9452059C019091FE018091BE
:100E7000FF01982B21F03093FB012093FA01909110
:100E8000000280910102982B21F03093F901209308
:100E9000F801E0917804F0917904309749F082E00C
:100EA0008093FC010480F581E02D8CEF91E00995A1
:100EB00008958091F70180FF0CC060910A0170E0F5
:100EC00075956795759567956115710549F1862F3B
:100ED000089581FF06C060910A0170E075956795DD
:100EE000F3CF60910A0182FD0BC09091F601992326
:100EF000A1F06091090180910A01961738F0682FDE
:100F000070E06038710500F38FE70895899FC00194
:100F1000112470E00E945933F4CF61E070E0D7CF24
:100F200081E008958091F70160918C0370918D03A9
:100F300080FF16C020910E01269FC001279F900DB3
:100F40001124BC0176956795769567956038710593
:100F500008F043C06115710509F441C0862F08955A
:100F600081FF0BC020910E01269FC001279F900D8D
:100F70001124BC0176956795E9CF82FF09C0809165
:100F80000E019B01829FB001839F700D1124DECF63
:100F90002091F5012223D1F290910D0180910E0153
:100FA000482F50E0291748F0CB01849FB001859F5E
:100FB000700D949F700D1124C9CF289F90011124AA
:100FC000269FA001279F500D369F500D1124692F99
:100FD00070E0CA010E944533B9CF8FE7089581E0E0
:100FE000089580E008959091610392FF06C0282F34
:100FF00028712830F9F4877F846093FF06C0282F7A
:1010000028712831F1F4877E84612091620320FFEA
:1010100006C0382F38713830D9F4877F816021FFBE
:1010200006C0282F28712831D1F4877E816194FD74
:10103000877E0895282F24712430F9F68B7F8860ED
:10104000DCCF282F2471243101F78B7E8861DDCF1E
:10105000382F3171313019F78E7F8860E0CF282F1B
:101060002171213121F78E7E8861E1CF823891058F
:10107000B9F1B0F48133910509F47DC048F48932A7
:10108000910509F46DC08A32910509F47BC0089579
:101090008533910509F45FC08933910509F10895FD
:1010A000833E9105D9F138F4803E910529F1823EC5
:1010B000910579F10895863E9105D9F1873E910514
:1010C00009F43EC0843E910541F52091620321FF61
:1010D00024C08091610384FD19C087EE90E00895DB
:1010E00020916103237009F05AC02091620323FF0D
:1010F00014C089E290E008952091610320FD38C07A
:101100003091620330FF09C024FF43C090E080E0CB
:1011100008952091610322FDF7CF08952091610386
:1011200022FD3AC03091620330FD39C024FFF5CF73
:10113000EDCF2091610323FFF0CF24FDE7CFCDCF8A
:101140002091610323FD2EC03091620331FFEECF69
:1011500084EE90E008952091610325FFDECFC9CF92
:101160002091610325FD21C02091620323FFD5CF8B
:1011700089E390E0D2CF2091610326FFCECF8AE2AF
:1011800090E008952091610326FFC7CF81E390E0AE
:10119000089583EE90E0089582EE90E0089580EE49
:1011A00090E0089586EE90E0089585E390E008953C
:1011B0001F93CF93DF930E943608EC01C11580E5A1
:1011C000D807F0F5C11580E4D80708F09CC0C03EF0
:1011D000D10520F5CD3CD10508F082C0C83AD10533
:1011E00078F4C53AD10508F073C0C130D10519F1C2
:1011F000209709F1C430D105F0F4D0E0C0E01BC065
:10120000C33CD105D0F7C85AD0E0CC0FDD1FCF5D6D
:10121000DE4F0990D881C02DD4640DC0C11580E285
:10122000D80708F0D1C0C11581E0D80708F05AC02E
:10123000C83ED10510F7CE01DF91CF911F910895DF
:10124000C03682E5D80718F5C03482E5D80708F023
:101250006BC0C03282E5D80708F05FC0C11582E5D7
:10126000D80708F497C02C2F2695269580E2289F52
:10127000900111248C2F8370C1E0D0E002C0CC0F0C
:10128000DD1F8A95E2F7C22BD32BDD68D4CFC03A9D
:1012900082E5D80760F4C03882E5D80708F459C061
:1012A000CF71D0E0DC2FCC27C46FD06AC4CFC03C54
:1012B00082E5D80708F462C0C03E82E5D80708F08E
:1012C0009CCFDC2FCC27CC27DF71C06FD06AB3CF87
:1012D000C55AD0E0C25EDE4FC881D0E0D064ABCF4B
:1012E000D065A9CF8D2F0E94F307182FCE01992723
:1012F0000E943608C12FD0E0DC2FCC27CC27DF712D
:10130000C82BD92B98CFCE0199270E943608CC271D
:10131000DF70C82BD92BD06A8ECFCF71D0E0DC2FF5
:10132000CC27C16FD06A87CF2C2F269526952770A2
:1013300080E2289F900111248C2F8370C1E0D0E0BF
:1013400002C0CC0FDD1F8A95E2F7C22BD32BDC68DD
:1013500072CF2C2F26952695277080E2289F90012A
:1013600011248C2F8370C1E0D0E002C0CC0FDD1FB0
:101370008A95E2F7C22BD32BDA685DCF8C2F8F7161
:101380000E94F307C82FD0E0DC2FCC27CC27DF71D9
:10139000D06251CF8C2F8F710E94F30755E0D69504
:1013A000C7955A95E1F7CF70D0E0DC2FCC27282FD6
:1013B00030E084FF05C044E0220F331F4A95E1F777
:1013C000C22BD32BD06937CF8D2F8F710E94F3079B
:1013D000182FCE0199270E943608C12FD0E0DC2FAC
:1013E000CC27CC27DF71C82BD92BD2CF8091BF015E
:1013F000882331F01092BF011092BE011092BD01FE
:101400000895CF93C82F8091620382FF0CC0809112
:10141000BF018C1741F00E9452059093BE0180934A
:10142000BD01C093BF01CF9108959091BF01292FB5
:10143000282361F0809589238093BF01882339F0A8
:101440000E9452059093BE018093BD01089590E0E3
:1014500080E0F8CF80959091E20498239093E20485
:101460000895809590916303982390936303089562
:1014700090916303892B8093630308951092B401C4
:101480001092B3011092B201089580918603909159
:101490008703892B89F00E9452052091BD0130916C
:1014A000BE01AC01421B530B81E0209186033091B9
:1014B00087034217530708F480E0817008959091E4
:1014C000B101292F282321F0809589238093B10130
:1014D0000895ECE7F1E09191891303C0DF011197C2
:1014E0001C9291E0E238F907B1F70895ACE7B1E05A
:1014F000EFEF90E02D91821751F0EF3F19F4211199
:1015000001C0E92F9F5F9630A9F7EF3F09F40895D6
:101510000E2E000CFF0BE658FE4F8283089580913B
:10152000E10490919804981301C008958F5F87702B
:10153000FACF9A3080F5883070F548E0949F90019A
:101540001124820F932F911D682F677023E09695C9
:1015500087952A95E1F7FC01EE0FFF1FE80FF91FB1
:10156000E657FE4F50E040E080E0219130E0062E4B
:1015700002C0369527950A94E2F721703327042E8E
:1015800001C0220F0A94EAF7822B4F5F5F4F43306E
:10159000510559F7089580E008959A3098F58830FC
:1015A00088F548E0949F90011124820F932F911D9C
:1015B000282F277041E001C0440F2A95EAF723E065
:1015C000969587952A95E1F7FC01EE0FFF1FE80F2E
:1015D000F91FE657FE4F90E080E070E05191DF0187
:1015E00011979B01082E02C0369527950A94E2F7C1
:1015F000217021952527242325272C9301968330BC
:10160000910561F708958093CD0108959091CD01E2
:1016100021E030E0F90101C0EE0F8A95EAF7D90127
:1016200002C0AA0FBB1F6A95E2F7EA2B01C0220F86
:101630004A95EAF7892F8E23E81305C0292B822FBC
:101640000E94030B089520952923F9CF21E030E073
:1016500001C0220F8A95EAF720958091CD0182235F
:101660000E94030B08959091B40180958923809383
:10167000B401282F277069F4891759F090916203FB
:1016800092FF07C08695869586950E94260B0E943C
:101690003E0A089521E030E001C0220F8A95EAF762
:1016A0008091CD01822B0E94030B089590916203DB
:1016B00092FF10C098E0899F90011124622B6093E3
:1016C000B4010E944A0B0E9452059093B30180938B
:1016D000B20108950E944A0B08958093CC010895A9
:1016E00092959F70963091F058F4925F9F7092306F
:1016F00058F4803F19F030F4883E30F481E00895CA
:101700009A5FF4CF843FD1F380E00895883EB0F330
:10171000813FD1F7F3CF662309F45DC08D3C41F4DE
:101720000E94920781958093FF010E9432070895DD
:101730008E3C19F40E949207F6CF8F3C31F40E9440
:10174000920781958093FE01F0CF803D19F40E94AD
:101750009207F8CF893D29F40E945907809300022F
:10176000E4CF8A3D21F40E9459078195F7CF8B3D44
:1017700031F40E945907819580930102D6CF8C3DA8
:1017800019F40E945907F8CF9FE2980F983070F42F
:10179000815D990B21E030E001C0220F8A95EAF7C4
:1017A0008091FD01822B8093FD01BFCF8D3D31F4EF
:1017B0008091F70181608093F701B7CF8E3D21F4CE
:1017C0008091F7018260F7CF8F3D09F0AECF809115
:1017D000F7018460F0CF4091FE018D3C59F4809177
:1017E000FF0187FF0DC01092FF0141110BC0109245
:1017F000F50108C08E3C81F48091FF0118169CF31E
:10180000442381F08091000290910102892B09F01C
:101810008CCF1092F60189CF8F3C49F447FFF0CF6F
:101820001092FE018091FF018111ECCFE0CF803D4D
:1018300019F41416ACF3E4CF90910002893D29F419
:101840001916F4F610920002DBCF8A3D19F497FFC7
:10185000D7CFF8CF909101028B3D29F497FFD0CFDD
:1018600010920102CDCF8C3D19F41916CCF3C8CFDC
:101870009FE2980F983090F4815D990B21E030E061
:10188000B90102C0660F771F8A95E2F7CB018095F8
:101890009091FD0189238093FD01B2CF8D3D31F4FC
:1018A0008091F7018E7F8093F701AACF8E3D21F4BE
:1018B0008091F7018D7FF7CF8F3D09F0A1CF809107
:1018C000F7018B7FF0CF9C013A9521153F4150F5F0
:1018D000FC01EE27F170BC0166277270AC01442751
:1018E00054709C012227387094FF0EC080E1EF2BCA
:1018F00009F480E0672B09F08062452B09F08064D1
:10190000232B89F08068089581E0EF2B09F480E0B3
:10191000672B09F08260452B09F08460232B19F0B6
:101920008860089580E008950F931F93CF93DF930D
:101930008B01EA0190918E04943061F58093E90067
:101940008FEF9091E800815095FD06C095ED9A9536
:10195000F1F700008111F5CF8091E80085FF1AC0F2
:101960000E94E803811111C08091E80085FD06C046
:101970008091E8008E778093E800F2CFF8018191A2
:101980008F018093F100219779F78091E8008E779D
:101990008093E800DF91CF911F910F91089543E06C
:1019A00050E0BC0184E00E94940C089546E050E0B1
:1019B000BC0184E00E94940C0895CF93DF93EC0166
:1019C00048E050E0BC0181E00E94940C88E0FE01F8
:1019D000A4E8B4E001900D928A95E1F7DF91CF91F0
:1019E0000895019708F40895EFE9FFE03197F1F7C2
:1019F00000C00000F6CFCF93DF93CDE1D3E060E0ED
:101A0000CE010E9405342196C11584E0D807B9F7AC
:101A1000DF91CF9108951F93CF93DF93122F8330DF
:101A2000E0F46A30D0F44830C0F490E1699FE001FE
:101A3000112450E0440F551FC40FD51F90EA899F11
:101A4000C00DD11D1124632FCE0189960E9405344B
:101A5000612FCE018A960E940534DF91CF911F91AC
:101A60000895CF93C82F6FEF811161E585E290E073
:101A70000E9405346FEFC11167E586E290E00E9495
:101A800005346FEFC11169E587E290E00E940534EB
:101A9000CF9108959B01883070F49AE0899FB0013E
:101AA0001124635D7D4F4AE050E0C9010E94D733A5
:101AB00090E080E008958FEF9FEF0895AAE0B0E0F6
:101AC000E4E6FDE00C948A339C0137552F3F310545
:101AD00009F068F4BE016F5F7F4F0E944A0D892BA9
:101AE00031F489859A852A96E2E00C94A633809198
:101AF0009C0390919D03F7CF0F931F93CF93DF9398
:101B0000833030F56A3020F5483010F520E1629FCF
:101B10008001112450E0440F551F040F151F30EAB7
:101B2000839F000D111D1124C80189960E94E7337F
:101B3000C82FD0E0DC2FCC27C8018A960E94E7335B
:101B40009E01282BC901DF91CF911F910F9108951C
:101B500090E080E0F8CF462F2091F3013091F4011E
:101B6000232B99F4703F39F4603F79F4809102029D
:101B70009091030208957A3040F4683030F4833055
:101B800020F4672F0E947C0D089590E080E0089576
:101B9000CF92DF92FF920F931F93CF93DF936C014D
:101BA0000091CD018091CC01082BC2E0D0E010E083
:101BB000FC2EC8010C2E02C0959587950A94E2F779
:101BC00080FD0CC02197A0F7F12C8F2DDF91CF91D4
:101BD0001F910F91FF90DF90CF900895B6018C2F49
:101BE0000E94AB0D0E94D808019761F3EECFCF930E
:101BF000DF93EC010E94C80DBE010E94AB0D0E9454
:101C0000D808DF91CF910895FC018481882371F079
:101C100087819085009729F00E94D8080E94700B58
:101C20000895808191810E94F70DF8CF80E008959A
:101C3000A6E0B0E0EEE1FEE00C94893349835A83DC
:101C400049815A819923A1F0222391F0CA010E946F
:101C5000C80D182F682F89819A810E94CD0A698149
:101C60007A81812F0E94AB0D2696E3E00C94A53378
:101C7000CA010E94990A182FF2CFFC01262F8781F2
:101C80009085009741F44081518162817381848104
:101C900095810E94180E08950F931F93CF93DF93A1
:101CA00004E813E0C9E0D2E0CE010E94E733F80176
:101CB00061918F01681719F0CE010E9405342196B9
:101CC000CD32F2E0DF0781F7DF91CF911F910F91C5
:101CD00008950F931F93CF93DF9304E813E0C9E0B7
:101CE000D2E0CE010E94E733F80181938F01219663
:101CF000CD32F2E0DF07A9F7CBEDD2E0FE0185910E
:101D00009491009711F0FC0109952C96F3E0C73DE2
:101D1000DF07A1F7DF91CF911F910F91089585E221
:101D200090E00E94E733813589F486E290E00E94DA
:101D3000E733873559F487E290E00E94E73391E07A
:101D4000893509F090E0892F8170089580E0FCCFFB
:101D50009091620392FB222720F9281779F080FBEB
:101D600092F990936203609161037091620384E041
:101D700090E00E94233482E00E94330B0895DA0140
:101D80009C012E5F3F4FF90145915491F901259136
:101D90003491A217B30758F0FC01349685919491C1
:101DA0000E94C7330E944C0E90E080E008958FEFB0
:101DB0009FEF0895DB01FC01329625913491421783
:101DC000530758F0FC01349665917491A901CD0137
:101DD0000E94C73390E080E008958FEF9FEF089551
:101DE000AAE0B0E0E6EFFEE00C94803309EE12E0EA
:101DF00087EDC82E82E0D82E9DECE92E92E0F92ED8
:101E000027E0922E36EDA32E32E0B32E8824839461
:101E1000D6010D931D936D014AE050E0B701CE014C
:101E200001960E94D733F8013896DF01892D1D9263
:101E30008A95E9F789819A81D80111969C938E93AE
:101E40008F8112968C9312978D8113968C93139792
:101E5000888514968C931497898515968C9315977D
:101E60008B819C8117969C938E93169718961C9243
:101E700018978A8587FF3CC01E961C921E921D975C
:101E800080FF03C0D80118968C9281FF04C0F8012E
:101E900090859260908782FF07C0D80118969C9128
:101EA0001897946018969C9383FF04C0F80190855E
:101EB0009860908784FF07C0D80118969C91189766
:101EC000906118969C9385FF04C0F801808580621C
:101ED0008087015F1F4FFAE0EF0EF11C8DE1E816DD
:101EE00083E0F80609F094CF2A96ECE00C949C333A
:101EF000F801B686A586C4CFAAE0B0E0E2E8FFE02C
:101F00000C948433E6E8F2E080E5DF011D928A95C7
:101F1000E9F7EFEAF3E088E3DF011D928A95E9F73C
:101F200086E8C82E82E0D82E7F010DE712E0F70187
:101F3000D182C0824AE050E0B801CE0101960E94F1
:101F4000D73388E0FE013196D60101900D928A9533
:101F5000E1F789859A85D70113969C938E93129702
:101F6000BAE0CB0ED11CE7E0EE0EF11C065F1F4F6E
:101F70000D3CF2E01F07D9F62A96E8E00C94A03356
:101F8000809163039091E204892B80937A01809180
:101F9000BF01882309F18091860390918703892BE3
:101FA00029F00E94450A81110E94F60980917A0168
:101FB0009091BF01892B80937A0120E08CE791E01A
:101FC000FC013191CF0131112F5FF1E082389F0781
:101FD000B9F721110E94F60980916A0480959091C9
:101FE0007A01892390916B04892B80937A0148E0D0
:101FF00050E065EB71E08AE791E00E94BA33892BEB
:10200000A9F088E0EAE7F1E0A5EBB1E001900D92DC
:102010008A95E1F7E0917804F0917904309731F0F6
:102020000280F381E02D8AE791E009950895CF932E
:10203000DF93EC01EA85FB85309719F06C857D858F
:1020400009958B810E942A0A8C810E94310A0E9484
:10205000C00F86E0FE0111928A95E9F7DF91CF91DA
:102060000895CF93DF93EC018D8181FD15C08260CF
:102070008D838091E2049B81892B8093E2048C8183
:102080000E94380A0E94C00FE885F985309721F038
:102090006C857D85CE0109951092750410927404AB
:1020A0008D8180FD03C0CE010E941710DF91CF917A
:1020B000089580911301877F8093130182E00E942D
:1020C0002A0A8091130184FF06C08F7E809313013A
:1020D00082E00E94380A8091130185FF06C08F7D3F
:1020E0008093130180E20E94380A0E94C00F089575
:1020F000CF9310926303C6E0ECE7F1E0DF018C2F91
:102100001D928A95E9F790E080E00E94830590E0B7
:1021100080E00E945E051092E2040E94C00FECEF86
:10212000F1E0DF011D92CA95E9F71092F5011092D6
:10213000F6011092F7010E943207CF910895AAE2AA
:10214000B0E0E5EAF0E10C94893380E994E0209175
:10215000F100DC012D93CD01B4E088399B07B9F77C
:1021600080919104833009F472C0B8F4813009F48D
:1021700049C0823009F4B3C08091E80083FF96C261
:1021800080919004909191049A3008F08FC2E92FC9
:10219000F0E0ED5BFB4C0C946D338A3009F48EC09B
:1021A0008B3009F471C0893039F780919004813205
:1021B00019F78091940490919504009711F002977B
:1021C000D9F68091E800877F8093E8008091E8004D
:1021D00082FF38C09091F3008091F200029731F4B1
:1021E0008091F100813011F0863021F48091F1006E
:1021F000809383048091E8008B778093E8000E94AD
:102200001904BACF80919004813A09F0B5CF80913A
:10221000E800877F8093E800809194049091950472
:10222000892B61F468E084E894E070E00E94C504C2
:102230008091E8008B778093E8009ECF60E090E08B
:1022400080E0F3CF80918E048111C0CF95CF809133
:102250009004813A09F090CF809194049091950474
:10226000892B09F089CF8091E800877F8093E8006F
:102270008091E80080FFFCCF809115018093F100F0
:102280008091E8008E77B9CF80919004813209F077
:1022900073CF8091940490919504892B09F06CCFB1
:1022A0008091E800877F8093E8000E941904809164
:1022B0009204809315010E9478105ECF8091900463
:1022C000813209F059CF8091E800877F8093E80040
:1022D0000E94190480919304809382044DCF8091D1
:1022E0009004813A09F048CF8091E800877F80937D
:1022F000E8008091E80080FFFCCF80918204BECF8F
:10230000803899F0823809F0D1C1809194048F709F
:10231000873008F0CBC18093E9008091EB0085FB0A
:10232000882780F91092E90006C080918C04909172
:102330008D04911182609091E800977F9093E8005E
:102340008093F1001092F1008091E8008E77AAC18D
:10235000882309F498C1823009F0A8C180919204C1
:1023600081119BC1809194048F702FEF280F26302C
:1023700008F09CC18093E9002091EB0020FF8DC103
:10238000933031F48091EB0080628093EB0085C143
:102390009091EB0090619093EB0021E030E001C060
:1023A000220F8A95EAF72093EA001092EA008091C2
:1023B000EB008860EACF811179C1109192041F77F8
:1023C0008091E3008078812B8093E3008091E80086
:1023D000877F8093E8000E9419048091E80080FFC5
:1023E000FCCF8091E30080688093E30082E01111CC
:1023F00083E080938E045AC18058823008F056C121
:1024000020919204309193042C3DE3E03E07A1F526
:1024100083E08A838AE289834FB7F894DE011396BA
:1024200020E03EE051E2E32FF0E050935700E491CA
:1024300020FF03C0E295EF703F5FEF708E2F90E0BA
:10244000EA30C0F0C7968D939D932F5F243159F7E2
:102450004FBF8091E800877F8093E8006AE270E0D8
:10246000CE0101960E94C5048091E8008B7780938D
:10247000E8001CC1C096E7CF809194049091950428
:10248000432F55274330510509F44AC078F54130B0
:10249000510509F485C08BE590E0EDEAF5E04230A6
:1024A000510509F003C12091E800277F2093E8003F
:1024B00020919604309197048217930708F49C01A9
:1024C00040E02115310509F070C041116EC08091C6
:1024D000E80082FDC9CF80918E04882329F28530DF
:1024E00019F28091E80083FFF2CFBECF413251054F
:1024F00009F447C04232510509F0D8C08330910534
:1025000008F0D4C0FC01EE0FFF1FE459FE4F01900C
:10251000F081E02D87599E4FDC018C9190E01DC029
:10252000332721303105E9F02115310579F02230CA
:102530003105F9F02330310509F0B8C0EAE1F6E0E1
:10254000E4918E2F90E0EAE1F6E007C0E2E6F6E0E3
:10255000E4918E2F90E0E2E6F6E0009709F4A6C041
:10256000A2CFE8E4F6E0E4918E2F90E0E8E4F6E014
:10257000F4CFE8E3F6E0E4918E2F90E0E8E3F6E0B4
:10258000ECCF8330910508F091C0880F991FFC01B2
:10259000EE58FE4F0190F081E02D89E090E083CF6E
:1025A00082E190E0E8E0F6E07ECF80918E0488231F
:1025B00009F45ACF853009F457CF8091E80083FDA4
:1025C00053CF8091E80082FD82CF8091E80080FFA8
:1025D00078CF9091F3008091F2002115310519F028
:1025E0008830910550F041E0089709F040E0809173
:1025F000E8008E778093E80064CF44914093F10027
:102600003196215031090196E8CF803809F04EC04B
:102610008091E800877F8093E80080918F04809309
:10262000F10092CE811142C0109192041230F0F567
:102630008091E800877F8093E80010938F040E94C8
:102640001904112311F084E005C08091E30087FD97
:10265000FACF81E080938E0442E061EC81E00E9439
:10266000380442E261EC84E00E94380442E261EC0A
:1026700082E00E94380442E260EC83E00E94380469
:1026800080918E0413C080919204813079F481E0AE
:10269000933009F080E080938D041092E9008091DE
:1026A000E800877F8093E8000E9419048091E80089
:1026B00083FF0AC08091E800877F8093E8008091C3
:1026C000EB0080628093EB00AA96E3E00C94A533C4
:1026D000E4E8F3E0128E138E8FEA90E0918380831A
:1026E00025E0248F88E893E1938382838AE090E059
:1026F0009583848344E150E05783468348E050E06B
:1027000051874087938782876EE170E07587648781
:102710009787868780E590E0918B808B538B428BE7
:1027200048E250E0558B448B42E350E0578B468B98
:1027300048EC50E0518F408F158E178E168E91A366
:1027400080A322A30E944C0E0E9478101092620374
:1027500010926103E2E6F3E08081846080836091FF
:1027600061037091620384E090E00E9423340E9430
:10277000690E0895AEE1B0E0E0ECF3E10C947F3334
:10278000A0905C04B0905D0481E090E090935D04C3
:1027900080935C048DECC82E83E0D82E00E0760197
:1027A00010E015C0F40125913491472D612F802F41
:1027B0000E940B0D82E0880E911C7394E8E07E125B
:1027C000F1CFF0E1EF0EF11C1F5F1A3019F0470155
:1027D000712CE8CF0F5F80EAC80ED11C0330F9F6E8
:1027E0000E9468131A8219821C821B821E821D821B
:1027F00018861F8288EC90E09A8789870DE212E0A4
:102800004AE050E0B801CE0101960E942934065FEB
:102810001F4F0D37E2E01E0799F77E01FBE0EF0E38
:10282000F11C8AE0F70111928A95E9F74AE050E03D
:10283000B801C7010E942934065F1F4F0D3CF2E02A
:102840001F07A1F77E0185E1E80EF11C8AE0F70180
:1028500011928A95E9F78FEF9FEF9A8F898F87E022
:102860008E8F4AE050E0B801C7010E942934065F0C
:102870001F4F0D31F3E01F07A1F7B0925D04A09246
:102880005C046E96EDE00C949B3380E00E94310D69
:1028900060E088E290E00E9405340E94BA130E9432
:1028A000FB0C81E00E94310D0895CF92DF92EF92F0
:1028B000FF928FEF9FEF4430510508F46CC0FB018D
:1028C000C080D180E280F3800E9478108091610303
:1028D000C0FA80F9B701A601769567955795479597
:1028E00040FB81F9B701A60122E0769567955795DF
:1028F00047952A95D1F740FB82F9B701A60133E04D
:1029000076956795579547953A95D1F740FB83F9AA
:10291000B701A601E4E07695679557954795EA9546
:10292000D1F740FB84F9B701A601F5E076956795EC
:1029300057954795FA95D1F740FB85F9B701A60160
:10294000A6E07695679557954795AA95D1F740FBF0
:1029500086F9B701A601B7E0769567955795479533
:10296000BA95D1F740FB87F98093610380916203A8
:10297000D0FA80F9D1FACC24C0F8C0FA81F980935A
:102980006203609161037091620384E090E00E94B1
:10299000233490E080E0FF90EF90DF90CF90089597
:1029A0000E9478102FEF84E39CE0215080409040FB
:1029B000E1F700C0000088E19AE00FB6F894A8950E
:1029C000809360000FBE90936000FFCF882321F0BA
:1029D0000E942A0A0E94C00F0895882339F090911E
:1029E000E204982B9093E2040E94C00F089588237C
:1029F00021F00E94310A0E94C00F0895882321F01F
:102A00000E94380A0E94C00F0895882309F456C016
:102A1000823879F40E94A80581FF50C089E30E94A2
:102A2000760A0E94C00F89E30E94690A0E94C00FC3
:102A30000895833859F40E94A80580FF3FC083E5BC
:102A40000E94760A0E94C00F83E5EECF843859F4C5
:102A50000E94A80582FF32C087E40E94760A0E9485
:102A6000C00F87E4E1CF9CEF980F913AE8F290E233
:102A7000980F983050F4877091E001C0990F8A95B3
:102A8000EAF7892F0E94310AD1CF9BE5980F933046
:102A900028F490E080E00E948305089598E5980F5F
:102AA0009B3128F490E080E00E945E05089593E356
:102AB000980F933118F460E00E948B0B0895FF92F9
:102AC0000F931F93CF93DF93F82E00916F04109113
:102AD00070040115110509F449C010926E0410929A
:102AE0006D0410926A0410926B04D8011696CD9171
:102AF000DC919E013A9521153F4108F4D07ED1E04A
:102B0000C11101C0D0E0D8011996ED91FC911A973E
:102B1000309731F01B966D917C9180E00995D82318
:102B2000DD2339F08CEF8C0F813A30F58C2F0E9429
:102B3000690AFF2099F0E0916F04F091700480859C
:102B400084FD0CC080916C04882341F080819181C8
:102B50009C01215031092F333E47A0F00E94C00F45
:102B60001092700410926F0410926C04C801CDB7DB
:102B7000DEB7E5E00C94A3330E94C00F8C2F0E94B7
:102B80000515D7CF0E94B505E9CFCF93DF93EC01B0
:102B90000E940515CE010E94630C9E01205E310942
:102BA0002830310510F0CD2B29F40E94F714DF9165
:102BB000CF9108950E94E614FACFCF93C82F8823AF
:102BC000C9F08238C9F40E94A80581FD13C089E3C9
:102BD0000E94760A0E94C00F2FEF87EE93E02150EB
:102BE00080409040E1F700C0000089E30E94690A3C
:102BF0000E94C00FCF9108958338A1F40E94A805C8
:102C000080FDF8CF83E50E94760A0E94C00F2FEF67
:102C100081EE94E0215080409040E1F700C0000038
:102C200083E5E4CF8438A1F40E94A80582FDE2CFB9
:102C300087E40E94760A0E94C00F2FEF81EE94E095
:102C4000215080409040E1F700C0000087E4CECFE3
:102C50008CEF8C0F813A68F4ECE7F1E08191C817B2
:102C6000C9F121E0E238F207C9F78C2F0E94760AF9
:102C7000BFCF80E28C0F883048F4C77081E001C07C
:102C8000880FCA95EAF70E94380AB2CFEBE5EC0F3D
:102C9000E33040F4F0E0E25EFE4F808190E00E947D
:102CA0008305A8CFE8E5EC0FEB3150F4F0E0EE0F30
:102CB000FF1FEF5DFE4F808191810E945E059ACFDC
:102CC00083E38C0F833108F095CF61E08C2F0E9455
:102CD0008B0B90CF8C2F0E94690A0E94C00FC5CF2A
:102CE0001F93CF93DF93182FC091A403D091A50316
:102CF000893321F0C091A203D091A303812F0E94B8
:102D0000DD15209739F4812F0E940515DF91CF91B1
:102D10001F9108958FE99FE00197F1F700C000002F
:102D20002197EFCFB0E0A0E0E8E9F6E10C94823320
:102D3000EC018AE0A82E2881222309F48FC02130DB
:102D4000C9F599818A81913021F422960E947016EA
:102D500005C0923029F422960E94DD152196EBCF12
:102D6000933021F422960E940515F8CF943011F08B
:102D70002196F4CF229630E020E0AE014F5F5F4F06
:102D80008053990B8A30910550F02150310930F36E
:102D90008FE99FE00197F1F700C00000F6CFA29EF7
:102DA000B001A39E700D11249C01260F371F89814D
:102DB000EA01E3CFE22FF0E0EA56F94FB490822F18
:102DC00086958695869590E0FC01EA57F94FE49048
:102DD0002770F12C022E02C0F594E7940A94E2F7D2
:102DE00031E0E322FF24FC01EA58F94FC490D12CD2
:102DF000022E02C0D594C7940A94E2F731E0C322B0
:102E0000DD24FC01EA59F94F049110E002C0159548
:102E100007952A95E2F701701127E114F10419F0E2
:102E200081EE0E94DD15C114D10419F086EE0E94D6
:102E3000DD158B2D0E947016C114D10419F086EE99
:102E40000E940515E114F10419F081EE0E940515A8
:102E50000115110509F482CF8CE278CFCDB7DEB72A
:102E6000EAE00C949E33B0E0A0E0E9E3F7E10C94D3
:102E700082337C015B01C42FD22FFC018581882322
:102E8000A9F0409373040E945205909372048093BA
:102E90007104C77081E001C0880FCA95EAF70E94EB
:102EA000FE14CDB7DEB7EAE00C949E3310917304A4
:102EB000141338C080917104909172040E943705F8
:102EC0006C01B701C5010E945E0DC816D90650F508
:102ED000C0E2CD0F1D17C1F080E2810F883048F4A9
:102EE000177081E0012E01C0880F0A94EAF70E9452
:102EF000F714C83048F481E09D2F977001C0880F07
:102F00009A95EAF70E94FE14802F0E947016C8302E
:102F100040F6D77081E001C0880FDA95EAF70E9489
:102F2000F714BFCFC77081E001C0880FCA95EAF7D8
:102F3000F6CFCF93DF93EC010E94630C9E01205EDD
:102F400031092830310510F0209741F40E94FE1419
:102F50008C2F0E94DD15DF91CF9108950E94ED1412
:102F6000F7CF662329F02091E20422602093E20447
:102F70009C0130522115304308F499270E9499177B
:102F80000895B0E0A0E0E7ECF7E10C9484336C0125
:102F90008B01E42E8091130182FF87C0C091AA03A8
:102FA000D091AB03CC15DD0521F0C114D10409F09B
:102FB0007CC0809113018B7F8093130181FD6EC0D3
:102FC0008091A8039091A903A801481B590B81E0A7
:102FD00020911101309112014217530708F480E04B
:102FE0008170F82E80911301F0FA81F9809313011A
:102FF000FE0183E0F695E7958A95E1F7EE71FF27EC
:10300000EC59FC4F20813181AE014F70552781E092
:1030100090E002C0880F991F4A95E2F7FF2009F45B
:103020003FC0822B932B918380838091630381FF28
:1030300008C08091130180618093130182E00E9497
:10304000310A8091630385FF08C08091130180627B
:103050008093130180E20E94310A6F2DCE010E94FD
:10306000B117EE2031F080919F0385FF02C086FFEB
:1030700030C08091A2039091A3030E94F10C809133
:10308000AA039091AB039C0130522115304308F400
:1030900099270E94C5150E94591017C081E0A0CF42
:1030A0008095909582239323BECFC60190528115BF
:1030B0009043A0F4C60199270E94C5158091AA03E8
:1030C0009091AB038C159D0531F31093A9030093E8
:1030D000A803CDB7DEB7E8E00C94A033C601ECCF6F
:1030E0002F923F925F926F927F928F929F92AF92B8
:1030F000BF92CF92DF92EF92FF920F931F93CF93E5
:10310000DF93F2EC2F2EF1E03F2EA7EC8A2EA1E008
:103110009A2EB7E5EB2EB1E0FB2EC0E0AA24A394D3
:10312000B12CD1017C90F10111921F01D7018D9139
:103130007D01E82FE295EF70F0E091A18F70B5016D
:1031400001C0660F8A95EAF7892F862B81A382A199
:10315000D62FD0958D2382A3B0EABA95F1F721E658
:1031600031E0690190E080E0A10141505109D601B0
:103170005D906D01052D02950F7010E0D8019096BD
:103180000C91DA016C9010E0B52DBF7002C015955E
:103190000795BA95E2F710E000FD06C01A2D082E3B
:1031A00001C0110F0A94EAF71629DA011C9301965F
:1031B00088309105E1F681A1D823D1A382A1682BA3
:1031C00062A381E09C91971101C080E0C82B82141A
:1031D000930409F0A6CF50E040E061E070E0ECE538
:1031E0006E2EE1E07E2EF90181919F01E82FE2959C
:1031F000EF70F0E0D1A18F708B0102C0000F111FA2
:103200008A95E2F7C8019D2F982B91A392A18095F2
:10321000892382A310EA1A95F1F78B01042E01C0CD
:10322000000F0A94EAF7802E0095E7ECF1E097E5AD
:10323000E92E91E0F92ED0E06F019080D7011D9129
:103240007D01A12EA2948FE0A822B12CD5019096E9
:103250008C9190E01F7002C0959587951A95E2F7C2
:1032600080FD50C0882D892980833196D6018C91AC
:103270009812D1E06E147F04F9F6F901319780813C
:10328000E82FE295EF70F0E0F1A08F708B0101C0A4
:10329000000F8A95EAF7902F90959F2191A382A124
:1032A000802B82A3CD2B4F5F5F4F4830510509F033
:1032B0009ACFCC2351F181E0809384010E94520582
:1032C0009093830180938201809182019091830188
:1032D0000E9437050597E8F04AE050E062EC71E0A3
:1032E00089EE91E00E94BA33892B49F08AE0E2EC42
:1032F000F1E0A9EEB1E001900D928A95E1F710920C
:10330000840107C0802F8921AFCF80918401811172
:10331000DBCF8C2FDF91CF911F910F91FF90EF901A
:10332000DF90CF90BF90AF909F908F907F906F90E5
:103330005F903F902F900895A7E0B0E0E2EAF9E1B6
:103340000C947A337C01DC0114968C91882309F467
:103350005AC161E0C7010E943D0E8C01F7018581D1
:10336000882309F180917404909175040097D9F035
:1033700008171907C1F0FEE08F9FC0011124FC015E
:10338000E55EFD4F2081246020838A5E9D4FDC0135
:103390000D931C930E9431101092E20461E0C7016A
:1033A0000E943D0E8C01F7018581882309F4B1C08C
:1033B000C80197578038910508F0DDC0D02EFFE096
:1033C000F01708F410C18FEF93E00E94E7338111EA
:1033D0000AC10DE113E0D11036C019821A821B8296
:1033E0001C8299249A9468013FEFC31AD30AC8013A
:1033F0000E94E73389831A82882309F4F4C081305C
:1034000009F081C0580142E0A40EB11CC6010E941F
:10341000E733C82E8A83882309F4E5C0C5010E94DA
:10342000E733D82E8FEF8C0D8330D8F4580153E05A
:10343000A50EB11CDB82DD2021F0CE0101960E9499
:1034400092168501D0CF011524E0120709F4CBC0F4
:10345000C8010E94E733811101C0DA940F5F1F4F4A
:10346000BACF8BEF8C0D833030F5C8010396DB8229
:103470005C01DD2031F35801A4E0AA0EB11C0E94CA
:10348000E7338C838823E9F28B819C818130BFEF05
:103490009B0710F0982F8827E6E0CE1631F0F7E072
:1034A000CF1631F00E94F328CCCF0E94CE28C9CF8E
:1034B0000E945528C6CF24E0C212C3CF580134E081
:1034C000A30EB11CC80103960E94E733DD2009F466
:1034D0008AC0882309F487C08150990B989E900177
:1034E000999E300D11244D2D4150550BCA01820F6C
:1034F000931F019708F4A5CFAFE9BFE01197F1F74B
:1035000000C00000F6CFCE0101960E94921656012F
:1035100098CF6801E7E5DE1AFFEFCF16D10409F076
:1035200050F56CE072E08C2D0E944A0D892B19F544
:103530008EE08C9DF0018D9DF00D1124EA5EFD4F13
:1035400082818130A1F580910C0290910D02892B2E
:1035500091F080910E0290910F02892B61F0809181
:103560001002909111022091120230911302822BCD
:10357000932B892B21F1D70115965C90552009F4E6
:1035800046C00E35BCE71B0759F10F35ECE71E07A7
:1035900041F00D35FCE71F07D1F58091000188232C
:1035A000F9F01092000180E00E945F151CC082308B
:1035B00011F78091100290911102892BE1F22EE017
:1035C0002C9DC0012D9D900D1124FC01E55EFD4F49
:1035D00020812E7F20838A5E9D4F0E943110CBCFA9
:1035E00081E0809300018091B401877061F0D70180
:1035F00015968C91882339F08091620382FF03C075
:1036000082E00E94330B2796E2E10C94963380917E
:103610000001882309F453C6480120EE821A91085C
:103620004090BF018091B101482A80916303482AEC
:1036300038E08316910408F086C09801277033277C
:1036400081E090E001C0880F2A95EAF7552009F43F
:1036500077C0482AD7018D919C910E94990A21E058
:1036600030E0390102C0660C771C8A95E2F7E091E0
:103670006F04F0917004FF83EE83209085013090F9
:1036800086011D822D81E22FF0E0EE0FFF1FE9522F
:10369000FD4FC080D180C114D10409F474C641101B
:1036A00005C0D60112968C91811187C0F6018381E5
:1036B00090E086219721892B09F47FC08085982F7F
:1036C000977009F487E0F8E08F16910408F055C070
:1036D000552009F44EC086958170882309F46DC089
:1036E000D601AD90BC900A151B0519F4552009F4BC
:1036F00064C0EE81FF81CE16DF0609F45EC0D601FC
:103700001D96ED91FC91309721F08081882309F47A
:1037100054C0642DC6010E940606882309F44DC0DA
:103720000A151B0509F098C60115110509F499C67B
:10373000511099C6A214B30409F03FC0512C93C68E
:103740008095482287CF552009F406C6109386013C
:10375000009385010E944605609366047093670498
:10376000809368049093690410926E0410926D0423
:1037700071CF82FB882780F9B0CF5520F1F081709E
:10378000ACCF0E9405158DC60497813A910548F487
:103790008A2D0E94760A552009F491C50E94C00F17
:1037A00022CF0E94C00F8FE39CE90197F1F700C080
:1037B00000008A2D0E94DD15EECF9D819F5F9D83C5
:1037C00061CFFC01208131810217130709F070C518
:1037D000511070C510926C0480E00E945F156FC597
:1037E000902F812FB4C5F901858181FFE0C5C90102
:1037F0000E941710DCC590911301892F8E7F90FFD6
:103800008160809313010E945910FDC580911301BE
:103810008E7FF7CF809113018F7E013E110531F02D
:10382000053E1105E9F4809113018F7D809313010A
:103830008091130180FF29C0D70115968C91083221
:10384000110570F50E31110508F07BC0043011052B
:10385000C8F58823D1F01092AB031092AA0315C0CB
:10386000C80190528115904318F78091130182FF8F
:103870000CC08091A10381FD08C02BED31E040E038
:10388000B60190E080E00E94C117F801E851FC47C2
:10389000E730F10508F0C1C5E35BFB4C0C946D33D8
:1038A0000933110558F40D32110518F40B321105C6
:1038B00081F690919F0392FDCCCF08C0043611058C
:1038C000C1F3C7CF90919F0394FDC3CF882309F420
:1038D000A8C08091BF0190916303892B8D7FB1F1C6
:1038E0001092AB031092AA0380919F0381FD2EC01A
:1038F000F80143E0F695E7954A95E1F7EE71FF2769
:10390000EC59FC4F98012F70332781E090E002C002
:10391000880F991F2A95E2F7809590952081318133
:10392000822393239183808360E0C8010E94B117B2
:103930008091BF018D7F0E94010A82E00E94330BBB
:1039400052CE90919F0393FD84CFC0CF89E0F701C1
:10395000ABEDB1E001900D928A95E1F71092E00194
:103960001092DE011092DD018091AA039091AB03C9
:1039700008171907D1F520919F0325FF36C0309114
:10398000130131FF02C026FF30C02091A8033091FF
:10399000A9035601A21AB30AB7010E945E0DA81628
:1039A000B90618F58091630381FF08C08091130167
:1039B00080618093130182E00E94310A8091630349
:1039C00085FF08C08091130180628093130180E21B
:1039D0000E94310A60911301669561708091AA037B
:1039E0009091AB030E94B117FECD8091BF019091E1
:1039F0006303982B2091130191FB21F9209313016C
:103A00008D7F0E94010A1093AB030093AA03D0920A
:103A1000A903C092A80380911301846080931301CD
:103A20008CCF970140E0B601C8010E94C117DBCDE1
:103A300006E221EE41EE6AE17CE7C7010E943317FE
:103A4000D2CD07E225EE45EE6BE17CE7F6CF06E24C
:103A500021EE40EE68E17CE7F0CF07E225EE44EE90
:103A600069E17CE7EACF06E221EE42EE6CE17CE719
:103A7000E4CF07E225EE46EE6DE17CE7DECF08E21B
:103A800021E045EE6EE17CE7D8CF80916103816053
:103A90008093610395C08091620388608093620384
:103AA0008FC0809161038260F3CF80916103846055
:103AB000EFCF809161038860EBCF809162038160DA
:103AC000EDCF809162038260E9CF809161038061D4
:103AD000DFCF809161038062DBCF809161038064DE
:103AE000D7CF0E947810809161038068D1CF8091F8
:103AF00061038C60CDCF809162038360CFCF8091D2
:103B000061038E7FC5CF80916203877FC7CF80918D
:103B100061038D7FBDCF809161038B7FB9CF809191
:103B20006103877FB5CF809162038E7FB7CF80918D
:103B300062038D7FB3CF809161038F7EA9CF809187
:103B400061038F7DA5CF809161038F7BA1CF0E9400
:103B50007810809161038F779BCF80916103837F81
:103B600097CF809162038C7F99CF8091610382FB14
:103B7000992790F921E0922790FB82F990FB83F935
:103B800087CF80916203982F909591708E7F892BBB
:103B900090FB81F983CF90916103892F8F7B96FFF2
:103BA000806476CF0E94781090916103892F97FBF3
:103BB00087F980586DCF61E08EE090E00E94053477
:103BC000609161037091620384E090E00E9423346D
:103BD0000E94781008CD60E0EFCF90916103892FAB
:103BE0008F7E94FF806154CF90916103892F8E7FE7
:103BF00090FF81604DCF90916203892F877F93FF63
:103C000088604CCF0631FCE71F07A9F5809163035C
:103C1000982F9A7A30919E0330FF04C0482F447445
:103C200009F090E031FF04C0482F417109F090E0A5
:103C300032FF04C0482F487809F090E033FF03C0FA
:103C4000827209F090E0222361F081E0911101C0BD
:103C500080E08093870189E2911185E30E94760AD2
:103C60009DCD80918701811104C089E20E94690A7B
:103C700095CD85E3FBCF07373CE7130709F458C020
:103C800008374CE7140709F45EC0222381F00330A3
:103C90005CE7150709F477C008F05AC001159CE7E6
:103CA000190709F463C001301C4709F472C0F70119
:103CB00087819085009709F47AC00E94D808182F50
:103CC000092FF701C580B680B2943FE0B3228091FE
:103CD000B4018770F1F0AC2CCC20E1F0892F807F0B
:103CE000803451F080E2810F883098F0B11004C028
:103CF000892F807E803269F08091620382FF09C043
:103D000082E00E94330B8091B4018770AA24A394AF
:103D10008111A12C902E92942FE09222FBE0F915B4
:103D200008F4D5C0E92DF0E0EC5AFB4C0C946D334F
:103D300081E0222351F00E944A0B43E062E081E0DF
:103D40000E94060B50CC82E0F4CF0E94260BF5CFE8
:103D50000B35BCE71B0749F10C35ECE71E07D9F022
:103D60000A351C4709F0A3CF81E01CC00E947810DF
:103D70002FEF34E34CE0215030404040E1F700C0E9
:103D800000000E9426056FEF7FEF90E080E00E9428
:103D900023340E94D0148091620382FB882780F92B
:103DA00091E089270E94A80E82CF80E0FBCF858119
:103DB00000811181882369F0C8010E94C80DD82EA6
:103DC000682FC8010E94CD0AB8018D2D0E94AB0D4D
:103DD00074CFC8010E94990AD82EF6CF202F2F70D9
:103DE000D22E802F807F19F0D29490EFD922CC2050
:103DF000A9F0DD2059F080E2810F883010F0111118
:103E000007C08D2D0E94380A0E94C00F812F5DC00F
:103E10008091E204D82AD092E204F6CF812F0E944A
:103E20000515DD2009F453C080E2810F883010F0C1
:103E3000111104C08D2D0E94310A03C08D2D0E94E6
:103E40002A0A0E94C00F43C0302F3F70D32E802F0C
:103E5000807F803219F0D29480EFD822112339F17B
:103E6000113009F4B6C0CC2009F4C2C0BB2009F45B
:103E700066C020E0D7014C9111965C911197129683
:103E80006C91129713967C91139714968C911497BA
:103E900015969C910E94180E8091A10381FDB6CFCA
:103EA000F701868180FFB2CF8F70868348C08091F2
:103EB000620382FD40C0CC20C1F1DD2029F08D2DB0
:103EC0000E94380A0E94C00F80E00E94DD15A92DD3
:103ED000A850BB0B149710F40E94A805812F902FB7
:103EE0000E94700B8111C4C1109289011092880147
:103EF000AA20B1F08091B40180FD12C0D7011596BF
:103F00001C928695869586950E944A0BC7010E9451
:103F10009C198091B4018695869586950E94260B02
:103F200060E0C7010E943D0E6ECB80E00E94051547
:103F3000DD2069F27FCFCC2091F1B11004C08D2D2E
:103F40000E94FE14C4CF41E0B41211C08090BF01A2
:103F50008D2D8821D81609F4BACF0E94520590936E
:103F6000BE018093BD01D828D092BF01B0CF80910F
:103F7000A003823008F4ABCFB812A9CF8D2D0E94D8
:103F8000FE148D2D0E94150A8091B1019D2D98235C
:103F9000D91609F49CCFD82AD092B10198CFB1108C
:103FA0000AC08D2D0E94F7148D2D0E94150A8D2DAB
:103FB0000E945F0A8CCF8091A003823008F487CFE3
:103FC00051E0B51284CF809163038D2109F47FCF36
:103FD000E8CF8091A603CC2021F08B1508F477CF91
:103FE000AECFB81608F073CF8D2D0E94F7146FCFA7
:103FF000BB20D1F38091A4039091A503193321F044
:104000008091A2039091A3030E94F10C812F0E9442
:1040100005155DCF802F86958695837069F0813078
:1040200009F055CF812F902F9370C11002C080E00E
:1040300090E00E945E054BCF812F902F9370C110AE
:1040400002C080E090E00E94830541CF6C2D812F5B
:104050000E948B0B3CCF802F837091F5C11037CF1E
:10406000412F429546954770440F440F812F8F7022
:10407000042E01C0880F0A94EAF7212F207114FF43
:1040800007C02FE030E001C0220F4A95EAF72095E3
:10409000302F369536953370323069F050F44091B8
:1040A000CC01313029F0822B84230E946D0B0FCF7D
:1040B000842B822BFACF282B8091CC018227F5CF3D
:1040C0008695CC2011F0802F8170882309F4FFCED3
:1040D000412F429546954770440F440F812F8F70B2
:1040E000042E01C0880F0A94EAF7212F207114FFD3
:1040F00007C02FE030E001C0220F4A95EAF7209573
:10410000302F369536953370323069F050F4409147
:10411000CD01313029F0822B84230E94030BD7CEAE
:10412000842B822BFACF282B8091CD018227F5CFCB
:10413000F02FFF70DF2ECC2029F08F2F0E944A0B2A
:10414000812FFECE812F0E94F7148D2D0E94260B09
:10415000BECE123F89F160F4103FB9F0113F81F0FB
:10416000CC2009F480C0B11051CE802F8F7128C0AF
:10417000133F49F1143FA1F78091620382FD2FC0E4
:10418000802F8F71CC2011F31BC08091A603CC200F
:1041900079F0B81608F09BCE202F2F7181E090E0C7
:1041A00001C0880F2A95EAF79091CD018927B5CFF4
:1041B0008B1508F48CCEF0CF802F8F71C110C6CF35
:1041C0000E944A0B84CE80E0CC2009F4A6CF81E087
:1041D000902F9F7101C0880F9A95EAF79ECF80912A
:1041E000A003823040F1CC20D1F09091B4019770BF
:1041F000943041F40E943E0A802F8F710E94260B5A
:10420000A12C65CEB816E0F7202F2F71D22E822F69
:104210000E944A0B63E08D2D0E94560BF1CFB81619
:1042200030F00E943E0A64E0802F8F71F5CF81E06C
:104230000E94330BE5CFCC2059F0302F3F71D32EA5
:10424000832F0E944A0B63E08D2D0E94560B3FCEB8
:1042500081E00E94330B41E04B1508F038CE82E03C
:104260000E94330B34CEB110C5CE802F8F716ECF2C
:10427000CC2019F0B11038CE3BCEB11035CE20E0B5
:10428000F7014081518162817381848195810E940F
:10429000180E8091A10383FF27CE80918801909111
:1042A0008901029709F020CE812F0E9470161CCE42
:1042B000552029F0DC0118968C9185FF8DCAC80124
:1042C00097558F3F910511F008F071C05801BB243C
:1042D000BEE00B9FF00111249F012A5E3D4F690152
:1042E000D70115968C91E55EFD4F908180FB90F98A
:1042F0009083882309F477CA0E9452059093DA01CB
:104300008093D901F60182818F5F82838091E204DC
:1043100090916303892B83838091BF0184830680FE
:10432000F781E02D309731F0D6011C966D917C918C
:10433000C60109958EE08A9DF0018B9DF00D112438
:10434000EA5EFD4F858181FF4BCA90E080E090934B
:104350007404809375042BC080918501909186012F
:104360000817190781F410928601109285011092A6
:104370006604109267041092680410926904109207
:104380006E0410926D0480916F04909170040097F8
:1043900009F495CFA8E08A16910408F012CA642D9A
:1043A0000E940606811103C081E00E945F15809182
:1043B0009F0380FF6ACA0E9452056C01D7011596BF
:1043C0008C91882309F426CA8091130182FF08C0CA
:1043D0002BED31E040E0B60190E080E00E94C11793
:1043E0000431BCE71B0709F411CA0531ECE71E07CD
:1043F00009F401CA0331FCE71F0729F48091130176
:10440000816080931301C80190528115904308F098
:104410000FCA1092AB031092AA03F7012581222341
:1044200009F4F0CB10927304C8019057839708F0F9
:10443000E9CB84E090E00E94EF3390936203809395
:104440006103F801E150F047E232F10508F01DCBBD
:10445000E05AFB4C0C946D33A114B10409F06AC905
:10446000512CB12CA12C80E00E945F15D0927004D9
:10447000C0926F0481E080936C04F6018581809383
:104480006A0451100EC0AB2861F0F6018081918161
:104490009C0124503109213A310508F072C90E946B
:1044A000690AD6011696AD90BC90C5019A95811502
:1044B0009F4110F4E0EEBE2277247394C50101976A
:1044C0008F339E4708F0712CD6011996ED91FC911F
:1044D0001A97309731F01B966D917C9181E0099588
:1044E0007822772079F0F601868197810E94630C0B
:1044F00080936B04C501F8E08F16910408F044C95D
:104500000E94B5050E94C00F46C9B0E0A0E0EBE8EC
:10451000F2E20C9485338091AE01807F09F054C0A3
:104520008091AD01882309F44FC0E091E10489E056
:10453000D82E809198048E1709F446C00E2F10E0F3
:10454000ED9DF0011124E756FB4F8481882309F487
:1045500040C0D09EE001D19ED00D1124FE01E7564F
:10456000FB4F91818091A901981333C09081809174
:10457000A80198132EC0858181112BC0E280F380A1
:104580008091AA019091AB01E81AF90A60E088EAEB
:1045900091E00E943D0E68EA71E00E945E0DE8160F
:1045A000F906B8F48091AE018F7080618093AE01FE
:1045B000C156DB4F88818F708061888388EA91E0E3
:1045C0000E949C190E948F0ACDB7DEB7E7E00C94D9
:1045D000A133F8013196E770ACCFA8E1B0E0E3EF8A
:1045E000F2E20C947D338C0186E0F801DE015396F3
:1045F00001900D928A95E1F7D80114967C9014975A
:104600001596EC9088EAA82E81E0B82E8091AC0136
:1046100081112AC0711003C0FF24F3941CC0EE2046
:10462000F9F0C8010E94040EF82E8823C9F089E031
:10463000F801A8EAB1E001900D928A95E1F7809126
:10464000AC01813031F48091A8019091A9010E94C0
:10465000F70D0E9485228F2D6896EFE00C94993318
:10466000C8010E949C19D8CFF80150806180C28097
:10467000D38060E088EA91E00E943D0EF090AD01A9
:104680008091AA019091AB014601881A990A60E0D5
:1046900088EA91E0FF2009F428C10E943D0E68EAF3
:1046A00071E00E945E0D8816990608F0D1C077204F
:1046B00009F4B2CF8091AE01382F307F2091A9014B
:1046C000D80111969C911197311171C029131FC007
:1046D0002091A8019C9129131AC04091AF015091DB
:1046E000B00117962D913C914217530781F4E110C8
:1046F00054C08F7080618093AE0188EA91E00E947F
:104700009C198091AE01F8018683F12CA4CFE110B1
:1047100044C0662D852D0E94AA03E82E882381F0CF
:104720008091A10380FFF1CF88EA91E00E949C195B
:1047300089E0E8EAF1E0DF011D928A95E9F7E5CF2B
:104740005B8A6C8A8B899C890E94F70D292F2295A0
:104750002F70243058F49F70223088F0992399F0FC
:10476000F8019681907F79F4FE2C75CF2A5F2F7027
:10477000223068F0C8010E949C19EF2CF5CF9923D4
:1047800011F0882389F3805E883070F3F3CF803F87
:1047900058F3815F833070F7E7CF8091AE0181607D
:1047A0008093AE018091A10381FDAFCFBDCF2913CE
:1047B00020C02091A8019C9129131BC04091AF01FA
:1047C0005091B00117962D913C91189742175307BD
:1047D00081F4E1100EC016968C93C8010E949C19BA
:1047E00089E0F801A8EAB1E001900D928A95E1F71D
:1047F00032CFC8010E94040E882309F431CFEE2085
:1048000009F42ECF8091AE018032B8F02091A8013A
:104810003091A9013B872A87DD86CC869091AC0137
:104820009E871F86888B8091AF019091B0019A8BF3
:10483000898BCE010A960E949C1989E0F801A8EAAA
:10484000B1E001900D928A95E1F70E948522E4CEB5
:104850008091AE01982F907F09F466CF772009F4FC
:10486000DBCE2091A901F801918129131AC0209172
:10487000A8019081291315C04091AF015091B0015A
:10488000278130854217530761F4E1100AC08683FF
:10489000C8010E949C1989E0D5011D928A95E9F70B
:1048A000DACEC8010E94040E882309F4D9CEEE2086
:1048B00009F4D6CE8091AE01803208F4BECF2091AB
:1048C000A8013091A9013A832983DC82CB8290919F
:1048D000AC019D831E828F838091AF019091B001C6
:1048E00099878887CE010196A6CF0E943D0E68EA7F
:1048F00071E00E945E0D8816990608F04AC0772084
:1049000009F48ACEFE2CEE2009F4AACE9091A901DA
:10491000F801818198132FC09091A801808198138C
:104920002AC02091AF013091B0018781908528176E
:10493000390709F58091AA019091AB01C81AD90AEB
:10494000F8ECCF16D10408F04BCF9091AE0190FD5A
:1049500047CF907F09F444CF8091AE01D8011696DD
:104960008C931697903F09F438CF982F907F905FE3
:104970008F70892B30CFC8010E94040E81115DCF4A
:104980008091AE0181608093AE01C8010E949C19A4
:1049900062CE89E0F50111928A95E9F75CCEA2E139
:1049A000B0E0E5EDF4E20C9488330A871B872C878E
:1049B0003D874E875F87688B798B8A8BCE010A96FD
:1049C0000E94ED2281110CC089E0FE013A96DE01C1
:1049D000119601900D928A95E1F78E8581110BC099
:1049E00019E08091E10490919804891331C0629696
:1049F000E4E00C94A4332091980430E0C9010196BE
:104A0000877099274091E1044817190699F099E0B9
:104A1000929FD001939FB00D1124A756BB4FFE016A
:104A2000319601900D929A95E1F7809398040E9437
:104A30008F0AD6CF0E947810109298041092E10449
:104A400089E0E8EAF1E0DF011D928A95E9F7C8CF35
:104A5000819FC001112487569B4F0E94ED2288231D
:104A600031F28091E10490E001968770992780935C
:104A7000E104B7CFEF92FF920F931F93CF93DF9391
:104A80008091E703882361F0E091AE038DE0F82E7A
:104A90008091E703E81748F01092E7031092AE0305
:104AA000CDB7DEB7E6E00C94A233EE24E394EE0E2D
:104AB000E092AE03CE2FD0E0EF9DF0011124E8513B
:104AC000FC4F84818823E9F087819085892B21F42C
:104AD00081859285019659F400811181228133816B
:104AE000448155816681778180850E94CF24FC9E18
:104AF000F001FD9EF00D1124E851FC4F148210923C
:104B0000E204EE2DC5CF10925B0410925A0410926D
:104B1000140180915904809358040E9454060E9405
:104B20003A250895B0E0A0E0E8E9F5E20C947B3383
:104B3000C091580497E0992E01E010E02DE0322E4C
:104B400034E0432E55245394809159048C1309C0AA
:104B50000E943A250E945406CDB7DEB7E1E10C94DD
:104B60009733D0E0FE01EE0FFF1FE05BFB4F80812B
:104B70009181989ED001999EB00D1124A155BC4FF2
:104B800014962C911497211159C06090E703E8EE18
:104B9000F3E030E020E0812C5D01261508F04CC0E8
:104BA000E384F484D501CD90DC906FEF7FEF712C1E
:104BB000472D50E0DA01AA0FBB1FAC0DBD1D0D90B3
:104BC000BC91A02D109731F0EA16FB0609F4BA014A
:104BD0007394EECF6F3F7607A9F1D80102C0AA0FF8
:104BE000BB1F6A95E2F78A2AB801072C02C0660F3C
:104BF000771F0A94E2F7AB0141505109841615065C
:104C000001F5329EF001339EF00D1124E851FC4F66
:104C1000989ED001999EB00D1124A155BC4F1296BB
:104C20002D913C9113973087278344821082118203
:104C30009287818715965C920E9426062196C37002
:104C400083CF14822F5F3F4F3D96A7CFAEE1B0E0F8
:104C5000ECE2F6E20C947A334B8B5C8B6D8B7E8BA3
:104C60008F8B988F882349F08091880190918901DA
:104C700001969093890180938801888D811110920B
:104C8000E204188A198A1A8A86E0FE017396DE0108
:104C90001A9601900D928A95E1F78091620382FF46
:104CA0001EC08091860390918703892BC1F00E94DA
:104CB00052052091B2013091B301821B930B2091D8
:104CC0008603309187038217930720F08091B40107
:104CD00082FFE7C10E94450A81110E94F6098E8574
:104CE000882389F061E0CE010A960E943D0E6C0196
:104CF0008F8520E5C2162CE7D20689F4882329F196
:104D000081E0809314010A851B852C853D854E85A5
:104D10005F85688979898A890E94CF24CDC031E571
:104D2000C3163CE7D30629F4882379F00E94832533
:104D3000EACF42E5C4164CE7D40639F4882329F0BB
:104D4000809114018111F2CFDBCF9FEAE92E93E02D
:104D5000F92E412CB12CA12C88248394912CBE01D6
:104D60006F5F7F4F7A8F698F22242394F7014081F0
:104D7000518166246A94762C20E0822F90E0FC0119
:104D8000EE0FFF1FE40FF51F608171816115710542
:104D900031F0C616D70609F43C012F5FEECF312C57
:104DA000FFEF6F167F0609F448C0F7014481309089
:104DB0001401832D411180E0F82FF1703F2EF7018F
:104DC000558086819F85992309F4F7C0332009F423
:104DD000F4C000919A0310919B03511013C0A401D9
:104DE000062C01C0440F0A94EAF7842B8683809135
:104DF000AC039091AD038017910720F41093AD039D
:104E00000093AC03C40102C0880F991F2A95E2F7F2
:104E10000197F70126812817190679F480915A0421
:104E200090915B04009709F44BC00E943705081766
:104E3000190708F045C0F70124824328FFEFAF1A95
:104E4000BF0A27E0E20EF11C38E0A316B10409F016
:104E50008DCF8F85882309F410C1442009F40DC13A
:104E60000E94520590935B0480935A048091E7035B
:104E7000883010F591E0980F9093E70399E0FE01D8
:104E80003A96DE01119601900D929A95E1F74DE068
:104E9000849FC001112488519C4F29E0FE01319666
:104EA000DC0101900D922A95E1F72FEF3FEFFC0115
:104EB00032872187D486C3866E96E2E10C949633BE
:104EC0008091580450915904982FF0E0E0E0851348
:104ED00014C090935804EE16FF0609F4AECF90E08C
:104EE000FC01EE0FFF1FE05BFB4FB182A082019639
:104EF0008370992780935904A0CF682E712CF301F9
:104F0000EE0FFF1FE05BFB4F20813181F7E0F29F46
:104F1000D001F39FB00D1124A155BC4F2D913C91B0
:104F200011973E8F2D8F40E020E030E0E32FF0E03E
:104F3000EE0FFF1F6D8D7E8DE60FF71F0081118133
:104F400001151105E1F0F7010190F081E02DFC8FD2
:104F5000EB8F20E005C00617170709F4432D2F5FDC
:104F6000E22FF0E0EE0FFF1F6B8D7C8DE60FF71F39
:104F7000608171816115710571F73F5FD7CF44235F
:104F8000C9F0F701231708F0FD012482EE16FF0691
:104F900021F490935804342E50CF981305C0AE17C7
:104FA000BF0711F49F5F937093012F5F3F4F822FD4
:104FB00083708DCFF0E0E0E0F7CF90E0511020C09B
:104FC000B40102C0660F771F2A95E2F79B012150BA
:104FD00031098217930731F4442309F44CC0C50109
:104FE0000E942606C401062C01C0880F0A94EAF725
:104FF000982F9095F701868189238683352C1DCFC4
:10500000AC01062C02C0559547950A94E2F7BA0107
:10501000617077279C012150310982239323892BCA
:1050200031F5672B21F1F70182819381892BE1F022
:10503000E98DFA8D27E011922A95E9F70E94520531
:10504000282F8B839C8334E03D83F70182819381F9
:10505000782F8887998709811A813C8144E05E8195
:105060006F81892F0E94CF24F7011582BBCFF42FC7
:10507000F1705F2EB7CF532CB5CF9091580480912B
:105080005904981729F00E949225411015CF3BCE64
:105090000E943A2510925B0410925A040E94540612
:1050A000F4CF82E00E94330B15CEA6E0B0E0EBE532
:1050B000F8E20C948A3390930302809302028115E4
:1050C00020E2920730F40E94C5152696E2E00C9487
:1050D000A63380EF89838A830E9452058160682FFE
:1050E0009C838B8349815A817C8181E090E00E947E
:1050F0002626EBCF0F931F93CF93DF938C01EB0109
:105100006CE072E08C2F0E944A0D892BA1F48091F3
:10511000A2039091A3030E94F10CDD27CC5FDD4F29
:105120008881F801128218828330F1F048F48130CE
:1051300059F0823081F0DF91CF911F910F91089546
:105140008430B9F08530B9F780910C0290910D024E
:10515000009789F306C080910E0290910F0200978C
:1051600099F30E945528E7CF809110029091110287
:10517000F6CF8091120290911302009791F720913F
:105180000C0230910D0280910E0290910F022115B8
:105190003105F1F2009729F7C901E3CFA6E0B0E0AD
:1051A000E4EDF8E20C948A339093030280930202B8
:1051B000811520E2920730F40E9499172696E2E0CA
:1051C0000C94A63380EF89838A830E945205816004
:1051D000682F9C838B8349815A817C8181E091E097
:1051E0000E942626EBCFCF93DF93EC010E94CE28BE
:1051F0008091A2039091A3030E94F10CCE010E9422
:105200005528DF91CF9108950F931F93CF93DF938C
:105210008C01862F6CE072E00E944A0D892BB1F45C
:10522000C0910C02D0910D02209781F0F80182818B
:10523000833051F4CE010E94F328CE010E94F3285E
:10524000CE010E94F32802C08430D0F7DF91CF91C5
:105250001F910F9108950F931F93CF93DF938C01AC
:10526000EB016CE072E08C2F0E944A0D892B09F053
:105270005CC0FE01FF27D80112968C911297EC5F5B
:10528000FD4F8130B9F415969C9192FF02C0808346
:105290000AC090FFFCCF82E0808380910E02909143
:1052A0000F020097B9F480910C0290910D020097C3
:1052B000E1F110C08230B9F515968C9182FD28C0BD
:1052C00080FD0BC083E080838091100290911102D9
:1052D000009701F10E94CE2828C084E0808380914D
:1052E0001202909113020097A9F780910C029091FD
:1052F0000D020097F9F00E94F32880910E02909120
:105300000F02009739F780910C0290910D02E2CFC5
:1053100085E0808380910C0290910D02009729F026
:105320000E94F328F0CF86E08083DF91CF911F9118
:105330000F91089580910E0290910F02B8CFA6E0D0
:10534000B0E0E5EAF9E20C9488330E9452058C0142
:105350008091C0019091C1018017910781F019825D
:105360001A820E945205682F49815A81792F80E064
:1053700090E00E9426261093C1010093C00126965A
:10538000E4E00C94A4331F920F920FB60F921124F5
:105390002F933F934F935F936F937F938F939F933D
:1053A000AF93BF93CF93DF93EF93FF93D091E90037
:1053B000DF708091EC00C82FC17080FDC0E81092B2
:1053C000E9008091F000877F8093F00078940E943C
:1053D0009F101092E9008091F00088608093F000A7
:1053E000CD2BCF70C093E900FF91EF91DF91CF916A
:1053F000BF91AF919F918F917F916F915F914F91ED
:105400003F912F910F900FBE0F901F9018951F92F4
:105410000F920FB60F9211242F933F934F935F93E8
:105420006F937F938F939F93AF93BF93EF93FF936C
:105430008091E10082FF09C08091E20082FF05C0F7
:105440008091E1008B7F8093E1008091DA0080FF02
:1054500024C08091D80080FF20C08091DA008E7F28
:105460008093DA008091D90080FF9DC080E189BDE2
:1054700082E189BD09B400FEFDCF81E080938E04F6
:1054800080918104811109C00E94C9030E946A04AD
:105490008091E20084608093E2008091E10080FFCF
:1054A00017C08091E20080FF13C08091E2008E7FE0
:1054B0008093E2008091E20080618093E20080911D
:1054C000D80080628093D80019BC85E080938E0458
:1054D0008091E10084FF2BC08091E20084FF27C00F
:1054E00080E189BD82E189BD89B5982F917080FFE7
:1054F000FBCF8091D8008F7D8093D8008091E10010
:105500008F7E8093E1008091E2008F7E8093E200A5
:105510008091E20081608093E20080918F04882373
:1055200009F447C084E080938E0480918E048091BA
:10553000E10083FF27C08091E20083FF23C08091B8
:10554000E100877F8093E10082E080938E041092D7
:105550008F048091E1008E7F8093E1008091E200D2
:105560008E7F8093E2008091E20080618093E20070
:1055700042E060E080E00E9438048091F0008860A2
:105580008093F000FF91EF91BF91AF919F918F9128
:105590007F916F915F914F913F912F910F900FBE2F
:1055A0000F901F90189519BC10928E0410928104D0
:1055B00074CF8091E30087FD93E090938E04B5CF84
:1055C00078941F921FB61F9211248F939F93AF93CD
:1055D000BF9380917D0490917E04A0917F04B0914F
:1055E00080040196A11DB11D80937D0490937E04DB
:1055F000A0937F04B0938004BF91AF919F918F914E
:105600001F901FBE1F9018951F921FB61F92112446
:105610008F939F93AF93BF9380917C04811113C0AC
:1056200080917D0490917E04A0917F04B0918004CC
:105630004196A11DB11D80937D0490937E04A0939B
:105640007F04B0938004BF91AF919F918F911F9081
:105650001FBE1F901895CDB7DEB7EA970FB6F89426
:10566000DEBF0FBECDBF85B7806885BF85B78068B8
:1056700085BF84B7877F84BF0FB6F894A8958091C3
:105680006000886180936000109260000FBE80E827
:1056900090E00FB6F89480936100909361000FBE84
:1056A00081EF97E090937901809378010E940D0734
:1056B0000E947C0F0E94F00E0E94690E0E94C90396
:1056C0000E946A048091E20084608093E2007894F2
:1056D00080918E048823A1F01091E9001F709091B1
:1056E000EC00892F817090FD80E8182B1092E90062
:1056F0008091E80083FD0E949F101F701093E900C5
:1057000082E084BD93E095BD9AEF97BD80936E00D3
:105710000E948F0E811102C00E944514A7E5B1E0DE
:1057200041E651E09D0161E070E0F90181919F0146
:10573000E82FE295EF70F0E0F1A08F708B0101C0CF
:10574000000F8A95EAF7902F90959F2191A382A14F
:10575000802B82A34217530741F721E631E0A901CC
:1057600061E070E0FA018191AF01E82FE295EF70FE
:10577000F0E0F1A08F708B0101C0000F8A95EAF76D
:10578000902F90959F2191A382A1802B82A3F1E07D
:1057900049365F0739F761E070E0F90181919F01B7
:1057A000E82FE295EF70F0E011A18F70AB0101C01E
:1057B000440F8A95EAF7942F9095912391A382A1A3
:1057C000842B82A3F1E029363F0739F761E070E0CE
:1057D0008D91E82FE295EF70F0E041A18F709B0171
:1057E00001C0220F8A95EAF7922F9095942391A3F6
:1057F00082A1822B82A321E0A136B20749F7E2EC15
:10580000F1E08CEC91E0A9EEB1E011921D928E17BF
:105810009F07D9F790E080E00E94EF33863E9E4FCD
:1058200021F40E948F0E811167C066EE7EEF90E03A
:1058300080E00E94233460E082E090E00E94053422
:1058400060E083E090E00E9405341092CC0160E0BB
:1058500074E184E090E00E94233460E086E090E010
:105860000E9405346FEF87E090E00E94053440E02D
:1058700050E0BA0188E090E00E94173460E084E2D2
:1058800090E00E94053460E087E190E00E940534DA
:1058900060E08CE090E00E94053460E08DE090E0F4
:1058A0000E94053419821A821B821C821D821E826C
:1058B0001F82188648E050E068E170E0CE01019652
:1058C0000E94F53340E050E0BA0180E290E00E948F
:1058D000173480E00E94310D0E94451440E050E0F2
:1058E000BA018FE090E00E94173440E050E0BA0126
:1058F00083E190E00E94173482E090E00E94E73359
:105900008093CE0184E090E00E94EF339093620395
:10591000809361030E9470188FE39CE90197F1F76F
:1059200000C000000E9470188091E90180FF08C04B
:105930006FEF7FEF90E080E00E9423340E94260505
:1059400083E090E00E94E7330E946D0B81E091E0DC
:10595000909379048093780489EE91E0AAE0A80FEF
:10596000AAAF80918E0400E112E1853009F482C073
:105970000E947018FFECEF2EF1E0FF2E29ED31E0D0
:10598000A9EEB1E0F70191918D912E173F0709F42F
:105990007BC09817C1F3E9EECE2EE1E0DE2E10E0D9
:1059A00099249394D6010D916D01F70181917F01A6
:1059B000801721F1882E8026B12CAA24A394882D4B
:1059C0008A21A1F0BCAA1DAB0E9452059FAB8EABF1
:1059D00098AE91E0802F8A2109F490E099AF4CA90C
:1059E0005DA96EA97FA988AD0E942626B394AA0C52
:1059F000F8E0BF12E4CFF701319700831F5F1A3040
:105A000089F60E94460544C080918E04843021F1BD
:105A100010927C04E8E1F0E020E40FB6F894A89539
:105A2000E09360000FBE2093600083B7817F8460A5
:105A300083BF83B7816083BF7894889583B78E7F57
:105A400083BF0FB6F894A895809160008861809319
:105A50006000109260000FBE80918D04882351F089
:105A60000E947018E9EEF1E081918111C2C53AAD52
:105A70003E13FACF80918E04853009F4C5CF0E9481
:105A800078100E94A80574CF981385CF0E949F2993
:105A900080916D0490916E04892B09F43EC0409171
:105AA00062045091630460916404709165042FB79F
:105AB000F89480917D0490917E04A0917F04B09130
:105AC00080042FBF841B950BA60BB70B40915E047F
:105AD00050915F0460916004709161048417950790
