:100000000C94AA020C94F1020C94F1020C94F102EB
:100010000C94F1020C94F1020C94F1020C94F10294
:100020000C94F1020C94F1020C94D5210C94A922A9
:100030000C945A1C0C94F1020C94F1020C94F102F1
:100040000C94F1020C94F1020C94F1020C94F10264
:100050000C94F1020C94B11C0C94F1020C94F1027A
:100060000C94F1020C94F1020C94F1020C94F10244
:100070000C94F1020C94F1020C94F1020C94F10234
:100080000C94F1020C94F1020C94F1020C94F10224
:100090000C94F1020C94F1020C94F1020C94F10214
:1000A0000C94F1020C94F1020C94F10229001E0050
:1000B0001F00200021002200240025002B00140036
:1000C0001A000800150023001C001800E0000400BE
:1000D00016000700090017000B000D00E1001D00CD
:1000E0001B00060019000A0011001000E000E300E8
:1000F000E20091002C0005002C00000026002700E3
:100100002D004C00570056002D0200000C0012007C
:1001100013002A0024002500260000000E000F0016
:1001200033002800210022002300000036003700A1
:10013000380052001E001F00200000009000E60062
:10014000500051004F00270037000000010001005F
:100150000100010001000100010001000100010097
:100160000100010001000100010001000100010087
:100170000100010001000100010001000100010077
:100180000100010001000100010001000100010067
:100190000100010001000100010000000100010058
:1001A0000100010001000100010000000100010048
:1001B0000100010001000100010000000100010038
:1001C0000100010001000100010000000100010028
:1001D0000100010001000100010000000100010018
:1001E0000100010001000100010000000100010008
:1001F00001000100010001000100010001000100F7
:1002000001000100010001000100010001000100E6
:1002100001000100010001000100010001000100D6
:1002200001000100010001000100010001000100C6
:1002300001000100010001000100000001000100B7
:1002400001000100010001000100000001000100A7
:100250000100010001000100010000000100010097
:100260000100010001000100010000000100010087
:100270000100010001000100010000000100010077
:100280000100010001000100010000000100010067
:100290000100010001000100010001000100010056
:1002A0000100010001000100010001000100010046
:1002B0000100010001000100010001000100010036
:1002C0000100010001000100010001000100010026
:1002D0000100010001000100010000000100010017
:1002E0000100010001000100010000000100010007
:1002F00001000100010001000100000001000100F7
:1003000001000100010001000100000001000100E6
:1003100001000100010001000100000001000100D6
:1003200001000100010001000100000000000000C8
:10033000000000002A2B2800000000000000000040
:100340000000000000000029000000002C1E3420E6
:10035000212224342627252E362D3738271E1F200C
:100360002122232425263333362E37381F04050651
:100370000708090A0B0C0D0E0F1011121314151695
:100380001718191A1B1C1D2F3130232D3504050693
:100390000708090A0B0C0D0E0F1011121314151675
:1003A0001718191A1B1C1D2F3130354C0000000086
:1003B000000000000000000000000000000000003D
:1003C000000000000000000000000000000000002D
:1003D0007E0F00D4FFFFFFC7000000780E03390036
:1003E00036003700340047004C00000018036F004F
:1003F00074006100680069006E006F0073006100A6
:100400006D00650000000403090409025B0003019C
:1004100000A03209040000010301010009211101BB
:1004200000012240000705810308000A09040100B9
:10043000020300000009211101000122220007052A
:1004400082032000010705030320000109040200C4
:100450000103000000092111010001227B000705B2
:10046000840320000A120100020000000816F5743F
:10047000960100010200010660FF0961A101096205
:10048000150026FF009520750881020963150026D6
:10049000FF00952075089102C005010902A10185A0
:1004A000020901A100050919012908150025019576
:1004B00008750181020501093009311581257F95F3
:1004C000027508810609381581257F950175088117
:1004D00006050C0A38021581257F950175088106ED
:1004E000C0C005010980A101850319012AB70015C3
:1004F0000126B700950175108100C0050C0901A106
:1005000001850419012AA002150126A00295017592
:10051000108100C005010906A101050719E029E7BE
:100520001500250195087501810295017508810165
:100530000507190029FF150026FF0095067508819B
:1005400000050819012905950575019102950175A8
:10055000039101C011241FBECFEFDAE0DEBFCDBF93
:1005600004B603FE27C08091680290916902A091B1
:100570006A02B0916B028730904BA740B04BD1F428
:10058000109268021092690210926A0210926B0235
:1005900014BE84B7877F84BF0FB6F894A895809166
:1005A0006000886180936000109260000FBEE0E000
:1005B000F8E3099511E0A0E0B1E0EEE1FAE402C051
:1005C00005900D92AC39B107D9F722E0ACE9B1E062
:1005D00001C01D92A836B207E1F70E94C7130C9420
:1005E000D2240C940000089508950C94F402E82F8E
:1005F000F0E0E256FE4F808108950895FF920F9338
:100600001F93CF93DF93A1E2B1E0ED0161E070E0D1
:100610008991E82FE295EF70F0E041A18F709B0186
:1006200001C0220F8A95EAF7922F9095942391A307
:1006300082A1822B82A381E0CB32D80749F7C9E19E
:10064000D1E021E231E0AE0161E070E0FA01819198
:10065000AF01E82FE295EF70F0E0F1A08F708B0111
:1006600001C0000F8A95EAF7902F90959F2191A3E2
:1006700082A1802B82A32417350741F761E070E047
:100680008991E82FE295EF70F0E011A18F70AB0136
:1006900001C0440F8A95EAF7942F9095912391A376
:1006A00082A1842B82A32C173D0751F761E070E0F3
:1006B0008D91E82FE295EF70F0E041A18F709B01E2
:1006C00001C0220F8A95EAF7922F9095942391A367
:1006D00082A1822B82A3F1E0AB32BF0749F7E8EA9F
:1006E000F1E0AEE9B1E082EB91E011921D928E173C
:1006F0009F07D9F78AE00E948413DF91CF911F9161
:100700000F91FF900C9406052F923F925F926F928B
:100710007F928F929F92AF92BF92CF92DF92EF9291
:10072000FF920F931F93CF93DF9388EA91E02DEA16
:10073000822E21E0922E31E2E32E31E0F32EC0E052
:10074000AA24A394B12CDC017D90CD01FD0112926D
:100750001F01D7012D917D01E22FE295EF70F0E0AE
:1007600031A12F70B50101C0660F2A95EAF7232F3A
:10077000262B21A322A1D62FD0952D2322A3B0EA88
:10078000BA95F1F749E151E06A0130E020E0D60185
:100790005D906D01052D02950F7010E0D8019096C7
:1007A0000C91D1016C9010E0B52DBF7002C0159571
:1007B0000795BA95E2F710E000FD06C01A2D022E4B
:1007C00001C0110F0A94EAF71629D1011C932F5F7B
:1007D0003F4F28303105D9F621A1D223D1A322A140
:1007E000622B62A321E03C91371101C020E0C22BB3
:1007F0008816990609F0A7CF30E020E061E070E0AC
:10080000A6E2B1E0FA018191AF01E82FE295EF7025
:10081000F0E0D1A18F708B0102C0000F111F8A95EB
:10082000E2F7C8019D2F982B91A392A1809589236F
:1008300082A310EA1A95F1F7CB01022E01C0880FAE
:100840000A94EAF7C82E882E80948DEAE82E81E07B
:10085000F82E01E211E0D12CF701D1917F01F801CE
:1008600091908F01892D82958F7090E0FC0180A17D
:10087000A82EB12CE92DEF7002C0B594A794EA958B
:10088000E2F7C7010197BC2CBD2AA0FE02C0B82C1C
:10089000BD22FC01B0828081D81711F0DD24D394F1
:1008A000A017B107C9F6FA0131978081E82FE295C8
:1008B000EF70F0E0D1A18F708B0101C0000F8A951D
:1008C000EAF7902F90959D2391A382A1802B82A37C
:1008D000CD292F5F3F4F2830310509F093CF2C2FC2
:1008E0004AE06EE971E088EA91E00E9485130E9477
:1008F0000C058C2FDF91CF911F910F91FF90EF90FE
:10090000DF90CF90BF90AF909F908F907F906F902F
:100910005F903F902F9008950C94F30281E008952A
:1009200081E008950C94900408950C9494041F930E
:10093000CF93DF9300D000D00F92CDB7DEB74983BD
:100940005A836B833091B20189819A8131111DC024
:100950006623B9F02223A9F00E94210B182F682FDB
:1009600089819A810E94CC0A69817A81812F0F90B6
:100970000F900F900F900F90DF91CF911F910C94DB
:1009800099190E94F90A182FEFCF0E94210B698153
:100990007A81EDCFFC01262F4081518162817381E4
:1009A00084810C94970481E00895CF93DF93EC0148
:1009B00060E00E94CA04BE01DF91CF910C949504BF
:1009C000E1E0F0E0DF0102C0AA0FBB1F6A95E2F789
:1009D000BD01DF0102C0AA0FBB1F4A95E2F76A2BD7
:1009E00001C0EE0F2A95EAF7962F9823961302C0BE
:1009F0008E2B0895E0958E230895242F462F682F7F
:100A00008091D1010E94E0040C94890A0E946A132B
:100A10000E945A060C948C040C94F50280E00C940D
:100A20005B06089508950E94210A0E9412052FEF87
:100A300084E39CE0215080409040E1F700C000003A
:100A40000C94D51C0F931F93CF93DF938C0161E01F
:100A50000E94CA04EC01B8010E94B6168823D9F19D
:100A6000B801CE010E9492048823A9F1B801CE01F9
:100A70000E94FA1A882379F1B801CE010E94A617C4
:100A8000882349F1B801CE010E94641A882319F124
:100A9000F8018281882361F0CA35FDE5DF0721F185
:100AA00070F4C115ECE5DE07A1F0CE3DDC45C9F0E0
:100AB000C801DF91CF911F910F910C948E04CB351B
:100AC0008DE5D807A1F0CC35DD4591F70E94B90F2F
:100AD000EFCF0E94130580E0DF91CF911F910F911E
:100AE00008950E947210F7CF0E94C20FE1CF0E94BA
:100AF000C50FDECF0C9411050E94561B0E945B06A9
:100B00000C947A05DF92EF92FF920F931F93CF938D
:100B1000DF93E82FF0E0E45DFC4FD490282F26957A
:100B20002695269530E0F901E453FC4F0491877037
:100B300010E0082E02C0159507950A94E2F701709F
:100B40001127F901E454FC4FE490F12C082E02C067
:100B5000F594E7940A94E2F791E0E922FF24F90181
:100B6000E455FC4FC491D0E002C0D595C7958A9555
:100B7000E2F7C170DD270115110519F081EE0E9421
:100B8000A606E114F10419F086EE0E94A6068D2D4A
:100B90000E94A507EF2819F086EE0E943807012B66
:100BA00019F081EE0E943807CD2B51F08CE2DF91D5
:100BB000CF911F910F91FF90EF90DF900C94A507BC
:100BC000DF91CF911F910F91FF90EF90DF900895EB
:100BD000EF92FF920F931F93CF93DF93EC01162FA9
:100BE0000AE08881882309F454C0813009F04EC09E
:100BF0008981813099F47E0122E0E20EF11C8A8124
:100C00000E94A507E7012196812F815050F3EFE95B
:100C1000FFE03197F1F700C00000F7CF823041F4D8
:100C20007E0182E0E80EF11C8A810E94A606EACFCE
:100C3000833041F47E01E2E0EE0EF11C8A810E94D5
:100C40003807E0CF843011F02196DDCF2A8122963B
:100C500090E080E0AE014F5F5F4F2053330B2A30AE
:100C6000310548F0019778F2EFE9FFE03197F1F7AD
:100C700000C00000F7CF089FB001099F700D11243C
:100C8000C901860F971F2981EA01E4CF0E948205DE
:100C9000BACFDF91CF911F910F91FF90EF90089500
:100CA00060E00C94E80508950C94530681E00895E3
:100CB0000C9456060895CF93C82F0E9454068C2F8B
:100CC000CF910C945806CF93DF93CDB7DEB72B9717
:100CD0000FB6F894DEBF0FBECDBF4F83588769872C
:100CE0007A878B8761110E94070F1E821D8285E023
:100CF000FE013796DE01119601900D928A95E1F77B
:100D00008C819D81892B89F449815A816B817C81F9
:100D10008D819E810E94280E2B960FB6F894DEBF1F
:100D20000FBECDBFDF91CF91089589819A8189232C
:100D30008F3F51F3CE0101960E94D3048111E4CF7D
:100D4000EBCFFC01808191810C944E0BCF93C82F87
:100D5000882309F48BC08238C1F40E94561B81FDA0
:100D600085C089E30E94C20E0E94370F2FEF81EEEB
:100D700094E0215080409040E1F700C0000089E3FA
:100D80000E94C90ECF910C94370F8338A1F40E94B2
:100D9000561B80FD6BC083E50E94C20E0E94370F78
:100DA0002FEF81EE94E0215080409040E1F700C0A9
:100DB000000083E5E5CF8438A1F40E94561B82FD34
:100DC00055C087E40E94C20E0E94370F2FEF81EEBC
:100DD00094E0215080409040E1F700C0000087E49B
:100DE000CFCF8CEF8C0F813A90F46C2F8091020161
:100DF000909103010E94B91B882329F08C2F0E9437
:100E0000C90E0E94370F8C2F0E94C20EBBCF80E20A
:100E10008C0F883048F4C77081E001C0880FCA95F4
:100E2000EAF70E94EA0EAECFEBE5EC0FE33040F4B8
:100E3000F0E0E75AFE4F808190E0CF910C947B1B4D
:100E4000E8E5EC0FE73150F4F0E0EE0FFF1FE55D51
:100E5000FE4F80819181CF910C94911BC03F30F067
:100E60008C2F0E945714CF910C942A15CF9108957E
:100E7000882309F452C0823871F40E94561B81FF06
:100E80004CC089E30E94C20E0E94370F89E30E9482
:100E9000C90E0C94370F833859F40E94561B80FFFB
:100EA0003CC083E50E94C20E0E94370F83E5EFCF5E
:100EB000843859F40E94561B82FF2FC087E40E9499
:100EC000C20E0E94370F87E4E2CF9CEF980F913A51
:100ED000F0F290E2980F983050F4877091E001C0E2
:100EE000990F8A95EAF7892F0E94F00ED2CF9BE5E1
:100EF000980F933020F490E080E00C947B1B98E5F1
:100F0000980F973120F490E080E00C94911B803F83
:100F100020F00E94B1140C942A1508951F93CF93CA
:100F2000DF93182FEB010E94A606209731F4812F42
:100F3000DF91CF911F910C9438078FE99FE00197C3
:100F4000F1F700C000002197F0CF70E060E0893336
:100F500011F460E570E00C948E07882321F00E9464
:100F6000EA0E0C94370F0895882321F00E94F00EAA
:100F70000C94370F0895BF92CF92DF92EF92FF92B9
:100F80000F931F93CF93DF936C01D62FC72FFC01D4
:100F90001281F580F2949FE0F9220E94E00EE82E83
:100FA0008823B9F0E12E1123A1F08C2F807F8034AB
:100FB00021F080E28D0F8830B0F08091560282FDE2
:100FC00012C082E00E94880F0E94E00E91E0E82E9D
:100FD000E926BC2EB2948FE0B822EB2DF0E0EC5263
:100FE000FB4D0C946F24E12CF4CF0C2F0F70C07FBD
:100FF00011F00295007F112399F0002359F080E24F
:101000008D0F883010F0D11107C0802F0E94EA0E9A
:101010000E94370F8D2F41C0802F0E94FA0EF8CF0B
:101020008D2F0E943807002309F43FC080E28D0F06
:10103000883010F0D11104C0802F0E94F00E03C040
:10104000802F0E94000F0E94370F2FC00C2F0F70AF
:10105000C07FC03211F00295007FDD2381F0D130D6
:1010600009F469C0112309F473C0FF2009F469C0B1
:10107000F601858180FFCECF8F70858362C080911D
:10108000560282FF38C0112359F0002329F0802F27
:101090000E94EA0E0E94370F80E00E94A60605C05B
:1010A00080E00E9438070111C7CFEB2DE850FF0BFD
:1010B000349720F40E94561B0E945B06EE2009F430
:1010C0005DC10E94DC0E80FD59C1F60112820E94B2
:1010D000D60E0E949A0AC6010E94DF090E94D60E0F
:1010E000DF91CF911F910F91FF90EF90DF90CF9004
:1010F000BF900C94A50A112389F0F11006C00E943C
:101100001A0F802B0E94AD07D0CFF1E0FF12F7CF6E
:101110000E941A0F802B0E94200FC7CFF11006C02B
:101120000E942D0F802F0E94B407BFCF21E0F2163E
:1011300009F4BBCFF5CF112331F035E03F1508F4AA
:10114000B4CF802FDFCF84E08F1508F4AECFEACF85
:10115000FF2041F3D93349F4FFEF27EE33E0F1509C
:1011600020403040E1F700C000008D2F0E9438077A
:101170009CCF8C2F86958695837069F0813009F01D
:1011800094CF8D2F9C2F9370111102C090E080E0BE
:101190000E94911B8ACF8D2F9C2F9370111102C03A
:1011A00090E080E00E947B1B80CF8D2F112329F0DF
:1011B0000E9457140E942A1578CF0E94B114FACFCA
:1011C0008C2F837079F5111170CF4D2F4295469574
:1011D0004770440F440F8D2F8F70042E01C0880F6D
:1011E0000A94EAF72D2F2071D4FF07C02FE030E0DA
:1011F00001C0220F4A95EAF72095C695C695C3709F
:10120000822BC23049F058F4C13019F00E947B0A99
:101210004CCF0E94760A49CF0E94800A46CF0E9496
:10122000740A43CF8695112311F08C2F8170882387
:1012300009F43BCF4D2F429546954770440F440F1C
:101240008D2F8F70042E01C0880F0A94EAF72D2F7E
:101250002071D4FF07C02FE030E001C0220F4A9573
:10126000EAF72095C695C695C370822BC23049F027
:1012700058F4C13019F00E94C10A17CF0E94BC0A6D
:1012800014CF0E94C60A11CF0E94890A0ECFCF70D8
:10129000112329F08C2F0E949A0A8D2F33CF8D2F86
:1012A0000E94B4078C2F0E94A50AFFCED23F51F1B5
:1012B00060F4D03FB9F0D13F81F0112309F449C067
:1012C000F110A8CE8C2F8F7121C0D33F11F1D43FE4
:1012D000A1F78091560282FF26C08C2F8F711123B7
:1012E00011F314C0112349F084E08F1508F4DDCE0A
:1012F0008C2F8F710E94B10AD8CE95E09F1508F40B
:10130000D4CEF6CF8C2F8F711111CDCF0E949A0AB7
:10131000CCCE112329F08C2F8F710E94920AC5CE5A
:101320000E948F0AC2CE112349F0CF718C2F0E94E8
:101330009A0A63E08C2F0E946D0FB7CE81E00E9465
:10134000880FE1E0EF1508F0B0CE82E00E94880F30
:10135000ACCEF110FFCE8C2F8F71A5CF4C2F4F70DC
:101360006D2FC6010E9453110E947C0B9ECE4C2F04
:101370004F706D2FC6010E94561197CEDF91CF910D
:101380001F910F91FF90EF90DF90CF90BF90089545
:101390000F931F93CF93DF93EC01688179818A814A
:1013A0000E94580B8C010E94CB0A0E94730AB8015C
:1013B000CE01DF91CF911F910F910C94BB07CF937A
:1013C000DF93EC018B819C81892B29F088819981A5
:1013D00089238F3F59F4DF91CF910895CE010E9468
:1013E000C809CE01DF91CF910C94D504CE010E94A3
:1013F00022058111F3CF0E94E00E882361F38A81D8
:10140000882349F38091560282FDE5CF82E0DF9187
:10141000CF910C94880F90E080E00E947B1B90E0BD
:1014200080E00E94911B0E94070F0E94170F0E94EC
:10143000370F0E9451160C942A150E94D00E0C945E
:101440000B0A0E94F70E0C941D0AE92FE295EF702B
:10145000E250EE3070F4F0E0EC51FB4D0C946F2450
:10146000803F19F020F4883E20F481E00895843F05
:10147000E1F380E00895883EC0F3813FD1F7F5CFD6
:1014800093FB882780F90895FC01808191810E9457
:101490004E0B0C94250ACF93DF9300D000D00F920F
:1014A000CDB7DEB70F900F900F900F900F90DF9198
:1014B000CF910895CF93DF9300D000D000D0CDB767
:1014C000DEB726960FB6F894DEBF0FBECDBFDF9114
:1014D000CF91089508950C946A0A0E946B0A809334
:1014E000D2010C940B0A08950C946D0A9091D201CC
:1014F000892B0C946D0A9091D20189230C946D0A6A
:101500009091D20189270C946D0A0C946A0A0C946C
:10151000850A0E94870A8093D1010C940B0A80E00F
:101520000C94890A91E001C0990F8A95EAF7892FF6
:101530000C94890A21E030E001C0220F8A95EAF775
:101540008091D101822B0C94890A21E030E001C006
:10155000220F8A95EAF720958091D10182230C947D
:10156000890A21E030E001C0220F8A95EAF78091D4
:10157000D10182270C94890A9091D101892B0C9476
:10158000890A9091D10189230C94890A9091D10103
:1015900089270C94890A0895990F990F990F890F3B
:1015A000982F977041E001C0440F9A95EAF786950D
:1015B0008695869593E0899FF0011124ED54FE4FA6
:1015C00030E020E070E05191DF011197CB01022E55
:1015D00002C0969587950A94E2F7817081958527D8
:1015E000842385278C932F5F3F4F2330310559F794
:1015F0000895990F990F990F890F982F97708695D5
:101600008695869523E0829FF0011124ED54FE4FCC
:1016100050E040E080E0219130E0092E02C0369594
:1016200027950A94E2F721703327042E01C0220F78
:101630000A94EAF7822B4F5F5F4F4330510559F709
:101640000895CF92DF92FF920F931F93CF93DF9372
:101650006C010091D1018091D201082BC7E0D0E04C
:1016600010E0FC2EC8010C2E02C0959587950A94B7
:10167000E2F780FD0CC02197A0F7F12C8F2DDF91B0
:10168000CF911F910F91FF90DF90CF900895B601F9
:101690008C2F0E947212019771F3F0CFCF93DF93DA
:1016A000EC010E94210BBE01DF91CF910C947212CC
:1016B0001F93CF93DF93EB019091B201992331F007
:1016C000CB01DF91CF911F910C944E0B882379F0C1
:1016D000CB010E94210B182F682FCE010E94CC0A4B
:1016E000BE01812FDF91CF911F910C947212CB011B
:1016F0000E94F90A182FF4CFEF92FF920F931F93D5
:10170000CF93DF938C01892B81F0F12CEE24E394AD
:10171000E8012196F8018491843770F4843008F050
:101720005FC08130B1F08230A1F1DF91CF911F9184
:101730000F91FF90EF900895853709F44CC008F49D
:101740003DC09CE7980F903780F78F770E9438074D
:1017500049C00E5F1F4FFE01849190E2980F9830B0
:1017600060F48770FE2D01C0FF0F8A95EAF78F2F76
:101770000E940A0F0E94370F02C00E94A6068F2DFA
:10178000815030F2EFE9FFE03197F1F700C000003F
:10179000F7CF0E5F1F4FFE01849190E2980F9830B3
:1017A00050F48770FE2D01C0FF0F8A95EAF78F2F46
:1017B0000E94100FDFCF0E943807E1CF0E5F1F4F4E
:1017C000FE01C491C150D8F28FE99FE00197F1F773
:1017D00000C00000F7CF0E5F1F4FFE01F490CFCF87
:1017E0000E94A6068E01CBCF1F93CF93DF93C091AB
:1017F000D30116E08091D4018C1304C0DF91CF9106
:101800001F910895D0E01C9FF0011D9FF00D112441
:10181000EB52FE4F408151816281738184819581B9
:101820000E945A0A2196C770E5CF40910502509157
:10183000060260910702709108028091090290915E
:101840000A020C945A0AFF920F931F93CF93DF93CF
:1018500080910A02807FD1F4809107028823B1F041
:101860008091D3011091D40160910502709106021C
:10187000A0910802B0910902062F0723C091000130
:10188000D091010196E0F92E181306C0DF91CF9197
:101890001F910F91FF90089590E0109711F00F3F66
:1018A00019F401968770F0CFF89E9001F99E300DE3
:1018B0001124F901EB52FE4F41814713F2CF4081D1
:1018C0004613EFCF42814111ECCF438154814A1B33
:1018D0005B0B4C175D0728F780910A028F708061BF
:1018E00080930A02F901E652FE4F80818F70806179
:1018F000808385E092E00E94DF09DF91CF911F9104
:101900000F91FF900C94F40BAF92BF92CF92DF92A5
:10191000EF92FF920F931F93CF93DF93CDB7DEB774
:1019200061970FB6F894DEBF0FBECDBF8C0185E086
:10193000F801DE011D9601900D928A95E1F7F801FC
:10194000E28085E0C82E82E0D82E60910802709176
:1019500009026115710509F45FC19091050220919A
:101960000602892F82238F3F09F456C1408151819D
:10197000A380B480F0900702F501E61BF70BBF01CE
:10198000E0910001F0910101FF2009F4F6C080917F
:101990000A02382F307F6E177F0708F0AFC0311171
:1019A00079C0FE2C251323C0941321C0E1101FC061
:1019B0008F70806180930A020E94150CC6010E94FC
:1019C000DF0980910A02F80185838F2D61960FB699
:1019D000F894DEBF0FBECDBFDF91CF911F910F9165
:1019E000FF90EF90DF90CF90BF90AF900895AB281D
:1019F00029F0842F85238F3F09F027C180E0F82F3D
:101A0000F170DF2E80FF3CC08091D3012091D40182
:101A100036E0821315C04D875E878D859E850E94B6
:101A20004E0B292F22952F702230F0F0243018F51C
:101A30009F70F1F0F8019581907FD1F4D12C1EC0F8
:101A400090E0389FF001399FF00D1124EB52FE4FCA
:101A50006181651306C06081641303C062816E11E9
:101A60000FC001968770D5CF9F7011F0882331F396
:101A7000805E883018F3C8010E94DF09FD2CA5CFD5
:101A8000EE2009F4A2CF80910A02816080930A02BD
:101A9000F12C9BCF251306C0941304C0F801EE204F
:101AA00009F487C0C8010E94440A882319F1EE2076
:101AB00009F180910A02803270F020910502309184
:101AC000060238872F831986BB86AA868C87CE01AB
:101AD00007960E94DF0986E0F801A5E0B2E00190D8
:101AE0000D928A95E1F70E94230C0E94150CFF24A9
:101AF000F3946BCFC8010E94DF09F9CF311113C0F5
:101B00007A2DB98AA88A6E2D89890E944B0A85E0B0
:101B100092E00E94DF0986E0F60111928A95E9F7CA
:101B20000E94150CB5CF25130FC094130DC0E11002
:101B30000BC0F8018583C8010E94DF0986E0F60129
:101B400011928A95E9F741CFC8010E94440A88237F
:101B500089F2EE2079F280910A02803208F4BBCF3C
:101B600020910502309106023A8329831B82BD82AF
:101B7000AC828E83CE010196ACCF6E177F0708F042
:101B80003EC0FE2CEE2009F4B5CF25132AC09413D5
:101B900028C080910A0280FD1BC0982F907FC1F061
:101BA000F8018583903F31F0982F907F905F8F7080
:101BB000892B8583C8010E94DF0986E0F801A5E032
:101BC000B2E001900D928A95E1F70E94150CFDCECE
:101BD00086E0F801A5E0B2E001900D928A95E1F768
:101BE000F4CEC8010E94440A811175CF80910A0287
:101BF000816080930A02C8010E94DF09E6CE7A2D37
:101C0000B98AA88A6E2D89890E944B0A86E0F6015E
:101C100011928A95E9F7D9CFEE2009F46BCFC8016C
:101C20000E94440AF82E882309F464CF86E0F80164
:101C3000A5E0B2E001900D928A95E1F785E092E08F
:101C40000E94A1060E94230CC0CF81E08E25D7CE32
:101C50001F93CF93DF93CDB7DEB72C970FB6F894D1
:101C6000DEBF0FBECDBF4F83588769877A878B87CA
:101C70009C87CE0107960E94840C882369F08A8590
:101C80009B85892B39F04F815885842F85238F3F81
:101C900009F071C016E05FC086E0FE013796DE01F4
:101CA000119601900D928A95E1F78A859B85892B83
:101CB00089F38F81988589238F3F61F32091D40127
:101CC00030E0C9010196877099274091D3014817E8
:101CD000190671F40E94210A1092D4011092D301C6
:101CE00086E0E5E0F2E0DF011D928A95E9F7D2CFC8
:101CF00096E0929FD001939FB00D1124AB52BE4F3E
:101D0000FE01319601900D929A95E1F78093D401EE
:101D10000E94F40BBFCF819FC00111248B529E4FB4
:101D20000E94840C8823E9F0E091D3011E9FF0010A
:101D30001124EB52FE4F4081518162817381848175
:101D400095810E945A0A8091D30190E00196877094
:101D500099278093D3018091D3019091D401891365
:101D6000DACF2C960FB6F894DEBF0FBECDBFDF9151
:101D7000CF911F91089569857A858B859C850E94F6
:101D80005A0A88CF682F80910201909103010C9428
:101D9000EF1B682F80910201909103010C94F11BBD
:101DA00080910201909103010C94F31B80910B022E
:101DB000859585958595089580910B028770089586
:101DC00090910B02977081E009F480E00895809172
:101DD0001702089590911702892B80931702089596
:101DE000809590911702982390931702089510926E
:101DF0001702089590911602892B80931602089578
:101E0000809590911602982390931602089510924F
:101E10001602089590911502892B8093150208955A
:101E20008095909115029823909315020895109231
:101E30001502089580910C02089508950C941D0FC9
:101E40009091560292FD08C090910C02981721F0D3
:101E500080930C020C941E0F089580910C0288232D
:101E600029F010920C0280E00C941E0F0895E0916E
:101E70000201F0910301809117028083E091020139
:101E8000F0910301808190911602892B8083E0916B
:101E90000201F0910301808190911502892B8083CA
:101EA00090910C02992381F0E0910201F0910301DD
:101EB0008081892B808380910201909103010E948F
:101EC000A71B81110E942D0F8091020190910301A7
:101ED0000C94621B08950C946A0F9091560292FD27
:101EE00010C098E0899F90011124622B60930B022F
:101EF0000E949A0A80910B028595859585950C9490
:101F00006B0F0C949A0A10920B0280E00C946B0FEA
:101F100090910B028095892380930B02282F2770C4
:101F200091F4282F082E000C330B9217130659F04A
:101F30009091560292FD07C08595859585950E94E2
:101F4000A50A0C94830F08959091560292FB2227C4
:101F500020F9281769F080FB92F99093560280913E
:101F60005502909156020E94EF0F82E00C94880F68
:101F700008958091560282FB882780F991E0892795
:101F80000C94A40F81E00C94A40F80E00C94A40F97
:101F90006FEF7FEF90E080E00C94BC2490E080E055
:101FA0000E949824893E9E4F11F40C945F1680E0A5
:101FB000089582E090E00C94902483E090E00C94EB
:101FC0009024CF9384E090E00E949024C82F82E276
:101FD00090E00E949024982F8C2FCF910895CF935A
:101FE000C92F682F84E090E00E949E246C2F82E22B
:101FF00090E0CF910C949E24AB01BC018FE090E067
:102000000C94B024AB01BC0183E190E00C94B024AB
:1020100060E070E0CB010C94021060E070E0CB0156
:102020000E94FC0F0C94081069EE7EEF90E080E0B7
:102030000E94BC2460E082E090E00E949E2460E068
:1020400083E090E00E949E241092D20160E084E040
:1020500090E00E949E2460E082E290E00E949E2434
:1020600060E085E090E00E949E2460E086E090E0E1
:102070000E949E246FEF87E090E00E949E2440E043
:1020800050E0BA0188E090E00E94B02460E08DE06A
:1020900090E00E949E2440E050E0BA0188E190E088
:1020A0000E94B02460E087E190E00E949E2440E01E
:1020B00050E0BA018CE190E00E94B02470E060E052
:1020C00080E290E00E94BC2440E050E0BA0188E148
:1020D00090E00E94B02480E00E9478160E949E1634
:1020E0000C940D100C941410682F8EE090E00C945A
:1020F0009E240E94961C609327027093280280936E
:10210000290290932A026093230270932402809301
:10211000250290932602089585B7806885BF85B70C
:10212000806885BF0895089508950C9493100895CC
:102130000C9497100E948C1080E593E10E944C1B38
:102140000E9494100C94951081E008950C94A410B2
:10215000089508950E94A8100C94A9100E94811C53
:102160000E94AD160E94FE020C949810AF92BF928E
:10217000CF92DF92EF92FF920F931F93CF93DF9353
:10218000CDB7DEB72A970FB6F894DEBF0FBECDBF2E
:102190000E94840381110E94791089E1A82E82E0B7
:1021A000B82E10E000E0C02E802F0E94F702E82E2B
:1021B000F501F1905F01F81609F44DC080912B02F2
:1021C00081FD0E94FD028F2D8E25D12CFF24F394DA
:1021D000982F9F21D9F10E94A610882399F0DE82C2
:1021E000CF82EF2081E009F480E088870E948A1C7A
:1021F0008160782F9A8789874E815F8168858A857B
:102200000E946306F801E75EFD4F8081F826F082A8
:102210000E9445150E94561B90911802891791F152
:102220000E94561B809318022A960FB6F894DEBFC0
:102230000FBECDBFDF91CF911F910F91FF90EF9017
:10224000DF90CF90BF90AF900C945B06D394FF0CBF
:10225000F8E0DF12BDCF0F5F1F4F0A30110509F004
:10226000A2CF8FEF89838A831B820E948A1C8160A0
:10227000782F9D838C8349815A816B818D810E9447
:102280006306C6CF2A960FB6F894DEBF0FBECDBF49
:10229000DF91CF911F910F91FF90EF90DF90CF9042
:1022A000BF90AF90089590E080E008950895FC01FC
:1022B000EE0FFF1FE452FC4F859194910895CF9348
:1022C000DF930E947612EC01811520E5920708F059
:1022D00042C0811530E4930708F0BDC0883E9105E7
:1022E00028F5803E910508F09DC0883A910588F454
:1022F000853A910508F08FC08130910509F492C0AC
:10230000009709F48FC0049708F08CC0D0E0C0E0BB
:1023100089C08F3B910508F489C0805C9109C03C5D
:10232000D105A0F30E945711EC017CC081159042A9
:1023300050F4C11581E0D80708F074C0C03FD10542
:1023400028F3D0656FC0C11590E3D90708F079C0B4
:10235000CE019F70E7CF811525E5920758F58115CD
:1023600034E5930708F0A6C0811542E5940750F4C0
:10237000C11581E5D80708F471C0DC2FCC27C16FE7
:10238000D06A50C0982F969596959E01237033275A
:10239000C115D34508F07FC0C1E0D0E002C0CC0F2A
:1023A000DD1F2A95E2F720E2929FC0011124C82B7D
:1023B000D92B6FC0C11589E5D807A8F4C11598E5D8
:1023C000D90708F07CC0C11526E5D20708F09ECFDA
:1023D0008C2F0E940D13C82FD0E0DC2FCC27CC27E8
:1023E000DF71D0621FC0C1153AE5D30708F46CC095
:1023F000CE0190568115904208F088CF8D2F8F71B5
:102400000E940D1390E0982F882788279F719C01C8
:102410002C2BE901E6CFC55AD0E0C657DE4FC88164
:10242000D0E0D064CE01DF91CF910895C85AD0E0BA
:10243000CC0FDD1FC45ADE4F0990D881C02DD46463
:10244000F1CFCE019927D3FF03C0EC01D86CEACFBE
:10245000EC01D06CE7CFDF70D06AE4CFCE01E4E0CE
:1024600096958795EA95E1F783702C2F269526950A
:10247000237090E2299F90011124382B8C2F8370B8
:10248000C1E0D0E002C0CC0FDD1F8A95E2F7C22B7D
:10249000D32BDC68C7CFC1E0D0E002C0CC0FDD1F7A
:1024A0002A95E2F730E2939FC0011124C82BD92B63
:1024B000DA68B8CFD82FCC27C46FD06AB3CFDC2F5F
:1024C000CC27C06FD06AAECF8C2F8F700E940D13B7
:1024D00034E0D695C7953A95E1F7CF709C2FEC0183
:1024E000D069A0CF0E9499190C945F118238910590
:1024F000B1F1B0F48133910509F475C048F4893223
:10250000910509F469C08A32910509F473C00895F0
:102510008533910509F459C08933910501F1089576
:10252000833E9105A9F138F4803E9105F9F0823E91
:10253000910549F10895863E9105A9F1873E9105DF
:10254000C9F1843E910519F52091560221FF1FC063
:102550008091550284FD14C087EE90E0089520918B
:1025600055022370A1F080EE90E00895209155026D
:1025700020FD47C03091560230FF09C024FF44C0FF
:1025800090E080E004C02091550222FDF7CF08952D
:102590002091550222FD3BC03091560230FDE3CF21
:1025A00024FFF5CFEDCF2091550223FFF0CF24FD7E
:1025B000E7CFD2CF2091550223FD2CC03091560297
:1025C00031FFEECF84EE90E008952091550225FF73
:1025D000DECF89E290E008952091550225FFD7CF04
:1025E00085E390E008952091550226FFD0CF8AE23E
:1025F00090E008952091550226FFC9CF81E390E035
:10260000089589E390E0089583EE90E0089582EEC6
:1026100090E0089586EE90E008959091550292FF23
:1026200006C0282F28712830F9F4877F846093FF33
:1026300006C0282F28712831F1F4877E846120910B
:10264000560220FF06C0382F38713830D9F4877F02
:10265000816021FF06C0282F28712831D1F4877EA0
:10266000816194FD877E0895282F24712430F9F626
:102670008B7F8860DCCF282F2471243101F78B7E7B
:102680008861DDCF382F3171313019F78E7F886046
:10269000E0CF282F2171213121F78E7E8861E1CF93
:1026A00080E008950C94C80F0E9484038FE39CE996
:1026B0000197F1F700C000000E94840380E00E94AF
:1026C000F70280FF04C00E9452130C94D51C089599
:1026D0000C9454130E94CE0F811102C00E947210FC
:1026E0000E94D90F80932B020E94E10F9093560213
:1026F000809355020E9468130E94DD0F0E94740AA5
:102700008091D1010C94870A0895FF920F931F9333
:10271000CF93DF93F82E092F162FD72FC42F222304
:1027200049F081E080932E020E948A1C90932D0232
:1027300080932C0280912E028823A1F080912C029C
:1027400090912D020E94A21C059760F0EF2DF02FB2
:10275000A12FBD2FCE0FDF2FD11DEC17FD0741F4A8
:1027600010922E02DF91CF911F910F91FF9008954B
:1027700081918D93F2CF0E94AA1E0E94AE100C94FC
:10278000B61E0E94BA1E0E94B6100C94D41E0E945F
:10279000141C0E94911E0E949A100E94BB130E945A
:1027A000C1130E94AA10FBCF8091350280FF12C096
:1027B0006091090185E0689FB001112475956795C6
:1027C0007595679560387105A8F561157105A1F1DA
:1027D000862F089581FF09C06091090185E0689FF7
:1027E000B001112475956795EDCF6091090182FDC7
:1027F0000AC0809134028823D1F090910801609141
:102800000901891728F085E0689FB0011124DACF0B
:10281000869FB001112485E0869F9001879F300D2F
:102820001124692F70E0C9010E945B24CBCF65E0C1
:1028300070E0CECF8FE7089581E008958091350252
:1028400080FF0CC06091050170E0759567957595E6
:1028500067956115710549F1862F089581FF06C0BE
:102860006091050170E075956795F3CF6091050162
:1028700082FD0BC0909133029923A1F06091040175
:1028800080910501961738F0682F70E06038710567
:1028900000F38FE70895899FC001112470E00E9422
:1028A0005B24F4CF61E070E0D7CF81E00895803FF2
:1028B00031F40E94D4138195809339020895813FA9
:1028C00019F40E94D413F8CF823F31F40E94D4133C
:1028D0008195809338020895833F19F40E94D413A0
:1028E000F8CF893F29F40E941E1480933A0208957C
:1028F0008A3F21F40E941E148195F7CF8B3F31F45B
:102900000E941E14819580933B0208958C3F19F418
:102910000E941E14F8CF9CE0980F953070F4845FED
:10292000990B21E030E001C0220F8A95EAF78091EF
:102930003702822B8093370208958D3F31F48091C6
:10294000350281608093350208958E3F21F4809195
:1029500035028260F7CF8F3FB9F7809135028460EE
:10296000F1CF40913802803F59F48091390287FFBE
:102970000DC01092390241110BC01092340208C0F0
:10298000813F81F48091390218169CF3442381F031
:1029900080913A0290913B02892B09F05AC0109223
:1029A00033020895823F49F447FFF0CF1092380276
:1029B000809139028111ECCFE0CF833F19F41416D6
:1029C000ACF3E4CF90913A02893F29F41916F4F65A
:1029D00010923A02DBCF8A3F19F497FFD7CFF8CF96
:1029E00090913B028B3F29F497FFD0CF10923B028E
:1029F000CDCF8C3F19F41916CCF3C8CF9CE0980FBB
:102A0000953090F4845F990B21E030E0B90102C069
:102A1000660F771F8A95E2F7CB0180959091370278
:102A2000892380933702B2CF8D3F31F480913502F4
:102A30008E7F80933502AACF8E3F21F4809135029C
:102A40008D7FF7CF8F3F09F0A1CF809135028B7F2B
:102A5000F0CF08950E948A1C9C01909138028091C9
:102A60003902982B21F03093320220933102909159
:102A70003A0280913B02982B21F030933002209350
:102A80002F0286E392E00C946D1BEF92FF920F935E
:102A90001F93CF93DF9300D000D000D0CDB7DEB727
:102AA00086E0E6E3F2E0DE01119601900D928A9550
:102AB000E1F7E0903802F090390200913A0210916B
:102AC0003B02109238021092390210923A02109290
:102AD0003B028E2D8F2991F080913102909132022C
:102AE0000E94A21CAC0190913402992309F43FC0CA
:102AF00080910A018417150608F447C0802F812BA6
:102B000091F080912F02909130020E94A21CAC01A2
:102B100090913302992309F477C0809106018417BC
:102B2000150608F47FC08091380290913902892BF4
:102B300090913A02892B90913B02892B11F00E94CF
:102B40002A1586E0FE013196A6E3B2E001900D92CF
:102B50008A95E1F726960FB6F894DEBF0FBECDBF7B
:102B6000DF91CF911F910F91FF90EF9008952091E9
:102B70000B018AE0289F900111242417350708F0E3
:102B8000BDCF9F5F9093340202C09F3FD1F7EE20EC
:102B900059F00E94D4139FEF1E140CF491E0899F0A
:102BA000802D112480933802FF2059F00E94D41305
:102BB0009FEF1F140CF491E0899F802D11248093C6
:102BC000390230913802332309F498CF2091390229
:102BD000222309F493CF45EB3403C0011124992338
:102BE00059F09093380245EB2403900111243323CC
:102BF00039F03093390282CF81E080933802F3CFED
:102C000081E0809339027ACF209107018AE0289FE2
:102C1000900111242417350708F085CF9F5F90930A
:102C2000330202C09F3FD1F7002359F00E941E14C7
:102C30009FEF10160CF491E0899F802D1124809352
:102C40003A02112359F00E941E149FEF11160CF442
:102C500091E0899F802D112480933B0230913A02AC
:102C6000332309F460CF20913B02222309F45BCF88
:102C700045EB3403C0011124992359F090933A0293
:102C800045EB240390011124332339F030933B02A8
:102C90004ACF81E080933A02F3CF81E080933B02F8
:102CA00042CF86E0E6E3F2E0DF011D928A95E9F784
:102CB000109234021092330210923502089583E28A
:102CC00090E00E949024823289F484E290E00E9495
:102CD0009024833059F485E290E00E94902491E0A2
:102CE000843209F090E0892F8170089580E0FCCF54
:102CF000CF93C82F6FEF811162E283E290E00E94D0
:102D00009E246FEFC11163E084E290E00E949E2454
:102D10006FEFC11164E285E290E0CF910C949E24A4
:102D2000089586E290E00E949024682F70E090E081
:102D300080E0089586E290E00C949E2480E00E945A
:102D4000781660E070E0CB010E949A160E9411197B
:102D50000E94FD1981E00C9478160E9490160E9442
:102D60005F16811102C00C949E160895CF93FB014B
:102D7000C281CC2309F19C0122513F45203131050C
:102D800020F582510E940D1AC0E08C2FCF9108953A
:102D900081E00E949A0A43E062E081E00E94FD0423
:102DA000F3CF81E00E94A50A43E062E081E00E9447
:102DB000FD04EBCF82E0F6CF8031FFE59F0789F37A
:102DC00081319F45B9F3C1E0E0CF8031EFE59E0747
:102DD000F9F281319F45C9F682E0DBCF2FEFFC018C
:102DE00020830895EF92FF920F931F93CF93DF9369
:102DF000EC01062FE881E150E33108F05EC0F0E01D
:102E0000EE50FB4D0C946F24198289E08A83602F69
:102E1000CE01DF91CF911F910F91FF90EF900C9415
:102E20006A1D8981823069F0833071F08130D9F474
:102E30000E94961C0E9475246A837B838C839D83E9
:102E4000E6CF0E949116F6CF7E0182E0E80EF11CDB
:102E500010E0812F0E94F702F70181937F011F5F2D
:102E60001A30B9F7D4CF602FCE010E94EE16CFCF23
:102E700089818230C1F76A817B818C819D810E942A
:102E800075240E949A16C3CF4B816A8189810E9462
:102E9000E3189827892798279D838C83B8CF2C81A6
:102EA0003D813227232732274B816A8189810E9405
:102EB000FC18ADCF0E941119AACF8FEF8883A7CF3E
:102EC0000E94A6198983A3CF0E94A8199827892751
:102ED00098279A8389839BCF6B8170E089819A813F
:102EE000AE014C5F5F4F9827892798270E94AB1946
:102EF0008ECF6B8170E089819A81AE014C5F5F4F0C
:102F00009827892798270E94D21981CF0E94FD19FE
:102F10007ECF0E94D018D6CF6B8170E089819A81D4
:102F2000AE014C5F5F4F9827892798270E94491967
:102F30006ECF6B8170E089819A81AE014C5F5F4FEB
:102F40009827892798270E946F1961CFCF93DF9325
:102F5000EC01FB018281882309F420C1C330FDE527
:102F6000DF07C8F5CA3F9CE5D90730F49E0122501F
:102F70003C452431310598F50E94E10F90935602AB
:102F800080935502C031FCE5DF0709F4E0C008F08A
:102F900061C0C8309CE5D90709F4CBC088F5C430BE
:102FA000FCE5DF0709F4B3C0E8F4C2309CE5D907BB
:102FB00009F4A7C0809155028260C330DC4509F452
:102FC000A3C080915502909156020E94EF0F0E947B
:102FD000210A80E004C0C136EDE5DE0769F2DF9129
:102FE000CF910895809155028061C630FCE5DF07DE
:102FF00009F48AC008F48FC080915502806284C0B1
:10300000809155028D7FCC309CE5D90709F47CC0B6
:1030100070F4809155028C60CA30FCE5DF0709F43A
:1030200073C008F48AC0809155028E7F6DC0809174
:103030005502877FCE309CE5D90709F465C08091A1
:1030400055028B7FCF30DC4508F45EC0809155027D
:103050008F7E5AC0CC3FFCE5DF0709F474C040F511
:10306000C4319CE5D90709F48AC058F4C231FCE5A3
:10307000DF0709F474C008F46EC080915502837FA5
:1030800043C0CA3F9CE5D90709F449C008F04DC0C8
:10309000C531DC4509F095CF8091550282FB992717
:1030A00090F921E0922790FB82F990FB83F92CC0E4
:1030B000C1158DE5D80709F458C088F480915602EF
:1030C0008360CE3FECE5DE0769F1809156028D7F8B
:1030D000CF3FDC4538F1809156028C7F23C0C2304F
:1030E0008DE5D80709F458C008F452C0C136DD4553
:1030F00009F067CF90915502892F8F7E94FF8061F0
:1031000003C0809155028160809355025ACF80910F
:1031100055028460F9CF809155028860F5CF809187
:1031200056028160809356024CCF80915602826095
:10313000F9CF809155028064E7CF0E94210A8091E7
:1031400055028068E1CF809156028E7FEBCF80914F
:1031500055028F7DD9CF809155028F7BD5CF0E94AC
:10316000210A809155028F77CFCF80915602982FF8
:10317000909591708E7F892B90FB81F9D3CF0E941F
:10318000210A90915502892F97FB87F98058BCCF6F
:1031900081E00E94741015CF80E0FBCF81E01FCF4B
:1031A00084E0089590E1699FB001112450E0440F3C
:1031B000551F640F751F90EA899F600D711D1124C2
:1031C000CB01879608950F931F93CF93DF930E94AF
:1031D000D2188C010E949024C82FD0E0DC2FCC277D
:1031E000C80101960E9490249E01282BC901DF91FD
:1031F000CF911F910F9108950F931F93CF93DF935A
:10320000122F032F0E94D218EC01602F0E949E24DF
:10321000612FCE010196DF91CF911F910F910C94F8
:103220009E24AF92BF92CF92DF92EF92FF921F93B4
:10323000CF93DF938CEAC82E80E0D82ED0E07601C1
:10324000C0E014C0F50125913491412F6C2F8D2FD2
:103250000E94FC1882E0A80EB11C1F5F183091F785
:1032600080E1E80EF11CCF5FCA3019F0570110E081
:10327000E9CFDF5F80EAC80ED11CD43001F7DF91BF
:10328000CF911F91FF90EF90DF90CF90BF90AF90C4
:103290000895EF92FF920F931F93CF93DF93EC016A
:1032A0008A017C01E60EF71ECE018796CE15DF055A
:1032B00039F4DF91CF911F910F91FF90EF90089516
:1032C000C03822E0D20740F40E949024F8018083A5
:1032D0000F5F1F4F2196E8CFF8011082F9CFCF92F0
:1032E000DF92EF92FF920F931F93CF93DF937C01B6
:1032F0006A018C01060F171FEC01CE018796C017DB
:10330000D10749F4DF91CF911F910F91FF90EF907A
:10331000DF90CF900895C03822E0D20740F4FE013C
:10332000EE19FF09EC0DFD1D60810E949E2421967F
:10333000E4CF462F843038F47A3028F4683018F41B
:10334000672F0C94E31890E080E0089580E10895E1
:1033500089E591E00895EF92FF920F931F93CF9329
:10336000DF93EC018A017C01E60EF71ECE01895540
:103370009D4FCE15DF0539F4DF91CF911F910F914D
:10338000FF90EF900895C93521E0D20740F40E94E4
:103390009024F80180830F5F1F4F2196E7CFF8013B
:1033A0001082F9CFCF92DF92EF92FF920F931F938B
:1033B000CF93DF937C016A018C01060F171FEC018C
:1033C000CE0189559D4FC017D10749F4DF91CF91A8
:1033D0001F910F91FF90EF90DF90CF900895C93526
:1033E00021E0D20740F4FE01EE19FF09EC0DFD1DAE
:1033F00060810E949E242196E3CFCF93DF93C7EA9A
:10340000D2E060E0CE010E949E242196C11584E0A6
:10341000D807B9F7DF91CF910895DF92EF92FF922D
:103420000F931F93CF93DF9300D000D0CDB7DEB7BB
:10343000F82E8FE08F1540F08FEF93E00E949024DC
:1034400007EA12E08823C1F00F900F900F900F90C1
:10345000DF91CF911F910F91FF90EF90DF90089532
:10346000011584E0180781F3C8010E94902481119E
:1034700001C0FA940F5F1F4FF110F2CF19821A8228
:103480001B821C82DD24D39478018FEFE81AF80A9E
:10349000C8010E94902489831A828823A9F29FEF91
:1034A000980F933078F48A83D9820E5F1F4FC7013B
:1034B0000E9490248B83882339F2CE0101960E94CA
:1034C0005006E2CF8701F9CFCF93DF93EB0186312E
:1034D0009C4511F50E94E70E9A81992399F08A7A0A
:1034E00091E009F490E090933C02811109C089E2D7
:1034F0000E94C20E0E94370F80E0DF91CF910895A5
:1035000085E3F6CF80913C02811104C089E20E94DC
:10351000C90EF0CF85E3FBCF81E0EFCF0F931F9370
:10352000CF93DF93C42FD22FFC0182818823C9F06F
:1035300040933F020E948A1C90933E0280933D027A
:1035400080E28C0F883008F050C0C77081E001C065
:10355000880FCA95EAF7DF91CF911F910F910C94D4
:10356000AD0710913F02141335C080913D02909138
:103570003E020E94A21C883C910560F5C0E2CD0F7E
:103580001D17B9F080E2810F883040F4177081E098
:1035900001C0880F1A95EAF70E94B407C83048F4B2
:1035A00081E09D2F977001C0880F9A95EAF70E94DD
:1035B000AD07802F0E94A507C830B8F4D77081E00E
:1035C00001C0880FDA95EAF7DF91CF911F910F9133
:1035D0000C94B40780E28C0F883038F4C77081E017
:1035E00001C0880FCA95EAF7EFCFDF91CF911F9105
:1035F0000F9108950F939C01CB01233F4CE53407B5
:1036000059F1A8F4283DFCE53F0701F1293D4CE5BF
:103610003407D1F1273D3C4591F406E221EE41EE1D
:1036200067ED7CE50E948E1A80E00F910895253F9A
:10363000FCE53F07E9F0B0F0263F3C45F9F0FC011E
:103640008281882339F110923F02EFCF07E225EE05
:1036500045EE68ED7CE5E6CF06E221EE40EE63EF55
:103660007CE5E0CF07E225EE44EE64EF7CE5DACFBF
:1036700006E221EE42EE65EF7CE5D4CF07E225EECF
:1036800046EE66EF7CE5CECF08E221E045EE69ED3F
:103690007CE5C8CF81E0C9CF90939D0180939C01C8
:1036A000089590934502809344020895E091440266
:1036B000F0914502309721F00190F081E02D0994BE
:1036C00080E00895E0914402F0914502309721F0A6
:1036D0000280F381E02D09940895E0914402F09175
:1036E0004502309739F022E0DC012C930480F5810B
:1036F000E02D099408952091420230914302281749
:10370000390771F09093430280934202E0914402A2
:10371000F0914502309721F00680F781E02D099461
:10372000089520914002309141022817390771F025
:103730009093410280934002E0914402F09145024F
:10374000309721F00084F185E02D099408959C01C3
:103750002E5F3F4FAC01485F5F4F80E02417350775
:1037600009F40895F90191919F019923B9F38F5FAD
:10377000F5CF662349F0FC01329608962191261771
:1037800029F0E817F907D1F780E0089581E008955E
:103790009C01FC0132969FEF80E04191461751F069
:1037A0009F3F19F4411101C0982F8F5F8630A9F710
:1037B0009F3F09F40895290F311D97FD3A95F901AE
:1037C00062830895FC01329608962191261303C066
:1037D000DF0111971C92E817F907B9F708950C94C7
:1037E000C81B0C94E21B029626E0FC0111922A955C
:1037F000E9F7089508950C94FA1B811105C081E042
:10380000809346020C94FB1B82E0FACF83E0809306
:1038100046020C94FB1B0C94FD1B81E08093460236
:103820000C94FB1B0C940D1C089580915F02843056
:1038300031F10E940E051092470288E190E020E4E9
:103840000FB6F894A895809360000FBE2093600097
:1038500083B7817F846083BF83B7816083BF78949F
:10386000889583B78E7F83BF0FB6F894A895809113
:103870006000886180936000109260000FBE089520
:1038800008950895CF930E94401C0E9484030E94D3
:10389000411CC0E08C2F0E94F702811105C0CF5F50
:1038A000CA30C1F7CF91089581E0FCCF0E94210A70
:1038B0000C947C051F921FB61F9211248F939F9327
:1038C000AF93BF9380914702811113C0809157023B
:1038D00090915802A0915902B0915A024196A11DAF
:1038E000B11D8093570290935802A0935902B09350
:1038F0005A02BF91AF919F918F911F901FBE1F9051
:10390000189582E084BD93E095BD9AEF97BD8093B2
:103910006E0008952FB7F894809157029091580245
:10392000A0915902B0915A022FBF08952FB7F89471
:1039300060915702709158028091590290915A02F9
:103940002FBF08959C014FB7F89480915702909132
:103950005802A0915902B0915A024FBF821B930B9B
:10396000089578941F921FB61F9211248F939F93EE
:10397000AF93BF938091570290915802A091590242
:10398000B0915A020196A11DB11D809357029093E8
:103990005802A0935902B0935A02BF91AF919F91E0
:1039A0008F911F901FBE1F90189587E797E7909300
:1039B00001088093000888E19AE00FB6F894A89572
:1039C000809360000FBE90936000FFCF8091530200
:1039D000089508959C0184E08093E9009FEF809111
:1039E000E800915085FD06C085ED8A95F1F700004D
:1039F0009111F5CF8091E80085FF0CC050E040E0C8
:103A000066E070E0C9010E947B1F8091E8008E771C
:103A10008093E8000895CF93DF93EC0181E08093D9
:103A2000E9008FEF9091E800815095FD06C095ED7B
:103A30009A95F1F700008111F5CF8091E80085FF9C
:103A400014C050E040E068E070E0CE010E947B1FAF
:103A50008091E8008E778093E80088E0FE01ABE477
:103A6000B2E001900D928A95E1F7DF91CF91089530
:103A70008093480270934A026093490280915F02EA
:103A80008430F9F48093E9008FEF9091E800815041
:103A900095FD06C095ED9A95F1F700008111F5CFDF
:103AA0008091E80085FF0DC050E040E063E070E0E9
:103AB00088E492E00E947B1F8091E8008E778093DB
:103AC000E8000895BC0184E00C94381DBC0183E03B
:103AD0000C94381DCF93FC01603221F580915F0278
:103AE000843001F5C091E900CF702091EC00922F55
:103AF000917020FD90E8C92B82E08093E9008091CD
:103B0000E80080FF0CC050E040E060E270E0CF01D0
:103B10000E947B1F8091E8008E778093E800CF7031
:103B2000C093E900CF91089580915E02811109C090
:103B30000E945A210E94B7218091E2008460809304
:103B4000E200089510925E0208950C940D1C60919D
:103B50005B0281E0611101C080E00C94061C909131
:103B60005F0281E0943009F080E060915B020C9488
:103B70000B1C42E061EC81E00E94D62042E261EC45
:103B800084E00E94D62042E261EC82E00E94D620CE
:103B900042E260EC83E00E94D62090915F0281E0D7
:103BA000943009F080E060915B020C94FD1B8091E1
:103BB0006102833009F462C030F48130D9F182307F
:103BC00009F49EC008958A3009F48AC08B3009F444
:103BD00070C0893009F051C080916002813209F0D3
:103BE0004CC08091640290916502009719F0029791
:103BF00009F043C08091E800877F8093E8008091BE
:103C0000E80082FF36C09091F3008091F2000297A5
:103C100031F48091F100813011F0863021F48091EF
:103C2000F100809353028091E8008B778093E80045
:103C30000C940A2180916002813AF9F48091E800A5
:103C4000877F8093E8008091640290916502892BC0
:103C500061F468E08BE492E070E00E9419208091AA
:103C6000E8008B778093E800089560E090E080E0C2
:103C7000F3CF80915F028111C2CF089580916002DD
:103C8000813AD9F78091640290916502892BA9F756
:103C90008091E800877F8093E8008091E80080FFB2
:103CA000FCCF809118018093F1008091E8008E771D
:103CB000BDCF80916002813201F7809164029091C2
:103CC0006502892BD1F68091E800877F8093E80018
:103CD0000E940A2180916202809318010C94210AAB
:103CE00080916002813249F68091E800877F80935D
:103CF000E8000E940A218091630280935402089593
:103D000080916002813A09F0B8CF8091E800877F06
:103D10008093E8008091E80080FFFCCF80915402FE
:103D2000C2CF84B7877F84BF0FB6F894A8958091DF
:103D30006000886180936000109260000FBE80E890
:103D400090E00FB6F89480936100909361000FBEED
:103D50000C94121C0E945A210E94B721E2EEF0E05E
:103D600080818460808378940C9440248CE091E07E
:103D70000C94511B80915F028530A9F480915F0201
:103D8000853011F00C94561C0E94151C80915D0228
:103D90008823A1F30E94421C882381F30E94651F9F
:103DA0000E94210AEBCF0895CF93DF93CDB7DEB702
:103DB000A0970FB6F894DEBF0FBECDBF80915F0213
:103DC000843009F583E08093E9008091E80082FF68
:103DD0001AC08091E80090E085FF09C050E040E003
:103DE00060E270E0CE0101960E94CA1F91E08091CE
:103DF000E8008B778093E800992329F060E2CE01F8
:103E000001960E94F216A0960FB6F894DEBF0FBE80
:103E1000CDBFDF91CF9108950C940E1F292F33272A
:103E20002330310521F168F42130310509F443C014
:103E30002230310509F444C090E080E030E020E019
:103E400026C02132310551F122323105A9F7633004
:103E5000710590F7FB01EE0FFF1FE057FE4F208129
:103E6000318163577E4FFB01808190E010C099271C
:103E70008130910581F0009729F00297E9F6ECED89
:103E8000F3E002C0E6E0F4E0849190E09F01FA01E3
:103E9000318320830895ECEEF3E0F6CF63307105B3
:103EA00058F6660F771FFB01EA56FE4F20813181DD
:103EB00089E090E0ECCF82E190E025E634E0E7CFC6
:103EC0008BE590E02AE034E0E2CF80E189BD82E139
:103ED00089BD09B400FEFDCF8091D8008F7D80930D
:103EE000D8008091E00082608093E0008091E00043
:103EF00081FDFCCF0895AF92BF92CF92DF92FF92E7
:103F00000F931F93CF93DF936C01EB018A010E9403
:103F10002921F82E811123C00115110539F0F8016E
:103F200080819181C81BD90BC80ED91EB12CA12C40
:103F30002097A9F08091E80085FD22C08091E800DB
:103F40008E778093E80001151105A1F0F8018081BA
:103F50009181A80EB91EB182A08285E0F82E8F2D26
:103F6000DF91CF911F910F91FF90DF90CF90BF9085
:103F7000AF9008950E9429218823D1F2F82EEFCF27
:103F8000F60181916F018093F1002197FFEFAF1A45
:103F9000BF0ACECFAF92BF92CF92DF92FF920F9324
:103FA0001F93CF93DF936C01EB018A010E942921BB
:103FB000F82E811123C00115110539F0F801808117
:103FC0009181C81BD90BC80ED91EB12CA12C2097EA
:103FD000A9F08091E80085FD22C08091E8008B77F0
:103FE0008093E80001151105A1F0F801808191810D
:103FF000A80EB91EB182A08285E0F82E8F2DDF9128
:10400000CF911F910F91FF90DF90CF90BF90AF9015
:1040100008950E9429218823D1F2F82EEFCF8091B4
:10402000F100F60181936F012197FFEFAF1ABF0AEC
:10403000CECFFC01809166029091670286179707A8
:10404000A0F06115710529F49091E8009E77909396
:10405000E80090E06115710551F4911108C080915C
:10406000E80082FF34C080E00895BC01F2CF809167
:104070005F028823C1F18530C1F18091E80083FDA2
:1040800030C08091E80082FDEACF8091E80080FF97
:10409000E1CF8091F3002091F200382F6115710576
:1040A00019F02830310558F091E02830310509F039
:1040B00090E02091E8002E772093E800CBCF81910B
:1040C0008093F100615071092F5F3F4FE7CF8091DE
:1040D0005F02882341F0853041F08091E80083FF42
:1040E000BECF81E0089582E0089583E00895FC0149
:1040F000809166029091670286179707A0F061157C
:10410000710529F48091E8008E778093E80090E0B3
:104110006115710551F4911108C08091E80082FF8A
:1041200035C080E00895BC01F2CF80915F02882302
:10413000C9F18530C9F18091E80083FD31C08091DB
:10414000E80082FDEACF8091E80080FFE1CF809116
:10415000F3002091F200382F6115710519F0283015
:10416000310558F091E02830310509F090E0809158
:10417000E8008E778093E800CBCF84918093F100A4
:104180003196615071092F5F3F4FE6CF80915F02FA
:10419000882341F0853041F08091E80083FFBDCF56
:1041A00081E0089582E0089583E00895982F973084
:1041B00028F08F708093E90081E008959093E900E2
:1041C000242F762F50E0981731F07091EC00209159
:1041D000ED005091F00021FD02C09F5FE8CF3091CB
:1041E000EB003E7F3093EB003091ED003D7F30934C
:1041F000ED003091EB0031603093EB007093EC00F8
:104200002093ED005093F0002091EE0027FDE5CFC4
:1042100080E008958091600287FF13C08091E800DC
:1042200082FF06C08091E8008B778093E80004C08D
:1042300080915F028111F2CF089580915F028823FF
:10424000D9F38091E80080FFF8CF8091E8008E7765
:10425000ECCF2091E4003091E50095E6A901209192
:10426000EC00822F817020FF06C08091E80080FF63
:1042700006C080E008952091E80022FD1AC08091D8
:104280005F02882389F0853089F08091EB0085FDFD
:104290000FC02091E4003091E50042175307F9F276
:1042A0009150E1F684E0089582E0089583E0089556
:1042B00081E008950E94C8210E94D021E0EEF0E044
:1042C000808181608083E8EDF0E080818F7780835A
:1042D00019BCA7EDB0E08C918E7F8C9380818F7E8E
:1042E000808310925E0208950F931F93CF93DF9304
:1042F0000E94C8210E94D021C8EDD0E088818F772C
:10430000888388818068888388818F7D888319BCB1
:1043100010925F0210925B0210925D0210925C029A
:1043200000EE10E0F80180818B7F808388818160BE
:10433000888342E060E080E00E94D620E1EEF0E079
:1043400080818E7F8083E2EEF0E0808181608083D7
:10435000808188608083F80180818E7F808388815E
:1043600080618883DF91CF911F910F910895E8EDCF
:10437000F0E080818F7E8083E7EDF0E080818160D6
:10438000808384E082BF81E080935E020C9474217C
:10439000E8EDF0E080818E7F80831092E200089546
:1043A0001092DA001092E10008951F920F920FB65A
:1043B0000F9211242F933F934F935F936F937F93AB
:1043C0008F939F93AF93BF93EF93FF938091E100FF
:1043D00082FF0BC08091E20082FF07C08091E10064
:1043E0008B7F8093E1000E943F248091DA0080FF60
:1043F00019C08091D80080FF15C08091DA008E7FAF
:104400008093DA008091D90080FF96C080E189BD59
:1044100082E189BD09B400FEFDCF81E080935F0297
:104420000E94941D8091E10080FF19C08091E200FC
:1044300080FF15C08091E2008E7F8093E200809122
:10444000E20080618093E2008091D80080628093D6
:10445000D80019BC85E080935F020E94A71D80915F
:10446000E10084FF2BC08091E20084FF27C080E13F
:1044700089BD82E189BD89B5982F917080FFFBCFFE
:104480008091D8008F7D8093D8008091E1008F7E4D
:104490008093E1008091E2008F7E8093E200809122
:1044A000E20081608093E20080915B02882309F43E
:1044B00049C084E080935F020E94AF1D8091E100BB
:1044C00083FF29C08091E20083FF25C08091E10035
:1044D000877F8093E10082E080935F0210925B020D
:1044E0008091E1008E7F8093E1008091E2008E7FD9
:1044F0008093E2008091E20080618093E20042E0DC
:1045000060E080E00E94D6208091F0008860809377
:10451000F0000E94A51DFF91EF91BF91AF919F9177
:104520008F917F916F915F914F913F912F910F905C
:104530000FBE0F901F90189519BC10925F020E9439
:10454000A21D70CF8091E30087FD93E090935F02FE
:10455000B3CF1F920F920FB60F9211242F933F9358
:104560004F935F936F937F938F939F93AF93BF937B
:10457000CF93DF93EF93FF93D091E900DF708091A9
:10458000EC00C82FC17080FDC0E81092E900809156
:10459000F000877F8093F00078940E94ED221092C3
:1045A000E9008091F00088608093F000CD2BCF70FF
:1045B000C093E900FF91EF91DF91CF91BF91AF914F
:1045C0009F918F917F916F915F914F913F912F912B
:1045D0000F900FBE0F901F9018951F93CF93DF93EE
:1045E000CDB7DEB7AA970FB6F894DEBF0FBECDBF2A
:1045F00080E692E02091F100FC012193CF01F2E0EE
:1046000088369F07B9F70E94D71D8091E80083FF85
:104610001EC180916002909161029A3008F017C12A
:10462000E92FF0E0EB5FFA4D0C946F24803899F09D
:10463000823809F00CC1809164028F70873008F0D5
:1046400006C18093E9008091EB0085FB882780F903
:104650001092E90006C080915C0290915D02911178
:1046600082609091E800977F9093E8008093F1003A
:104670001092F1008091E8008E77E5C0882309F45C
:10468000D3C0823009F0E3C0809162028111D6C0AC
:10469000809164028F702FEF280F263008F0D7C06A
:1046A0008093E9002091EB0020FFC8C0933031F4E3
:1046B0008091EB0080628093EB00C0C09091EB0092
:1046C00090619093EB0021E030E001C0220F8A95C9
:1046D000EAF72093EA001092EA008091EB008860EC
:1046E000EACF8111B4C0109162021F778091E3007C
:1046F0008078812B8093E3008091E800877F80930E
:10470000E8000E940A218091E80080FFFCCF8091A0
:10471000E30080688093E30082E0111183E08093DE
:104720005F0295C08058823008F091C0809162028B
:10473000909163028C3D23E09207A1F583E08A8388
:104740008AE289834FB7F894DE01139620E03EE0B9
:1047500051E2E32FF0E050935700E49120FF03C0B3
:10476000E295EF703F5FEF708E2F90E0EA30C0F07F
:10477000C7968D939D932F5F243159F74FBF80913A
:10478000E800877F8093E8006AE270E0CE0101963E
:104790000E9419208091E8008B778093E80057C031
:1047A000C096E7CF6091640270916502AE014F5FE1
:1047B0005F4F0E940C1FBC01892B09F448C09091E7
:1047C000E800977F9093E80089819A810E94772082
:1047D000E1CF8038E1F58091E800877F8093E800A1
:1047E00080915B028093F10045CF811130C09091A0
:1047F0006202923060F58091E800877F8093E80044
:1048000090935B020E940A2180915B02882311F041
:1048100084E005C08091E30087FDFACF81E08093BA
:104820005F020E94B91D13C080916202813079F449
:1048300081E0933009F080E080935D021092E900FE
:104840008091E800877F8093E8000E940A21809190
:10485000E80083FF0AC08091E800877F8093E8002A
:104860008091EB0080628093EB00AA960FB6F894DB
:10487000DEBF0FBECDBFDF91CF911F910895089588
:10488000CF9380915F028823A1F0C091E900CF709F
:104890009091EC00892F817090FD80E8C82B1092D8
:1048A000E9008091E80083FD0E94ED22CF70C09363
:1048B000E900CF91089597FB072E16F4009407D0D6
:1048C00077FD09D00E947C2407FC05D03EF490952A
:1048D00081959F4F0895709561957F4F0895EE0FD4
:1048E000FF1F0590F491E02D099469279627692709
:1048F0007827872778270895AA1BBB1B51E107C09B
:10490000AA1FBB1FA617B70710F0A61BB70B881F5F
:10491000991F5A95A9F780959095BC01CD010895EE
:10492000F999FECF92BD81BDF89A992780B5089577
:10493000A8E1B0E042E050E00C94C424262FF9999D
:10494000FECF92BD81BDF89A019700B4021639F0EE
:104950001FBA20BD0FB6F894FA9AF99A0FBE0895BF
:104960000396272F0E949F240E949E24252F0E9499
:104970009F24242F0C949F240196272F0E949F246C
:104980000C949E24DC01CB01FC01F999FECF06C0FA
:10499000F2BDE1BDF89A319600B40D9241505040FD
:1049A000B8F70895F894FFCFF507F507260826080D
:1049B000B908D50855085508E008470956095609A9
:1049C000AE0955085508B709300A300A390A390ABC
:1049D0003B0A390A390A390A300A300A400A390AC8
:1049E000390A400A04171117381744174F175A1776
:1049F0005D175D175D175D175D17601764176C17FE
:104A00007917861789178C17991716233E232724A1
:0E4A10003E232724712392232724E923F52334
:104A1E00C8000D022808641E140A321EE61C0B1D67
:104A2E00EA1C661D621DE91C01F4F5F6F7313332FE
:104A3E00C691909466970000000000E200E900EA3B
:104A4E0000B500B600B700CD008301CC008A0192FC
:104A5E000194012102230224022502260227022AA2
:104A6E0002B300B4006F007000818283E200E9009F
:104A7E00EA00B500B600B700CD008301CC008A0174
:104A8E00920194012102230224022502260227020A
:104A9E002A02B300B4006F00700081828340227B33
:0C4AAE001405770499041C043504550419
:00000001FF
