:100000000C94AA020C94F1020C94F1020C94F102EB
:100010000C94F1020C94F1020C94F1020C94F10294
:100020000C94F1020C94F1020C94BE240C949225D1
:100030000C94431F0C94F1020C94F1020C94F10205
:100040000C94F1020C94F1020C94F1020C94F10264
:100050000C94F1020C949A1F0C94F1020C94F1028E
:100060000C94F1020C94F1020C94F1020C94F10244
:100070000C94F1020C94F1020C94F1020C94F10234
:100080000C94F1020C94F1020C94F1020C94F10224
:100090000C94F1020C94F1020C94F1020C94F10214
:1000A0000C94F1020C94F1020C94F10229001E0050
:1000B0001F00200021002200240025002B00140036
:1000C0001A000800150023001C001800E0000400BE
:1000D00016000700090017000B000D00E1001D00CD
:1000E0001B00060019000A0011001000E000E300E8
:1000F000E20091002C0005002C00000026002700E3
:100100002D004C00570056002D0200000C0012007C
:1001100013002A0024002500260000000E000F0016
:1001200033002800210022002300000036003700A1
:10013000380052001E001F00200000009000E60062
:10014000500051004F00270037000000010001005F
:100150000100010001000100010001000100010097
:100160000100010001000100010001000100010087
:100170000100010001000100010001000100010077
:100180000100010001000100010001000100010067
:100190000100010001000100010000000100010058
:1001A0000100010001000100010000000100010048
:1001B0000100010001000100010000000100010038
:1001C0000100010001000100010000000100010028
:1001D0000100010001000100010000000100010018
:1001E0000100010001000100010000000100010008
:1001F00001000100010001000100010001000100F7
:1002000001000100010001000100010001000100E6
:1002100001000100010001000100010001000100D6
:1002200001000100010001000100010001000100C6
:1002300001000100010001000100000001000100B7
:1002400001000100010001000100000001000100A7
:100250000100010001000100010000000100010097
:100260000100010001000100010000000100010087
:100270000100010001000100010000000100010077
:100280000100010001000100010000000100010067
:100290000100010001000100010001000100010056
:1002A0000100010001000100010001000100010046
:1002B0000100010001000100010001000100010036
:1002C0000100010001000100010001000100010026
:1002D0000100010001000100010000000100010017
:1002E0000100010001000100010000000100010007
:1002F00001000100010001000100000001000100F7
:1003000001000100010001000100000001000100E6
:1003100001000100010001000100000001000100D6
:1003200001000100010001000100000000000000C8
:10033000000000002A2B2800000000000000000040
:100340000000000000000029000000002C1E3420E6
:10035000212224342627252E362D3738271E1F200C
:100360002122232425263333362E37381F04050651
:100370000708090A0B0C0D0E0F1011121314151695
:100380001718191A1B1C1D2F3130232D3504050693
:100390000708090A0B0C0D0E0F1011121314151675
:1003A0001718191A1B1C1D2F3130354C0000000086
:1003B000000000000000000000000000000000003D
:1003C000000000000000000000000000000000002D
:1003D0007E0F00D4FFFFFFC7000000780E03390036
:1003E00036003700340047004C00000018036F004F
:1003F00074006100680069006E006F0073006100A6
:100400006D00650000000403090409025B0003019C
:1004100000A03209040000010301010009211101BB
:1004200000012240000705810308000A09040100B9
:10043000020300000009211101000122220007052A
:1004400082032000010705030320000109040200C4
:100450000103000000092111010001227B000705B2
:10046000840320000A120100020000000816F5743F
:10047000960100010200010660FF0961A101096205
:10048000150026FF009520750881020963150026D6
:10049000FF00952075089102C005010902A10185A0
:1004A000020901A100050919012908150025019576
:1004B00008750181020501093009311581257F95F3
:1004C000027508810609381581257F950175088117
:1004D00006050C0A38021581257F950175088106ED
:1004E000C0C005010980A101850319012AB70015C3
:1004F0000126B700950175108100C0050C0901A106
:1005000001850419012AA002150126A00295017592
:10051000108100C005010906A101050719E029E7BE
:100520001500250195087501810295017508810165
:100530000507190029FF150026FF0095067508819B
:1005400000050819012905950575019102950175A8
:10055000039101C011241FBECFEFDAE0DEBFCDBF93
:1005600004B603FE27C080919A0290919B02A0914D
:100570009C02B0919D028730904BA740B04BD1F4C4
:1005800010929A0210929B0210929C0210929D026D
:1005900014BE84B7877F84BF0FB6F894A895809166
:1005A0006000886180936000109260000FBEE0E000
:1005B000F8E3099511E0A0E0B1E0ECE9F5E502C04F
:1005C00005900D92A43AB107D9F722E0A4EAB1E070
:1005D00001C01D92AA39B207E1F70E943E140C94A3
:1005E000912A0C940000089508950C94F402E82FC9
:1005F000F0E0EA55FE4F808108950895FF920F9331
:100600001F93CF93DF93A4E2B1E0ED0161E070E0CE
:100610008991E82FE295EF70F0E041A18F709B0186
:1006200001C0220F8A95EAF7922F9095942391A307
:1006300082A1822B82A381E0CE32D80749F7CCE198
:10064000D1E024E231E0AE0161E070E0FA01819195
:10065000AF01E82FE295EF70F0E0F1A08F708B0111
:1006600001C0000F8A95EAF7902F90959F2191A3E2
:1006700082A1802B82A32417350741F761E070E047
:100680008991E82FE295EF70F0E011A18F70AB0136
:1006900001C0440F8A95EAF7942F9095912391A376
:1006A00082A1842B82A32C173D0751F761E070E0F3
:1006B0008D91E82FE295EF70F0E041A18F709B01E2
:1006C00001C0220F8A95EAF7922F9095942391A367
:1006D00082A1822B82A3F1E0AE32BF0749F7E0EBA3
:1006E000F1E0A6EAB1E08AEB91E011921D928E173B
:1006F0009F07D9F78AE00E94FB13DF91CF911F91EA
:100700000F91FF900C9466052F923F925F926F922B
:100710007F928F929F92AF92BF92CF92DF92EF9291
:10072000FF920F931F93CF93DF9380EB91E025EB24
:10073000822E21E0922E34E2E32E31E0F32EC0E04F
:10074000AA24A394B12CDC017D90CD01FD0112926D
:100750001F01D7012D917D01E22FE295EF70F0E0AE
:1007600031A12F70B50101C0660F2A95EAF7232F3A
:10077000262B21A322A1D62FD0952D2322A3B0EA88
:10078000BA95F1F74CE151E06A0130E020E0D60182
:100790005D906D01052D02950F7010E0D8019096C7
:1007A0000C91D1016C9010E0B52DBF7002C0159571
:1007B0000795BA95E2F710E000FD06C01A2D022E4B
:1007C00001C0110F0A94EAF71629D1011C932F5F7B
:1007D0003F4F28303105D9F621A1D223D1A322A140
:1007E000622B62A321E03C91371101C020E0C22BB3
:1007F0008816990609F0A7CF30E020E061E070E0AC
:10080000A9E2B1E0FA018191AF01E82FE295EF7022
:10081000F0E0D1A18F708B0102C0000F111F8A95EB
:10082000E2F7C8019D2F982B91A392A1809589236F
:1008300082A310EA1A95F1F7CB01022E01C0880FAE
:100840000A94EAF7C82E882E809485EBE82E81E082
:10085000F82E04E211E0D12CF701D1917F01F801CB
:1008600091908F01892D82958F7090E0FC0180A17D
:10087000A82EB12CE92DEF7002C0B594A794EA958B
:10088000E2F7C7010197BC2CBD2AA0FE02C0B82C1C
:10089000BD22FC01B0828081D81711F0DD24D394F1
:1008A000A017B107C9F6FA0131978081E82FE295C8
:1008B000EF70F0E0D1A18F708B0101C0000F8A951D
:1008C000EAF7902F90959D2391A382A1802B82A37C
:1008D000CD292F5F3F4F2830310509F093CF2C2FC2
:1008E0004AE066EA71E080EB91E00E94FC130E940E
:1008F0006C058C2FDF91CF911F910F91FF90EF909E
:10090000DF90CF90BF90AF909F908F907F906F902F
:100910005F903F902F9008950C94F3029C013A95BC
:1009200021153F4150F5FC01EE27F170BC0166270F
:100930007270AC01442754709C012227387094FFD8
:100940000EC080E1EF2B09F480E0672B09F0806294
:10095000452B09F08064232B89F08068089581E09D
:10096000EF2B09F480E0672B09F08260452B09F03A
:100970008460232B19F08860089580E00895CF9358
:10098000DF93EC010E948E049E01205E3109283025
:10099000310510F0209739F40E9416088C2FDF9152
:1009A000CF910C940F070E94740AF8CFCF93DF9376
:1009B000EC010E94A107CE010E948E049E01205EE0
:1009C00031092830310510F0CD2B21F4DF91CF9182
:1009D0000C941D08DF91CF910C947B0A81E008955F
:1009E00081E008950C94F00408950C94F4041F938E
:1009F000CF93DF9300D000D00F92CDB7DEB74983FD
:100A00005A836B833091BA0189819A8131111DC05B
:100A10006623B9F02223A9F00E94980B182F682FA3
:100A200089819A810E94430B69817A81812F0F907D
:100A30000F900F900F900F90DF91CF911F910C941A
:100A4000821C0E94700B182FEFCF0E94980B6981B7
:100A50007A81EDCFFC01262F408151816281738123
:100A600084810C94F70481E00895CF93DF93EC0127
:100A700060E00E942A05BE01DF91CF910C94F5043D
:100A8000E1E0F0E0DF0102C0AA0FBB1F6A95E2F7C8
:100A9000BD01DF0102C0AA0FBB1F4A95E2F76A2B16
:100AA00001C0EE0F2A95EAF7962F9823961302C0FD
:100AB0008E2B0895E0958E230895242F462F682FBE
:100AC0008091D9010E9440050C94000B0E94E11313
:100AD0000E94C3060C948C040E94651A0C94F502C3
:100AE00080E00C94C406089508950E94980A0E941C
:100AF00074052FEF84E39CE0215080409040E1F7A3
:100B000000C000000C94BE1F0F931F93CF93DF9380
:100B10008C0161E00E942A05EC01B8010E942D17AA
:100B2000882309F441C0B801CE010E94F204882351
:100B3000D9F1B801CE010E94C71A8823A9F1B801E2
:100B4000CE010E94E31D882379F1B801CE010E94F5
:100B50001D18882349F1B801CE010E944D1D88233C
:100B600019F1F8018281882361F0CA35FDE5DF07BC
:100B700021F170F4C115ECE5DE07A1F0CE3DDC45B6
:100B8000C9F0C801DF91CF911F910F910C94EE0431
:100B9000CB358DE5D807A1F0CC35DD4591F70E9426
:100BA0003010EFCF0E94750580E0DF91CF911F914B
:100BB0000F9108950E94E910F7CF0E943910E1CFFC
:100BC0000E943C10DECF0C9473050E943F1E0E94D1
:100BD000C4060C94E305DF92EF92FF920F931F93EC
:100BE000CF93DF93E82FF0E0E45DFC4FD490282F03
:100BF00026952695269530E0F901E453FC4F0491A3
:100C0000877010E0082E02C0159507950A94E2F748
:100C100001701127F901E454FC4FE490F12C082EE7
:100C200002C0F594E7940A94E2F791E0E922FF24E8
:100C3000F901E455FC4FC491D0E002C0D595C795A9
:100C40008A95E2F7C170DD270115110519F081EED3
:100C50000E940F07E114F10419F086EE0E940F07BD
:100C60008D2D0E940E08EF2819F086EE0E94A10734
:100C7000012B19F081EE0E94A107CD2B51F08CE2DF
:100C8000DF91CF911F910F91FF90EF90DF900C9427
:100C90000E08DF91CF911F910F91FF90EF90DF90A1
:100CA0000895EF92FF920F931F93CF93DF93EC0180
:100CB000162F0AE08881882309F454C0813009F096
:100CC0004EC08981813099F47E0122E0E20EF11C50
:100CD0008A810E940E08E7012196812F815050F3EE
:100CE000EFE9FFE03197F1F700C00000F7CF823065
:100CF00041F47E0182E0E80EF11C8A810E940F0718
:100D0000EACF833041F47E01E2E0EE0EF11C8A81ED
:100D10000E94A107E0CF843011F02196DDCF2A8117
:100D2000229690E080E0AE014F5F5F4F2053330B7F
:100D30002A30310548F0019778F2EFE9FFE031976A
:100D4000F1F700C00000F7CF089FB001099F700DB8
:100D50001124C901860F971F2981EA01E4CF0E945F
:100D6000EB05BACFDF91CF911F910F91FF90EF90DC
:100D7000089560E00C94510608950C94BC0681E03F
:100D800008950C94BF060895CF93C82F0E94BD0606
:100D90008C2FCF910C94C106CF93DF93CDB7DEB7E4
:100DA0002B970FB6F894DEBF0FBECDBF4F83588789
:100DB00069877A878B8761110E947E0F1E821D8250
:100DC00085E0FE013796DE01119601900D928A951D
:100DD000E1F78C819D81892B89F449815A816B814E
:100DE0007C818D819E810E949F0E2B960FB6F89478
:100DF000DEBF0FBECDBFDF91CF91089589819A816B
:100E000089238F3F51F3CE0101960E943305811152
:100E1000E4CFEBCFFC01808191810C94C50BCF9383
:100E2000C82F882309F48BC08238C1F40E943F1E6A
:100E300081FD85C089E30E94390F0E94AE0F2FEF1C
:100E400081EE94E0215080409040E1F700C0000026
:100E500089E30E94400FCF910C94AE0F8338A1F428
:100E60000E943F1E80FD6BC083E50E94390F0E94E7
:100E7000AE0F2FEF81EE94E0215080409040E1F7DB
:100E800000C0000083E5E5CF8438A1F40E943F1E36
:100E900082FD55C087E40E94390F0E94AE0F2FEFEC
:100EA00081EE94E0215080409040E1F700C00000C6
:100EB00087E4CFCF8CEF8C0F813A90F46C2F809128
:100EC0000201909103010E94A21E882329F08C2F19
:100ED0000E94400F0E94AE0F8C2F0E94390FBBCF93
:100EE00080E28C0F883048F4C77081E001C0880F21
:100EF000CA95EAF70E94610FAECFEBE5EC0FE33045
:100F000040F4F0E0E45AFE4F808190E0CF910C94E1
:100F1000641EE8E5EC0FE73150F4F0E0EE0FFF1F40
:100F2000E25DFE4F80819181CF910C947A1EC03F8B
:100F300030F08C2F0E94CE14CF910C94A115CF913C
:100F40000895882309F452C0823871F40E943F1E2C
:100F500081FF4CC089E30E94390F0E94AE0F89E3E4
:100F60000E94400F0C94AE0F833859F40E943F1E2C
:100F700080FF3CC083E50E94390F0E94AE0F83E5DD
:100F8000EFCF843859F40E943F1E82FF2FC087E4C0
:100F90000E94390F0E94AE0F87E4E2CF9CEF980FBA
:100FA000913AF0F290E2980F983050F4877091E007
:100FB00001C0990F8A95EAF7892F0E94670FD2CF57
:100FC0009BE5980F933020F490E080E00C94641E31
:100FD00098E5980F973120F490E080E00C947A1E09
:100FE000803F20F00E9428150C94A11508951F93AE
:100FF000CF93DF93182FEB010E940F07209731F456
:10100000812FDF91CF911F910C94A1078FE99FE071
:101010000197F1F700C000002197F0CF70E060E089
:10102000893311F460E570E00C94F707882321F010
:101030000E94610F0C94AE0F0895882321F00E9446
:10104000670F0C94AE0F0895BF92CF92DF92EF928C
:10105000FF920F931F93CF93DF936C01D62FC72F6F
:10106000FC011281F580F2949FE0F9220E94570F53
:10107000E82E8823B9F0E12E1123A1F08C2F807F78
:10108000803421F080E28D0F8830B0F080918802AA
:1010900082FD12C082E00E94FF0F0E94570F91E074
:1010A000E82EE926BC2EB2948FE0B822EB2DF0E0BA
:1010B000ED56F54D0C945827E12CF4CF0C2F0F7002
:1010C000C07F11F00295007F112399F0002359F0A1
:1010D00080E28D0F883010F0D11107C0802F0E9460
:1010E000610F0E94AE0F8D2F41C0802F0E94710FA3
:1010F000F8CF8D2F0E94A107002309F43FC080E2A2
:101100008D0F883010F0D11104C0802F0E94670F1E
:1011100003C0802F0E94770F0E94AE0F2FC00C2FAC
:101120000F70C07FC03211F00295007FDD2381F087
:10113000D13009F469C0112309F473C0FF2009F408
:1011400069C0F601858180FFCECF8F70858362C034
:101150008091880282FF38C0112359F0002329F0C2
:10116000802F0E94610F0E94AE0F80E00E940F0747
:1011700005C080E00E94A1070111C7CFEB2DE85008
:10118000FF0B349720F40E943F1E0E94C406EE20FD
:1011900009F45DC10E94530F80FD59C1F60112820E
:1011A0000E944D0F0E94110BC6010E94480A0E9426
:1011B0004D0FDF91CF911F910F91FF90EF90DF9036
:1011C000CF90BF900C941C0B112389F0F11006C036
:1011D0000E94910F802B0E941608D0CFF1E0FF12E1
:1011E000F7CF0E94910F802B0E94970FC7CFF1106D
:1011F00006C00E94A40F802F0E941D08BFCF21E0CF
:10120000F21609F4BBCFF5CF112331F035E03F15CD
:1012100008F4B4CF802FDFCF84E08F1508F4AECF71
:10122000EACFFF2041F3D93349F4FFEF27EE33E053
:10123000F15020403040E1F700C000008D2F0E94A7
:10124000A1079CCF8C2F86958695837069F081309D
:1012500009F094CF8D2F9C2F9370111102C090E054
:1012600080E00E947A1E8ACF8D2F9C2F93701111DF
:1012700002C090E080E00E94641E80CF8D2F112379
:1012800029F00E94CE140E94A11578CF0E94281543
:10129000FACF8C2F837079F5111170CF4D2F4295B5
:1012A00046954770440F440F8D2F8F70042E01C058
:1012B000880F0A94EAF72D2F2071D4FF07C02FE082
:1012C00030E001C0220F4A95EAF72095C695C695F1
:1012D000C370822BC23049F058F4C13019F00E941B
:1012E000F20A4CCF0E94ED0A49CF0E94F70A46CF7E
:1012F0000E94EB0A43CF8695112311F08C2F817049
:10130000882309F43BCF4D2F429546954770440FF3
:10131000440F8D2F8F70042E01C0880F0A94EAF7B6
:101320002D2F2071D4FF07C02FE030E001C0220F25
:101330004A95EAF72095C695C695C370822BC230B0
:1013400049F058F4C13019F00E94380B17CF0E94B1
:10135000330B14CF0E943D0B11CF0E94000B0ECF18
:10136000CF70112329F08C2F0E94110B8D2F33CFBA
:101370008D2F0E941D088C2F0E941C0BFFCED23F88
:1013800051F160F4D03FB9F0D13F81F0112309F45D
:1013900049C0F110A8CE8C2F8F7121C0D33F11F11D
:1013A000D43FA1F78091880282FF26C08C2F8F71D5
:1013B000112311F314C0112349F084E08F1508F4B0
:1013C000DDCE8C2F8F710E94280BD8CE95E09F1513
:1013D00008F4D4CEF6CF8C2F8F711111CDCF0E948F
:1013E000110BCCCE112329F08C2F8F710E94090B89
:1013F000C5CE0E94060BC2CE112349F0CF718C2FAF
:101400000E94110B63E08C2F0E94E40FB7CE81E0A5
:101410000E94FF0FE1E0EF1508F0B0CE82E00E94DD
:10142000FF0FACCEF110FFCE8C2F8F71A5CF4C2FBC
:101430004F706D2FC6010E94CA110E94F30B9ECE01
:101440004C2F4F706D2FC6010E94CD1197CEDF91AA
:10145000CF911F910F91FF90EF90DF90CF90BF90B1
:1014600008950F931F93CF93DF93EC0168817981E7
:101470008A810E94CF0B8C010E94420B0E94EA0AD3
:10148000B801CE01DF91CF911F910F910C942408E8
:10149000CF93DF93EC018B819C81892B29F088818C
:1014A000998189238F3F59F4DF91CF910895CE011F
:1014B0000E94310ACE01DF91CF910C943505CE0107
:1014C0000E9484058111F3CF0E94570F882361F396
:1014D0008A81882349F38091880282FDE5CF82E0EA
:1014E000DF91CF910C94FF0F882321F00E94710FA0
:1014F0000C94AE0F0895882321F00E94770F0C946E
:10150000AE0F089590E080E00E94641E90E080E0BD
:101510000E947A1E0E947E0F0E948E0F0E94AE0FC4
:101520000E94C8160C94A1150E94470F0C94820AC1
:101530000E946E0F0C94940AE92FE295EF70E2502E
:10154000EE3070F4F0E0ED55F54D0C945827803FE7
:1015500019F020F4883E20F481E00895843FE1F3FF
:1015600080E00895883EC0F3813FD1F7F5CF93FB2B
:10157000882780F90895FC01808191810E94C50B24
:101580000C949C0ACF93DF9300D000D00F92CDB77C
:10159000DEB70F900F900F900F900F90DF91CF91CB
:1015A0000895CF93DF9300D000D000D0CDB7DEB741
:1015B00026960FB6F894DEBF0FBECDBFDF91CF9158
:1015C000089508950C94E10A0E94E20A8093DA01DA
:1015D0000C94820A08950C94E40A9091DA01892B04
:1015E0000C94E40A9091DA0189230C94E40A909116
:1015F000DA0189270C94E40A0C94E10A0C94FC0AA1
:101600000E94FE0A8093D9010C94820A80E00C9417
:10161000000B91E001C0990F8A95EAF7892F0C948D
:10162000000B21E030E001C0220F8A95EAF780919B
:10163000D901822B0C94000B21E030E001C0220F75
:101640008A95EAF720958091D90182230C94000BAA
:1016500021E030E001C0220F8A95EAF78091D9019C
:1016600082270C94000B9091D901892B0C94000BCC
:101670009091D90189230C94000B9091D90189276D
:101680000C94000B0895990F990F990F890F982FBB
:10169000977041E001C0440F9A95EAF786958695C8
:1016A000869593E0899FF0011124E554FE4F30E0C8
:1016B00020E070E05191DF011197CB01022E02C0B2
:1016C000969587950A94E2F7817081958527842302
:1016D00085278C932F5F3F4F2330310559F70895AD
:1016E000990F990F990F890F982F97708695869566
:1016F000869523E0829FF0011124E554FE4F50E0CF
:1017000040E080E0219130E0092E02C03695279517
:101710000A94E2F721703327042E01C0220F0A94A5
:10172000EAF7822B4F5F5F4F4330510559F7089519
:10173000CF92DF92FF920F931F93CF93DF936C01B1
:101740000091D9018091DA01082BC7E0D0E010E0C8
:10175000FC2EC8010C2E02C0959587950A94E2F7DD
:1017600080FD0CC02197A0F7F12C8F2DDF91CF9138
:101770001F910F91FF90DF90CF900895B6018C2FAD
:101780000E94E912019771F3F0CFCF93DF93EC0140
:101790000E94980BBE01DF91CF910C94E9121F9328
:1017A000CF93DF93EB019091BA01992331F0CB01F4
:1017B000DF91CF911F910C94C50B882379F0CB0159
:1017C0000E94980B182F682FCE010E94430BBE0178
:1017D000812FDF91CF911F910C94E912CB010E94D0
:1017E000700B182FF4CFEF92FF920F931F93CF93AC
:1017F000DF938C01892B81F0F12CEE24E394E80136
:101800002196F8018491843770F4843008F05FC029
:101810008130B1F08230A1F1DF91CF911F910F9112
:10182000FF90EF900895853709F44CC008F43DC04F
:101830009CE7980F903780F78F770E94A10749C0E7
:101840000E5F1F4FFE01849190E2980F983060F474
:101850008770FE2D01C0FF0F8A95EAF78F2F0E9437
:10186000810F0E94AE0F02C00E940F078F2D815082
:1018700030F2EFE9FFE03197F1F700C00000F7CF59
:101880000E5F1F4FFE01849190E2980F983050F444
:101890008770FE2D01C0FF0F8A95EAF78F2F0E94F7
:1018A000870FDFCF0E94A107E1CF0E5F1F4FFE0120
:1018B000C491C150D8F28FE99FE00197F1F700C0C1
:1018C0000000F7CF0E5F1F4FFE01F490CFCF0E94B4
:1018D0000F078E01CBCF1F93CF93DF93C091DB0116
:1018E00016E08091DC018C1304C0DF91CF911F9131
:1018F0000895D0E01C9FF0011D9FF00D1124E352CC
:10190000FE4F4081518162817381848195810E9463
:10191000D10A2196C770E5CF40910D0250910E0279
:1019200060910F0270911002809111029091120249
:101930000C94D10AFF920F931F93CF93DF93809162
:101940001202807FD1F480910F028823B1F0809140
:10195000DB011091DC0160910D0270910E02A091EB
:101960001002B0911102062F0723C0910001D091FF
:10197000010196E0F92E181306C0DF91CF911F9157
:101980000F91FF90089590E0109711F00F3F19F418
:1019900001968770F0CFF89E9001F99E300D1124CA
:1019A000F901E352FE4F41814713F2CF40814613C4
:1019B000EFCF42814111ECCF438154814A1B5B0B35
:1019C0004C175D0728F7809112028F708061809319
:1019D0001202F901EE51FE4F80818F708061808389
:1019E0008DE092E00E94480ADF91CF911F910F9104
:1019F000FF900C946B0CAF92BF92CF92DF92EF925C
:101A0000FF920F931F93CF93DF93CDB7DEB761970C
:101A10000FB6F894DEBF0FBECDBF8C0185E0F80194
:101A2000DE011D9601900D928A95E1F7F801E280A2
:101A30008DE0C82E82E0D82E6091100270911102C4
:101A40006115710509F45FC190910D0220910E029C
:101A5000892F82238F3F09F456C140815181A38091
:101A6000B480F0900F02F501E61BF70BBF01E09187
:101A70000001F0910101FF2009F4F6C080911202EB
:101A8000382F307F6E177F0708F0AFC0311179C053
:101A9000FE2C251323C0941321C0E1101FC08F70AA
:101AA0008061809312020E948C0CC6010E94480A39
:101AB00080911202F80185838F2D61960FB6F894FC
:101AC000DEBF0FBECDBFDF91CF911F910F91FF9071
:101AD000EF90DF90CF90BF90AF900895AB2829F0A2
:101AE000842F85238F3F09F027C180E0F82FF17004
:101AF000DF2E80FF3CC08091DB012091DC0136E0CD
:101B0000821315C04D875E878D859E850E94C50B0B
:101B1000292F22952F702230F0F0243018F59F7075
:101B2000F1F0F8019581907FD1F4D12C1EC090E0A6
:101B3000389FF001399FF00D1124E352FE4F61816F
:101B4000651306C06081641303C062816E110FC00B
:101B500001968770D5CF9F7011F0882331F3805E96
:101B6000883018F3C8010E94480AFD2CA5CFEE204A
:101B700009F4A2CF80911202816080931202F12CAD
:101B80009BCF251306C0941304C0F801EE2009F47E
:101B900087C0C8010E94BB0A882319F1EE2009F111
:101BA00080911202803270F020910D0230910E026D
:101BB00038872F831986BB86AA868C87CE01079625
:101BC0000E94480A86E0F801ADE0B2E001900D9273
:101BD0008A95E1F70E949A0C0E948C0CFF24F394E2
:101BE0006BCFC8010E94480AF9CF311113C07A2D7A
:101BF000B98AA88A6E2D89890E94C20A8DE092E076
:101C00000E94480A86E0F60111928A95E9F70E943F
:101C10008C0CB5CF25130FC094130DC0E1100BC071
:101C2000F8018583C8010E94480A86E0F6011192F6
:101C30008A95E9F741CFC8010E94BB0A882389F23F
:101C4000EE2079F280911202803208F4BBCF20910D
:101C50000D0230910E023A8329831B82BD82AC8231
:101C60008E83CE010196ACCF6E177F0708F03EC081
:101C7000FE2CEE2009F4B5CF25132AC0941328C0FA
:101C80008091120280FD1BC0982F907FC1F0F80157
:101C90008583903F31F0982F907F905F8F70892BD4
:101CA0008583C8010E94480A86E0F801ADE0B2E0F1
:101CB00001900D928A95E1F70E948C0CFDCE86E092
:101CC000F801ADE0B2E001900D928A95E1F7F4CE13
:101CD000C8010E94BB0A811175CF809112028160F8
:101CE00080931202C8010E94480AE6CE7A2DB98A72
:101CF000A88A6E2D89890E94C20A86E0F601119297
:101D00008A95E9F7D9CFEE2009F46BCFC8010E947C
:101D1000BB0AF82E882309F464CF86E0F801ADE011
:101D2000B2E001900D928A95E1F78DE092E00E9479
:101D30000A070E949A0CC0CF81E08E25D7CE1F9350
:101D4000CF93DF93CDB7DEB72C970FB6F894DEBFF5
:101D50000FBECDBF4F83588769877A878B879C8753
:101D6000CE0107960E94FB0C882369F08A859B852B
:101D7000892B39F04F815885842F85238F3F09F0B7
:101D800071C016E05FC086E0FE013796DE01119655
:101D900001900D928A95E1F78A859B85892B89F3BD
:101DA0008F81988589238F3F61F32091DC0130E09A
:101DB000C9010196877099274091DB0148171906E0
:101DC00071F40E94980A1092DC011092DB0186E007
:101DD000EDE0F2E0DF011D928A95E9F7D2CF96E0BF
:101DE000929FD001939FB00D1124A352BE4FFE01CC
:101DF000319601900D929A95E1F78093DC010E9453
:101E00006B0CBFCF819FC001112483529E4F0E9453
:101E1000FB0C8823E9F0E091DB011E9FF001112407
:101E2000E352FE4F408151816281738184819581AB
:101E30000E94D10A8091DB0190E00196877099277A
:101E40008093DB018091DB019091DC018913DACF73
:101E50002C960FB6F894DEBF0FBECDBFDF91CF91A9
:101E60001F91089569857A858B859C850E94D10A8A
:101E700088CF682F80910201909103010C94D81EA5
:101E8000682F80910201909103010C94DA1E8091D9
:101E90000201909103010C94DC1E80911302859540
:101EA0008595859508958091130287700895909186
:101EB0001302977081E009F480E0089580911F0279
:101EC000089590911F02892B80931F020895809599
:101ED00090911F02982390931F02089510921F0261
:101EE000089590911E02892B80931E02089580957B
:101EF00090911E02982390931E02089510921E0244
:101F0000089590911D02892B80931D02089580955C
:101F100090911D02982390931D02089510921D0226
:101F2000089580911402089508950C94940F90914F
:101F3000880292FD08C090911402981721F08093B6
:101F400014020C94950F089580911402882329F0AF
:101F50001092140280E00C94950F0895E091020114
:101F6000F091030180911F028083E0910201F091C2
:101F70000301808190911E02892B8083E0910201F0
:101F8000F0910301808190911D02892B80839091B3
:101F90001402992381F0E0910201F0910301808104
:101FA000892B808380910201909103010E94901EF1
:101FB00081110E94A40F80910201909103010C9461
:101FC0004B1E08950C94E10F9091880292FD10C071
:101FD00098E0899F90011124622B609313020E9464
:101FE000110B809113028595859585950C94E20FD0
:101FF0000C94110B1092130280E00C94E20F90915C
:1020000013028095892380931302282F277091F45F
:10201000282F082E000C330B9217130659F09091BD
:10202000880292FD07C08595859585950E941C0BB9
:102030000C94FA0F08959091880292FB222720F9C0
:10204000281769F080FB92F99093880280918702AB
:10205000909188020E94661082E00C94FF0F089510
:102060008091880282FB882780F991E089270C946F
:102070001B1081E00C941B1080E00C941B106FEF80
:102080007FEF90E080E00C94442A90E080E00E9492
:10209000202A893E9E4F11F40C94D61680E00895B4
:1020A00082E090E00C94182A83E090E00C94182AC7
:1020B000CF9384E090E00E94182AC82F82E290E03B
:1020C0000E94182A982F8C2FCF910895CF93C92F53
:1020D000682F84E090E00E94262A6C2F82E290E034
:1020E000CF910C94262AAB01BC018FE090E00C94B8
:1020F000382AAB01BC0183E190E00C94382A60E0FF
:1021000070E0CB010C94791060E070E0CB010E948C
:1021100073100C947F1069EE7EEF90E080E00E94D7
:10212000442A60E082E090E00E94262A60E083E09A
:1021300090E00E94262A1092DA0160E084E090E0AC
:102140000E94262A60E082E290E00E94262A60E057
:1021500085E090E00E94262A60E086E090E00E9400
:10216000262A6FEF87E090E00E94262A40E050E0A8
:10217000BA0188E090E00E94382A60E08DE090E0AB
:102180000E94262A40E050E0BA0188E190E00E94D7
:10219000382A60E087E190E00E94262A40E050E083
:1021A000BA018CE190E00E94382A70E060E080E2A1
:1021B00090E00E94442A40E050E0BA0188E190E0BB
:1021C0000E94382A80E00E94EF160E9415170C9496
:1021D00084100C948B10682F8EE090E00C94262ACB
:1021E0000E947F1F60932F02709330028093310210
:1021F0009093320260932B0270932C0280932D02F5
:1022000090932E02089585B7806885BF85B7806852
:1022100085BF0895089508950C940A1108950C94AB
:102220000E110E94031187EC93E10E94351E0E945B
:102230000B110C940C1181E008950C941B1108955E
:1022400008950E941F110C9420110E946A1F0E9481
:1022500024170E94FE020C940F11AF92BF92CF92EE
:10226000DF92EF92FF920F931F93CF93DF93CDB73F
:10227000DEB72A970FB6F894DEBF0FBECDBF0E941F
:10228000840381110E94F01081E2A82E82E0B82E12
:1022900010E000E0C02E802F0E94F702E82EF5012A
:1022A000F1905F01F81609F44DC08091330281FD71
:1022B0000E94FD028F2D8E25D12CFF24F394982FA0
:1022C0009F21D9F10E941D11882399F0DE82CF82CF
:1022D000EF2081E009F480E088870E94731F81600D
:1022E000782F9A8789874E815F8168858A850E94C9
:1022F000CC06F801EF5DFD4F8081F826F0820E9448
:10230000BC150E943F1E90912002891791F10E94F6
:102310003F1E809320022A960FB6F894DEBF0FBEB0
:10232000CDBFDF91CF911F910F91FF90EF90DF9084
:10233000CF90BF90AF900C94C406D394FF0CF8E0FC
:10234000DF12BDCF0F5F1F4F0A30110509F0A2CF7A
:102350008FEF89838A831B820E94731F8160782F8D
:102360009D838C8349815A816B818D810E94CC062B
:10237000C6CF2A960FB6F894DEBF0FBECDBFDF9151
:10238000CF911F910F91FF90EF90DF90CF90BF9072
:10239000AF90089590E080E008950895FC01EE0F5D
:1023A000FF1FE452FC4F859194910895CF93DF93E2
:1023B0000E94ED12EC01811520E5920708F042C061
:1023C000811530E4930708F0BDC0883E910528F5DB
:1023D000803E910508F09DC0883A910588F4853AC1
:1023E000910508F08FC08130910509F492C00097E3
:1023F00009F48FC0049708F08CC0D0E0C0E089C019
:102400008F3B910508F489C0805C9109C03CD105DF
:10241000A0F30E94CE11EC017CC08115904250F4D3
:10242000C11581E0D80708F074C0C03FD10528F37A
:10243000D0656FC0C11590E3D90708F079C0CE010F
:102440009F70E7CF811525E5920758F5811534E592
:10245000930708F0A6C0811542E5940750F4C11512
:1024600081E5D80708F471C0DC2FCC27C16FD06A92
:1024700050C0982F969596959E0123703327C115CD
:10248000D34508F07FC0C1E0D0E002C0CC0FDD1F13
:102490002A95E2F720E2929FC0011124C82BD92B84
:1024A0006FC0C11589E5D807A8F4C11598E5D9070B
:1024B00008F07CC0C11526E5D20708F09ECF8C2F0E
:1024C0000E948413C82FD0E0DC2FCC27CC27DF71EB
:1024D000D0621FC0C1153AE5D30708F46CC0CE0125
:1024E00090568115904208F088CF8D2F8F710E94F1
:1024F000841390E0982F882788279F719C012C2BAC
:10250000E901E6CFC55AD0E0C357DE4FC881D0E01D
:10251000D064CE01DF91CF910895C85AD0E0CC0F9E
:10252000DD1FC15ADE4F0990D881C02DD464F1CF90
:10253000CE019927D3FF03C0EC01D86CEACFEC01A0
:10254000D06CE7CFDF70D06AE4CFCE01E4E096959F
:102550008795EA95E1F783702C2F269526952370B1
:1025600090E2299F90011124382B8C2F8370C1E0B9
:10257000D0E002C0CC0FDD1F8A95E2F7C22BD32B2F
:10258000DC68C7CFC1E0D0E002C0CC0FDD1F2A95C8
:10259000E2F730E2939FC0011124C82BD92BDA68EF
:1025A000B8CFD82FCC27C46FD06AB3CFDC2FCC27BD
:1025B000C06FD06AAECF8C2F8F700E94841334E02E
:1025C000D695C7953A95E1F7CF709C2FEC01D0696D
:1025D000A0CF0E94821C0C94D61182389105B1F1D3
:1025E000B0F48133910509F475C048F4893291053E
:1025F00009F469C08A32910509F473C008958533DE
:10260000910509F459C08933910501F10895833E7C
:102610009105A9F138F4803E9105F9F0823E9105CB
:1026200049F10895863E9105A9F1873E9105C9F1CA
:10263000843E910519F52091880221FF1FC08091E9
:10264000870284FD14C087EE90E0089520918702F0
:102650002370A1F080EE90E008952091870220FD84
:1026600047C03091880230FF09C024FF44C090E089
:1026700080E004C02091870222FDF7CF08952091C9
:10268000870222FD3BC03091880230FDE3CF24FF5A
:10269000F5CFEDCF2091870223FFF0CF24FDE7CFC8
:1026A000D2CF2091870223FD2CC03091880231FFC8
:1026B000EECF84EE90E008952091870225FFDECFD3
:1026C00089E290E008952091870225FFD7CF85E326
:1026D00090E008952091870226FFD0CF8AE290E013
:1026E00008952091870226FFC9CF81E390E00895E5
:1026F00089E390E0089583EE90E0089582EE90E003
:10270000089586EE90E008959091870292FF06C0AA
:10271000282F28712830F9F4877F846093FF06C042
:10272000282F28712831F1F4877E84612091880256
:1027300020FF06C0382F38713830D9F4877F816088
:1027400021FF06C0282F28712831D1F4877E8161AE
:1027500094FD877E0895282F24712430F9F68B7F0D
:102760008860DCCF282F2471243101F78B7E8861AB
:10277000DDCF382F3171313019F78E7F8860E0CF8F
:10278000282F2171213121F78E7E8861E1CF80E0F1
:1027900008950C943F100E9484038FE39CE90197F5
:1027A000F1F700C000000E94840380E00E94F7025D
:1027B00080FF04C00E94C9130C94BE1F08950C949E
:1027C000CB130E944510811102C00E94E9100E94A3
:1027D0005010809333020E94581090938802809387
:1027E00087020E94DF130E9454100E94EB0A80911E
:1027F000D9010C94FE0A0895FF920F931F93CF9373
:10280000DF93F82E092F162FD72FC42F222349F03C
:1028100081E0809336020E94731F9093350280936B
:102820003402809136028823A1F080913402909185
:1028300035020E948B1F059760F0EF2DF02FA12F1E
:10284000BD2FCE0FDF2FD11DEC17FD0741F41092E5
:102850003602DF91CF911F910F91FF9008958191E2
:102860008D93F2CF0E9493210E9425110C949F21F9
:102870000E94A3210E942D110C94BD210E94FD1ED7
:102880000E947A210E9411110E9432140E94381471
:102890000E942111FBCF80913D0280FF12C0609108
:1028A000090185E0689FB0011124759567957595BC
:1028B000679560387105A8F561157105A1F1862F3E
:1028C000089581FF09C06091090185E0689FB0010A
:1028D000112475956795EDCF6091090182FD0AC0BD
:1028E00080913C028823D1F0909108016091090108
:1028F000891728F085E0689FB0011124DACF869F00
:10290000B001112485E0869F9001879F300D11242E
:10291000692F70E0C9010E944427CBCF65E070E0C9
:10292000CECF8FE7089581E0089580913D0280FF2A
:102930000CC06091050170E0759567957595679578
:102940006115710549F1862F089581FF06C06091D8
:10295000050170E075956795F3CF6091050182FDE3
:102960000BC090913B029923A1F0609104018091EA
:102970000501961738F0682F70E06038710500F394
:102980008FE70895899FC001112470E00E944427B9
:10299000F4CF61E070E0D7CF81E00895803F31F45B
:1029A0000E944B148195809341020895813F19F450
:1029B0000E944B14F8CF823F31F40E944B14819552
:1029C000809340020895833F19F40E944B14F8CF7E
:1029D000893F29F40E9495148093420208958A3F0A
:1029E00021F40E9495148195F7CF8B3F31F40E941A
:1029F000951481958093430208958C3F19F40E94A9
:102A00009514F8CF9CE0980F953070F4845F990B83
:102A100021E030E001C0220F8A95EAF780913F0261
:102A2000822B80933F0208958D3F31F480913D02C7
:102A3000816080933D0208958E3F21F480913D0294
:102A40008260F7CF8F3FB9F780913D028460F1CF6C
:102A500040914002803F59F48091410287FF0DC0B0
:102A60001092410241110BC010923C0208C0813FFC
:102A700081F48091410218169CF3442381F08091E7
:102A8000420290914302892B09F05AC010923B02F6
:102A90000895823F49F447FFF0CF109240028091A1
:102AA00041028111ECCFE0CF833F19F41416ACF34F
:102AB000E4CF90914202893F29F41916F4F610925E
:102AC0004202DBCF8A3F19F497FFD7CFF8CF90911E
:102AD00043028B3F29F497FFD0CF10924302CDCF12
:102AE0008C3F19F41916CCF3C8CF9CE0980F9530A1
:102AF00090F4845F990B21E030E0B90102C0660FC9
:102B0000771F8A95E2F7CB01809590913F02892348
:102B100080933F02B2CF8D3F31F480913D028E7F92
:102B200080933D02AACF8E3F21F480913D028D7F9C
:102B3000F7CF8F3F09F0A1CF80913D028B7FF0CF7F
:102B400008950E94731F9C01909140028091410260
:102B5000982B21F030933A0220933902909142024F
:102B600080914302982B21F0309338022093370252
:102B70008EE392E00C94561EEF92FF920F931F93F8
:102B8000CF93DF9300D000D000D0CDB7DEB786E082
:102B9000EEE3F2E0DE01119601900D928A95E1F7E5
:102BA000E0904002F09041020091420210914302F5
:102BB000109240021092410210924202109243027F
:102BC0008E2D8F2991F08091390290913A020E94C6
:102BD0008B1FAC0190913C02992309F43FC0809176
:102BE0000A018417150608F447C0802F812B91F045
:102BF00080913702909138020E948B1FAC01909116
:102C00003B02992309F477C08091060184171506C9
:102C100008F47FC08091400290914102892B9091ED
:102C20004202892B90914302892B11F00E94A11539
:102C300086E0FE013196AEE3B2E001900D928A95F6
:102C4000E1F726960FB6F894DEBF0FBECDBFDF9139
:102C5000CF911F910F91FF90EF90089520910B015C
:102C60008AE0289F900111242417350708F0BDCF72
:102C70009F5F90933C0202C09F3FD1F7EE2059F036
:102C80000E944B149FEF1E140CF491E0899F802D3D
:102C9000112480934002FF2059F00E944B149FEFB3
:102CA0001F140CF491E0899F802D11248093410220
:102CB00030914002332309F498CF2091410222231E
:102CC00009F493CF45EB3403C0011124992359F043
:102CD0009093400245EB240390011124332339F0F3
:102CE0003093410282CF81E080934002F3CF81E0B4
:102CF000809341027ACF209107018AE0289F9001BA
:102D000011242417350708F085CF9F5F90933B026D
:102D100002C09F3FD1F7002359F00E9495149FEF06
:102D200010160CF491E0899F802D112480934202AB
:102D3000112359F00E9495149FEF11160CF491E0A5
:102D4000899F802D112480934302309142023323C6
:102D500009F460CF20914302222309F45BCF45EBB5
:102D60003403C0011124992359F09093420245EB9A
:102D7000240390011124332339F0309343024ACFC6
:102D800081E080934202F3CF81E08093430242CFFF
:102D900086E0EEE3F2E0DF011D928A95E9F71092FA
:102DA0003C0210923B0210923D02089583E290E0B3
:102DB0000E94182A823289F484E290E00E94182A44
:102DC000833059F485E290E00E94182A91E0843221
:102DD00009F090E0892F8170089580E0FCCFCF93B7
:102DE000C82F6FEF811162E283E290E00E94262AF1
:102DF0006FEFC11163E084E290E00E94262A6FEF3A
:102E0000C11164E285E290E0CF910C94262A0895E6
:102E100086E290E00E94182A682F70E090E080E03F
:102E2000089586E290E00C94262A80E00E94EF1636
:102E300060E070E0CB010E9411170E94FA1B0E9413
:102E4000E61C81E00C94EF160E9407170E94D6162C
:102E5000811102C00C9415170895CF93FB01C28114
:102E6000CC2309F19C0122513F452031310520F549
:102E700082510E94F61CC0E08C2FCF91089581E012
:102E80000E94110B43E062E081E00E945D05F3CFF8
:102E900081E00E941C0B43E062E081E00E945D053E
:102EA000EBCF82E0F6CF8031FFE59F0789F38131D8
:102EB0009F45B9F3C1E0E0CF8031EFE59E07F9F21D
:102EC00081319F45C9F682E0DBCF2FEFFC012083E3
:102ED0000895EF92FF920F931F93CF93DF93EC012E
:102EE000062FE881E150E33108F05EC0F0E0EF54D6
:102EF000F54D0C945827198289E08A83602FCE0102
:102F0000DF91CF911F910F91FF90EF900C94532080
:102F10008981823069F0833071F08130D9F40E9468
:102F20007F1F0E945E276A837B838C839D83E6CF0D
:102F30000E940817F6CF7E0182E0E80EF11C10E037
:102F4000812F0E94F702F70181937F011F5F1A30E2
:102F5000B9F7D4CF602FCE010E946517CFCF8981FA
:102F60008230C1F76A817B818C819D810E945E27BE
:102F70000E941117C3CF4B816A8189810E94CC1BAB
:102F80009827892798279D838C83B8CF2C813D81F2
:102F90003227232732274B816A8189810E94E51BD2
:102FA000ADCF0E94FA1BAACF8FEF8883A7CF0E94D4
:102FB0008F1C8983A3CF0E94911C9827892798276B
:102FC0009A8389839BCF6B8170E089819A81AE015E
:102FD0004C5F5F4F9827892798270E94941C8ECFBB
:102FE0006B8170E089819A81AE014C5F5F4F9827B9
:102FF000892798270E94BB1C81CF0E94E61C7ECFA8
:103000000E94B91BD6CF6B8170E089819A81AE0195
:103010004C5F5F4F9827892798270E94321C6ECFFC
:103020006B8170E089819A81AE014C5F5F4F982778
:10303000892798270E94581C61CFCF93DF93EC011A
:10304000FB018281882309F420C1C330FDE5DF073D
:10305000C8F5CA3F9CE5D90730F49E0122503C4593
:103060002431310598F50E9458109093880280937E
:103070008702C031FCE5DF0709F4E0C008F061C059
:10308000C8309CE5D90709F4CBC088F5C430FCE50D
:10309000DF0709F4B3C0E8F4C2309CE5D90709F4AE
:1030A000A7C0809187028260C330DC4509F4A3C0C9
:1030B00080918702909188020E9466100E94980A6F
:1030C00080E004C0C136EDE5DE0769F2DF91CF9103
:1030D0000895809187028061C630FCE5DF0709F41E
:1030E0008AC008F48FC080918702806284C080917A
:1030F00087028D7FCC309CE5D90709F47CC070F441
:10310000809187028C60CA30FCE5DF0709F473C048
:1031100008F48AC0809187028E7F6DC080918702FB
:10312000877FCE309CE5D90709F465C0809187027E
:103130008B7FCF30DC4508F45EC0809187028F7EA4
:103140005AC0CC3FFCE5DF0709F474C040F5C43138
:103150009CE5D90709F48AC058F4C231FCE5DF07C1
:1031600009F474C008F46EC080918702837F43C065
:10317000CA3F9CE5D90709F449C008F04DC0C531E4
:10318000DC4509F095CF8091870282FB992790F961
:1031900021E0922790FB82F990FB83F92CC0C115A6
:1031A0008DE5D80709F458C088F4809188028360BF
:1031B000CE3FECE5DE0769F1809188028D7FCF3F3D
:1031C000DC4538F1809188028C7F23C0C2308DE5C8
:1031D000D80709F458C008F452C0C136DD4509F0DB
:1031E00067CF90918702892F8F7E94FF806103C003
:1031F000809187028160809387025ACF80918702F5
:103200008460F9CF809187028860F5CF8091880231
:103210008160809388024CCF809188028260F9CFD0
:10322000809187028064E7CF0E94980A809187028C
:103230008068E1CF809188028E7FEBCF80918702FA
:103240008F7DD9CF809187028F7BD5CF0E94980A3E
:10325000809187028F77CFCF80918802982F9095A9
:1032600091708E7F892B90FB81F9D3CF0E94980AB1
:1032700090918702892F97FB87F98058BCCF81E016
:103280000E94EB1015CF80E0FBCF81E01FCF809133
:103290000C01877F80930C0182E00E94770F809160
:1032A0000C0184FF06C08F7E80930C0182E00E9497
:1032B000610F80910C0185FF06C08F7D80930C010A
:1032C00080E20E94610F0C94AE0F80E008958B3273
:1032D000910591F040F49C012450310924323105CC
:1032E00058F00C9465198D329105D8F38933910506
:1032F00018F084369105A9F781E00895CF93DF9304
:10330000EC01662319F082E00E94710FCE01905605
:10331000811520E2920720F0905E8115904108F41B
:10332000DD27CE01DF91CF910C94BF049C01305674
:10333000211540E2340720F0305E2115304108F4B9
:1033400099270C94D604FC0123E0F695E7952A957D
:10335000E1F7EE71FF27EC5BFD4F20813181AC017D
:103360004F70552781E090E002C0880F991F4A9561
:10337000E2F7662329F0822B932B918380830895B3
:103380008095909582239323F8CFFC0123E0F69556
:10339000E7952A95E1F7EE71FF27EC5BFD4F8F7003
:1033A000992721E030E002C0220F331F8A95E2F70F
:1033B000808191812823392381E0232B09F480E047
:1033C0000895EF92FF920F931F93CF93DF93EC0139
:1033D0007B018A0180910C0182FF5DC020916A020D
:1033E00030916B022C173D0719F0209709F053C05C
:1033F00090910C019B7F90930C0161E091FD10C0B6
:1034000080916C0290916D02A701481B590B61E0FD
:1034100080910D0190910E014817590708F460E062
:10342000617080910C0160FB81F980930C01C901EE
:103430000E94A3190E945E0F81FF08C080910C01B9
:10344000806180930C0182E00E94670F0E945E0FF2
:1034500085FF08C080910C01806280930C0180E29E
:103460000E94670F60910C0166956170A8018091C0
:103470006A0290916B020E947E1960910C01669520
:103480006170A80180916A0290916B020E94961966
:103490000E9447190FC0CE010E94C519A801682FCC
:1034A000CE010E94961980916A0290916B02C81712
:1034B000D90771F3F0926D02E0926C02DF91CF9127
:1034C0001F910F91FF90EF90089580910C0182FF62
:1034D00019C00E94731F20916C0230916D02AC01E3
:1034E000421B530B20910D0130910E0142175307DF
:1034F00048F044E652E0BC0180916A0290916B0270
:103500000C94E119089590910C01892F8E7F90FF02
:10351000816080930C010C94471980910C018E7F7F
:1035200080930C010C9447190F931F93CF93DF9353
:10353000CDB7DEB728970FB6F894DEBF0FBECDBF6C
:1035400080910E018F9380910D018F9380E991E01E
:103550009F938F931F9288E08F938E010F5F1F4F71
:103560001F930F930E947927C8010E94B9060FB6D6
:10357000F894DEBF0FBECDBF28960FB6F894DEBF1D
:103580000FBECDBFDF91CF911F910F910895CF92C4
:10359000DF92EF92FF921F93CF93DF93EC017B01B9
:1035A0000E94731F6C01F7018281882309F458C0BF
:1035B00080910C0182FF07C044E652E0B60190E022
:1035C00080E00E94E119C931FCE5DF0709F445C03C
:1035D00028F5C7318CE5D807B1F180910D019091A4
:1035E0000E010597C831ECE5DE0791F1CE0190564A
:1035F0008115E0E29E0720F0905E81159041F0F584
:1036000010926B0210926A0211E0812FDF91CF912C
:103610001F91FF90EF90DF90CF900895CB31FCE5A4
:10362000DF0759F038F0CC318CE5D807F9F60E9465
:103630008D1ADCCF0E94831AD9CF80910C01816052
:1036400080930C01D3CF80910D0190910E010596CE
:1036500090930E0180930D01C9CF0E94941AC6CF9A
:1036600080910C018F7EC13ED10531F0C53ED10560
:10367000A1F580910C018F7D80930C0180910C014C
:1036800080FFC2CFB701CE010E946719F7011281F6
:10369000882309F46BC0112309F462C00E945E0FF5
:1036A000182F0E94910F812B8D7F69F110926B0270
:1036B00010926A0260E0CE010E94A319A70160E0A7
:1036C000CE010E947E190E94910F8D7F0E94970F5C
:1036D00082E00E94FF0F10E098CFCE019056811536
:1036E00020E2920720F0905E8115904138F680919B
:1036F0000C0182FF89CF44E652E0B60190E080E001
:103700000E94E11981CF86E0F701A4E6B2E00190C2
:103710000D928A95E1F7109266021092680210925B
:1037200067020E945E0F182F0E94910F812B9091CB
:103730000C0181FB91F990930C010E94910F8D7FF8
:103740000E94970FD0936B02C0936A02D0926D02D1
:10375000C0926C0280910C01846080930C01B8CF00
:10376000A701B601CE010E94E1194FCF111148CF38
:103770004BCF84E0089590E1699FB001112450E09F
:10378000440F551F640F751F90EA899F600D711DCE
:103790001124CB01879608950F931F93CF93DF9346
:1037A0000E94BB1B8C010E94182AC82FD0E0DC2F7E
:1037B000CC27C80101960E94182A9E01282BC90116
:1037C000DF91CF911F910F9108950F931F93CF9386
:1037D000DF93122F032F0E94BB1BEC01602F0E946E
:1037E000262A612FCE010196DF91CF911F910F9173
:1037F0000C94262AAF92BF92CF92DF92EF92FF9263
:103800001F93CF93DF938CEAC82E80E0D82ED0E0B0
:103810007601C0E014C0F50125913491412F6C2F41
:103820008D2F0E94E51B82E0A80EB11C1F5F18308F
:1038300091F780E1E80EF11CCF5FCA3019F0570113
:1038400010E0E9CFDF5F80EAC80ED11CD43001F769
:10385000DF91CF911F91FF90EF90DF90CF90BF90BD
:10386000AF900895EF92FF920F931F93CF93DF9342
:10387000EC018A017C01E60EF71ECE018796CE157B
:10388000DF0539F4DF91CF911F910F91FF90EF90F9
:103890000895C03822E0D20740F40E94182AF801A7
:1038A00080830F5F1F4F2196E8CFF8011082F9CF78
:1038B000CF92DF92EF92FF920F931F93CF93DF93FC
:1038C0007C016A018C01060F171FEC01CE0187965F
:1038D000C017D10749F4DF91CF911F910F91FF904D
:1038E000EF90DF90CF900895C03822E0D20740F4E7
:1038F000FE01EE19FF09EC0DFD1D60810E94262AD4
:103900002196E4CF462F843038F47A3028F468309A
:1039100018F4672F0C94CC1B90E080E0089580E1B0
:10392000089589E591E00895EF92FF920F931F9318
:10393000CF93DF93EC018A017C01E60EF71ECE01E6
:1039400089559D4FCE15DF0539F4DF91CF911F9139
:103950000F91FF90EF900895C93521E0D20740F410
:103960000E94182AF80180830F5F1F4F2196E7CF2E
:10397000F8011082F9CFCF92DF92EF92FF920F936E
:103980001F93CF93DF937C016A018C01060F171FF1
:10399000EC01CE0189559D4FC017D10749F4DF9145
:1039A000CF911F910F91FF90EF90DF90CF900895EE
:1039B000C93521E0D20740F4FE01EE19FF09EC0DF4
:1039C000FD1D60810E94262A2196E3CFCF93DF93CD
:1039D000C7EAD2E060E0CE010E94262A2196C115F6
:1039E00084E0D807B9F7DF91CF910895DF92EF9285
:1039F000FF920F931F93CF93DF9300D000D0CDB7EA
:103A0000DEB7F82E8FE08F1540F08FEF93E00E9425
:103A1000182A07EA12E08823C1F00F900F900F9048
:103A20000F90DF91CF911F910F91FF90EF90DF905A
:103A30000895011584E0180781F3C8010E94182A2F
:103A4000811101C0FA940F5F1F4FF110F2CF19825C
:103A50001A821B821C82DD24D39478018FEFE81A2E
:103A6000F80AC8010E94182A89831A828823A9F2B9
:103A70009FEF980F933078F48A83D9820E5F1F4F9F
:103A8000C7010E94182A8B83882339F2CE01019640
:103A90000E94B906E2CF8701F9CFCF93DF93EB0104
:103AA00086319C4511F50E945E0F9A81992399F009
:103AB0008A7A91E009F490E090936E02811109C036
:103AC00089E20E94390F0E94AE0F80E0DF91CF9112
:103AD000089585E3F6CF80916E02811104C089E2DA
:103AE0000E94400FF0CF85E3FBCF81E0EFCF0F9333
:103AF0001F93CF93DF93C42FD22FFC0182818823A1
:103B0000C9F0409371020E94731F909370028093DA
:103B10006F0280E28C0F883008F050C0C77081E0DF
:103B200001C0880FCA95EAF7DF91CF911F910F91DD
:103B30000C94160810917102141335C080916F0215
:103B4000909170020E948B1F883C910560F5C0E245
:103B5000CD0F1D17B9F080E2810F883040F4177047
:103B600081E001C0880F1A95EAF70E941D08C8304D
:103B700048F481E09D2F977001C0880F9A95EAF76D
:103B80000E941608802F0E940E08C830B8F4D77023
:103B900081E001C0880FDA95EAF7DF91CF911F919C
:103BA0000F910C941D0880E28C0F883038F4C77098
:103BB00081E001C0880FCA95EAF7EFCFDF91CF917E
:103BC0001F910F9108950F939C01CB01233F4CE56A
:103BD000340759F1A8F4283DFCE53F0701F1293DE0
:103BE0004CE53407D1F1273D3C4591F406E221EE46
:103BF00041EE67ED7CE50E94771D80E00F9108950E
:103C0000253FFCE53F07E9F0B0F0263F3C45F9F0E1
:103C1000FC018281882339F110927102EFCF07E213
:103C200025EE45EE68ED7CE5E6CF06E221EE40EEBE
:103C300063EF7CE5E0CF07E225EE44EE64EF7CE540
:103C4000DACF06E221EE42EE65EF7CE5D4CF07E263
:103C500025EE46EE66EF7CE5CECF08E221E045EEAC
:103C600069ED7CE5C8CF81E0C9CF9093A501809331
:103C7000A401089590937702809376020895E091CD
:103C80007602F0917702309721F00190F081E02DDB
:103C9000099480E00895E0917602F09177023097E0
:103CA00021F00280F381E02D09940895E0917602DD
:103CB000F0917702309739F022E0DC012C930480F8
:103CC000F581E02D099408952091740230917502D8
:103CD0002817390771F09093750280937402E09170
:103CE0007602F0917702309721F00680F781E02D7F
:103CF00009940895209172023091730228173907B0
:103D000071F09093730280937202E0917602F091C9
:103D10007702309721F00084F185E02D0994089511
:103D20009C012E5F3F4FAC01485F5F4F80E024173E
:103D3000350709F40895F90191919F019923B9F389
:103D40008F5FF5CF662349F0FC01329608962191EA
:103D5000261729F0E817F907D1F780E0089581E0E8
:103D600008959C01FC0132969FEF80E04191461737
:103D700051F09F3F19F4411101C0982F8F5F863099
:103D8000A9F79F3F09F40895290F311D97FD3A9532
:103D9000F90162830895FC01329608962191261359
:103DA00003C0DF0111971C92E817F907B9F70895CE
:103DB0000C94B11E0C94CB1E029626E0FC011192CD
:103DC0002A95E9F7089508950C94E31E811105C022
:103DD00081E0809378020C94E41E82E0FACF83E0C5
:103DE000809378020C94E41E0C94E61E81E080938C
:103DF00078020C94E41E0C94F61E089580919102B2
:103E0000843031F10E9470051092790288E190E0CF
:103E100020E40FB6F894A895809360000FBE20931D
:103E2000600083B7817F846083BF83B7816083BF75
:103E30007894889583B78E7F83BF0FB6F894A89542
:103E400080916000886180936000109260000FBED6
:103E5000089508950895CF930E94291F0E94840316
:103E60000E942A1FC0E08C2F0E94F702811105C01A
:103E7000CF5FCA30C1F7CF91089581E0FCCF0E9497
:103E8000980A0C94E5051F921FB61F9211248F9378
:103E90009F93AF93BF9380917902811113C080915A
:103EA000890290918A02A0918B02B0918C02419676
:103EB000A11DB11D8093890290938A02A0938B0269
:103EC000B0938C02BF91AF919F918F911F901FBEB5
:103ED0001F90189582E084BD93E095BD9AEF97BD41
:103EE00080936E0008952FB7F89480918902909185
:103EF0008A02A0918B02B0918C022FBF08952FB738
:103F0000F8946091890270918A0280918B0290915D
:103F10008C022FBF08959C014FB7F89480918902BD
:103F200090918A02A0918B02B0918C024FBF821BAC
:103F3000930B089578941F921FB61F9211248F93AC
:103F40009F93AF93BF938091890290918A02A09131
:103F50008B02B0918C020196A11DB11D8093890244
:103F600090938A02A0938B02B0938C02BF91AF9181
:103F70009F918F911F901FBE1F90189587E797E71D
:103F8000909301088093000888E19AE00FB6F894B6
:103F9000A895809360000FBE90936000FFCF809142
:103FA0008502089508959C0184E08093E9009FEFC5
:103FB0008091E800915085FD06C085ED8A95F1F766
:103FC00000009111F5CF8091E80085FF0CC050E012
:103FD00040E066E070E0C9010E9464228091E80040
:103FE0008E778093E8000895CF93DF93EC0181E012
:103FF0008093E9008FEF9091E800815095FD06C015
:1040000095ED9A95F1F700008111F5CF8091E800C8
:1040100085FF14C050E040E068E070E0CE010E94EF
:1040200064228091E8008E778093E80088E0FE01AA
:10403000ADE7B2E001900D928A95E1F7DF91CF9163
:10404000089580937A0270937C0260937B02809142
:1040500091028430F9F48093E9008FEF9091E800A9
:10406000815095FD06C095ED9A95F1F700008111FC
:10407000F5CF8091E80085FF0DC050E040E063E09F
:1040800070E08AE792E00E9464228091E8008E77D7
:104090008093E8000895BC0184E00C942120BC01C9
:1040A00083E00C942120CF93FC01603221F58091B4
:1040B0009102843001F5C091E900CF702091EC00AD
:1040C000922F917020FD90E8C92B82E08093E90047
:1040D0008091E80080FF0CC050E040E060E270E0BA
:1040E000CF010E9464228091E8008E778093E800DF
:1040F000CF70C093E900CF91089580919002811113
:1041000009C00E9443240E94A0248091E2008460A0
:104110008093E20008951092900208950C94F61E88
:1041200060918D0281E0611101C080E00C94EF1E6E
:104130009091910281E0943009F080E060918D02CD
:104140000C94F41E42E061EC81E00E94BF2342E245
:1041500061EC84E00E94BF2342E261EC82E00E94B5
:10416000BF2342E260EC83E00E94BF239091910262
:1041700081E0943009F080E060918D020C94E61E9D
:1041800080919302833009F462C030F48130D9F118
:10419000823009F49EC008958A3009F48AC08B30B9
:1041A00009F470C0893009F051C0809192028132C7
:1041B00009F04CC08091960290919702009719F0F7
:1041C000029709F043C08091E800877F8093E80060
:1041D0008091E80082FF36C09091F3008091F20058
:1041E000029731F48091F100813011F0863021F492
:1041F0008091F100809385028091E8008B77809315
:10420000E8000C94F32380919202813AF9F48091B2
:10421000E800877F8093E800809196029091970252
:10422000892B61F468E08DE792E070E00E94022340
:104230008091E8008B778093E800089560E090E03B
:1042400080E0F3CF809191028111C2CF08958091D7
:104250009202813AD9F78091960290919702892B28
:10426000A9F78091E800877F8093E8008091E800BB
:1042700080FFFCCF80911B018093F1008091E800CA
:104280008E77BDCF80919202813201F780919602A4
:1042900090919702892BD1F68091E800877F8093D7
:1042A000E8000E94F3238091940280931B010C94F8
:1042B000980A80919202813249F68091E800877FC6
:1042C0008093E8000E94F3238091950280938602F8
:1042D000089580919202813A09F0B8CF8091E80068
:1042E000877F8093E8008091E80080FFFCCF809179
:1042F0008602C2CF84B7877F84BF0FB6F894A89593
:1043000080916000886180936000109260000FBE11
:1043100080E890E00FB6F89480936100909361007C
:104320000FBE0C94FB1E0E9443240E94A024E2EEC8
:10433000F0E080818460808378940C9429278FE05A
:1043400091E00C943A1E809191028530A9F48091FD
:104350009102853011F00C943F1F0E94FE1E809147
:104360008F028823A1F30E942B1F882381F30E94D0
:104370004E220E94980AEBCF0895CF93DF93CDB7DA
:10438000DEB7A0970FB6F894DEBF0FBECDBF809109
:104390009102843009F583E08093E9008091E80080
:1043A00082FF1AC08091E80090E085FF09C050E0CC
:1043B00040E060E270E0CE0101960E94B32291E0FD
:1043C0008091E8008B778093E800992329F060E2E0
:1043D000CE0101960E946917A0960FB6F894DEBF31
:1043E0000FBECDBFDF91CF9108950C94F721292FF7
:1043F00033272330310521F168F42130310509F4E8
:1044000043C02230310509F444C090E080E030E040
:1044100020E026C02132310551F122323105A9F7C1
:104420006330710590F7FB01EE0FFF1FE856FE4F5A
:10443000208131816B567E4FFB01808190E010C05E
:1044400099278130910581F0009729F00297E9F6CC
:10445000ECEDF3E002C0E6E0F4E0849190E09F012F
:10446000FA01318320830895ECEEF3E0F6CF633058
:10447000710558F6660F771FFB01E256FE4F20814B
:10448000318189E090E0ECCF82E190E025E634E0F4
:10449000E7CF8BE590E02AE034E0E2CF80E189BD10
:1044A00082E189BD09B400FEFDCF8091D8008F7DE7
:1044B0008093D8008091E00082608093E00080913A
:1044C000E00081FDFCCF0895AF92BF92CF92DF92C2
:1044D000FF920F931F93CF93DF936C01EB018A013F
:1044E0000E941224F82E811123C00115110539F004
:1044F000F80180819181C81BD90BC80ED91EB12C3F
:10450000A12C2097A9F08091E80085FD22C0809120
:10451000E8008E778093E80001151105A1F0F801FD
:1045200080819181A80EB91EB182A08285E0F82E0B
:104530008F2DDF91CF911F910F91FF90DF90CF9042
:10454000BF90AF9008950E9412248823D1F2F82ED4
:10455000EFCFF60181916F018093F1002197FFEF7A
:10456000AF1ABF0ACECFAF92BF92CF92DF92FF9227
:104570000F931F93CF93DF936C01EB018A010E948D
:104580001224F82E811123C00115110539F0F8010C
:1045900080819181C81BD90BC80ED91EB12CA12CCA
:1045A0002097A9F08091E80085FD22C08091E80065
:1045B0008B778093E80001151105A1F0F801808147
:1045C0009181A80EB91EB182A08285E0F82E8F2DB0
:1045D000DF91CF911F910F91FF90DF90CF90BF900F
:1045E000AF9008950E9412248823D1F2F82EEFCFC5
:1045F0008091F100F60181936F012197FFEFAF1ACF
:10460000BF0ACECFFC018091980290919902861743
:104610009707A0F06115710529F49091E8009E7745
:104620009093E80090E06115710551F4911108C074
:104630008091E80082FF34C080E00895BC01F2CF91
:10464000809191028823C1F18530C1F18091E80009
:1046500083FD30C08091E80082FDEACF8091E800C0
:1046600080FFE1CF8091F3002091F200382F611597
:10467000710519F02830310558F091E028303105E6
:1046800009F090E02091E8002E772093E800CBCF4E
:1046900081918093F100615071092F5F3F4FE7CF07
:1046A00080919102882341F0853041F08091E800AB
:1046B00083FFBECF81E0089582E0089583E00895EE
:1046C000FC01809198029091990286179707A0F0BB
:1046D0006115710529F48091E8008E778093E800D8
:1046E00090E06115710551F4911108C08091E800C6
:1046F00082FF35C080E00895BC01F2CF8091910225
:104700008823C9F18530C9F18091E80083FD31C06B
:104710008091E80082FDEACF8091E80080FFE1CF40
:104720008091F3002091F200382F6115710519F086
:104730002830310558F091E02830310509F090E03B
:104740008091E8008E778093E800CBCF84918093AE
:10475000F1003196615071092F5F3F4FE6CF809194
:104760009102882341F0853041F08091E80083FF79
:10477000BDCF81E0089582E0089583E00895982FE9
:10478000973028F08F708093E90081E0089590932E
:10479000E900242F762F50E0981731F07091EC004B
:1047A0002091ED005091F00021FD02C09F5FE8CF05
:1047B0003091EB003E7F3093EB003091ED003D7F78
:1047C0003093ED003091EB0031603093EB0070934B
:1047D000EC002093ED005093F0002091EE0027FDB7
:1047E000E5CF80E008958091920287FF13C0809109
:1047F000E80082FF06C08091E8008B778093E80094
:1048000004C0809191028111F2CF089580919102AC
:104810008823D9F38091E80080FFF8CF8091E800E9
:104820008E77ECCF2091E4003091E50095E6A90168
:104830002091EC00822F817020FF06C08091E8005B
:1048400080FF06C080E008952091E80022FD1AC094
:1048500080919102882389F0853089F08091EB0066
:1048600085FD0FC02091E4003091E5004217530709
:10487000F9F29150E1F684E0089582E0089583E032
:10488000089581E008950E94B1240E94B924E0EEC9
:10489000F0E0808181608083E8EDF0E080818F77B7
:1048A000808319BCA7EDB0E08C918E7F8C938081C2
:1048B0008F7E80831092900208950F931F93CF9361
:1048C000DF930E94B1240E94B924C8EDD0E0888112
:1048D0008F77888388818068888388818F7D8883AB
:1048E00019BC1092910210928D0210928F021092B8
:1048F0008E0200EE10E0F80180818B7F808388813A
:104900008160888342E060E080E00E94BF23E1EEA6
:10491000F0E080818E7F8083E2EEF0E08081816034
:104920008083808188608083F80180818E7F80838E
:10493000888180618883DF91CF911F910F910895C5
:10494000E8EDF0E080818F7E8083E7EDF0E080810C
:104950008160808384E082BF81E0809390020C9428
:104960005D24E8EDF0E080818E7F80831092E2008C
:1049700008951092DA001092E10008951F920F92AC
:104980000FB60F9211242F933F934F935F936F9322
:104990007F938F939F93AF93BF93EF93FF938091F8
:1049A000E10082FF0BC08091E20082FF07C080918E
:1049B000E1008B7F8093E1000E9428278091DA003C
:1049C00080FF19C08091D80080FF15C08091DA0067
:1049D0008E7F8093DA008091D90080FF96C080E1BD
:1049E00089BD82E189BD09B400FEFDCF81E08093DD
:1049F00091020E947D208091E10080FF19C080918A
:104A0000E20080FF15C08091E2008E7F8093E2007B
:104A10008091E20080618093E2008091D800806202
:104A20008093D80019BC85E0809391020E94902069
:104A30008091E10084FF2BC08091E20084FF27C0B9
:104A400080E189BD82E189BD89B5982F917080FF91
:104A5000FBCF8091D8008F7D8093D8008091E100BA
:104A60008F7E8093E1008091E2008F7E8093E20050
:104A70008091E20081608093E20080918D02882322
:104A800009F449C084E0809391020E9498208091AB
:104A9000E10083FF29C08091E20083FF25C080915F
:104AA000E100877F8093E10082E080939102109281
:104AB0008D028091E1008E7F8093E1008091E20081
:104AC0008E7F8093E2008091E20080618093E2001B
:104AD00042E060E080E00E94BF238091F0008860A7
:104AE0008093F0000E948E20FF91EF91BF91AF91D3
:104AF0009F918F917F916F915F914F913F912F91F6
:104B00000F900FBE0F901F90189519BC1092910234
:104B10000E948B2070CF8091E30087FD93E09093FB
:104B20009102B3CF1F920F920FB60F9211242F93C1
:104B30003F934F935F936F937F938F939F93AF9325
:104B4000BF93CF93DF93EF93FF93D091E900DF7092
:104B50008091EC00C82FC17080FDC0E81092E90080
:104B60008091F000877F8093F00078940E94D62592
:104B70001092E9008091F00088608093F000CD2BC6
:104B8000CF70C093E900FF91EF91DF91CF91BF917A
:104B9000AF919F918F917F916F915F914F913F91D5
:104BA0002F910F900FBE0F901F9018951F93CF93CA
:104BB000DF93CDB7DEB7AA970FB6F894DEBF0FBE6E
:104BC000CDBF82E992E02091F100FC012193CF0159
:104BD000F2E08A399F07B9F70E94C0208091E8006F
:104BE00083FF1EC180919202909193029A3008F047
:104BF00017C1E92FF0E0EC53F54D0C94582780389D
:104C000099F0823809F00CC1809196028F7087303C
:104C100008F006C18093E9008091EB0085FB8827AE
:104C200080F91092E90006C080918E0290918F0267
:104C3000911182609091E800977F9093E8008093B3
:104C4000F1001092F1008091E8008E77E5C0882392
:104C500009F4D3C0823009F0E3C08091940281113D
:104C6000D6C0809196028F702FEF280F263008F063
:104C7000D7C08093E9002091EB0020FFC8C093309B
:104C800031F48091EB0080628093EB00C0C0909182
:104C9000EB0090619093EB0021E030E001C0220F27
:104CA0008A95EAF72093EA001092EA008091EB00DF
:104CB0008860EACF8111B4C0109194021F7780916F
:104CC000E3008078812B8093E3008091E800877F68
:104CD0008093E8000E94F3238091E80080FFFCCFDE
:104CE0008091E30080688093E30082E0111183E00B
:104CF0008093910295C08058823008F091C08091D5
:104D00009402909195028C3D23E09207A1F583E0F7
:104D10008A838AE289834FB7F894DE01139620E0F4
:104D20003EE051E2E32FF0E050935700E49120FF82
:104D300003C0E295EF703F5FEF708E2F90E0EA3096
:104D4000C0F0C7968D939D932F5F243159F74FBFC5
:104D50008091E800877F8093E8006AE270E0CE01EE
:104D600001960E9402238091E8008B778093E800EF
:104D700057C0C096E7CF6091960270919702AE013E
:104D80004F5F5F4F0E94F521BC01892B09F448C099
:104D90009091E800977F9093E80089819A810E9422
:104DA0006023E1CF8038E1F58091E800877F809330
:104DB000E80080918D028093F10045CF811130C0D1
:104DC00090919402923060F58091E800877F809303
:104DD000E80090938D020E94F32380918D02882336
:104DE00011F084E005C08091E30087FDFACF81E0F7
:104DF000809391020E94A22013C08091940281307E
:104E000079F481E0933009F080E080938F02109272
:104E1000E9008091E800877F8093E8000E94F323F7
:104E20008091E80083FF0AC08091E800877F80932B
:104E3000E8008091EB0080628093EB00AA960FB6A9
:104E4000F894DEBF0FBECDBFDF91CF911F910895C3
:104E50000895CF93809191028823A1F0C091E90039
:104E6000CF709091EC00892F817090FD80E8C82B65
:104E70001092E9008091E80083FD0E94D625CF7052
:104E8000C093E900CF91089597FB072E16F4009484
:104E900007D077FD09D00E94652707FC05D03EF4B6
:104EA000909581959F4F0895709561957F4F0895D6
:104EB000EE0FFF1F0590F491E02D099469279627C6
:104EC00069277827872778270895AA1BBB1B51E1FC
:104ED00007C0AA1FBB1FA617B70710F0A61BB70B6A
:104EE000881F991F5A95A9F780959095BC01CD010F
:104EF0000895AEE0B0E0EFE7F7E20C94682A0D8980
:104F00001E898F89988D26E02C831A83098397FF49
:104F100002C080E090E801979E838D83AE01455EDC
:104F20005F4F698D7A8DCE0101960E94A9274D8130
:104F30005E8157FD0AC02F813885421753070CF454
:104F40009A01020F131FF80110822E96E4E00C94D0
:104F5000842AABE0B0E0EFEAF7E20C945A2A7C0135
:104F60003B018A01FC0117821682838181FFB9C14E
:104F70009AE0292ECE0101965C01F7019381F3019D
:104F800093FD859193FF81913F01882309F446C1E8
:104F9000853239F493FD859193FF81913F018532EC
:104FA00029F4B70190E00E948A29E7CF912C412C87
:104FB000512CFFE1F51538F08B3209F188F480327D
:104FC00001F1833221F157FC3AC020ED280F2A303D
:104FD00040F556FE1FC0929C200D1124922E06C053
:104FE0008D3291F0803379F7689450F8F30193FD96
:104FF000859193FF81913F018111DBCF20C068949F
:1050000051F8689452F8F2CF689453F8EFCF68944F
:1050100054F8ECCF429C200D1124422E689455F890
:10502000E5CF8E3229F456FCF9C0689456F8DECFED
:105030008C3619F4689457F8D9CF8836B9F2982F7E
:105040009F7D95549330C0F08336A1F18337C1F131
:10505000833509F05BC0F801C190D1908F01692DB3
:1050600070E056FC02C06FEF7FEFC6010E9474290A
:105070004C01689457F80AC00C5F1F4F2FE3298337
:1050800088248394912C6501E89457F853FC04C05C
:105090004814190409F018F5342C8114910431F5E1
:1050A000332009F46ACFB70180E290E00E948A2998
:1050B0003A94F6CFF801808189830E5F1F4FE0CFCD
:1050C000F801C190D1908F01692D70E056FC02C0AB
:1050D0006FEF7FEFC6010E947F294C01D5CFB7014A
:1050E00080E290E00E948A294A94D2CFF60157FCD0
:1050F000859157FE81916F01B70190E00E948A2946
:1051000031103A94F1E08F1A9108C7CF843619F024
:10511000893609F074C0F80157FE6AC06191719137
:10512000819191918F01252D2F76D22E97FF09C065
:1051300090958095709561957F4F8F4F9F4F6894A4
:10514000D7F82AE030E0A5010E94BA29C82ECA1873
:105150008C2C5D2CD6FE0CC0E89450F8C91440F499
:10516000D4FE05C0D2FC03C0FD2DFE7E5F2E892C2F
:1051700054FE8FC0FE01EC0DF11D8081803309F0DB
:1051800081C0252D297E522E852D8870382E53FC06
:105190008FC050FE89C09C2C841418F44C0C942CA5
:1051A000981854FE8BC0B70180E390E00E948A29D2
:1051B00052FE09C088E790E051FE02C088E590E009
:1051C000B7010E948A29C91408F484C0CA94D12C5A
:1051D0009FEFC91AD90ACA0CDB1CF60182916F0134
:1051E000B70190E00E948A29AC14BD04B1F758CFF2
:1051F00061917191072E000C880B990B93CFD52CE0
:10520000E894D4F82AE030E0853739F1952D997F7C
:10521000D92E8F3601F148F48835A9F0F70186813F
:1052200097812B96E2E10C94762A803749F08837F3
:10523000A9F7D4FE02C06894D2F820E130E00DC096
:105240006894D4F8F6CF54FE03C0E92FE660DE2E52
:1052500020E132E002C028E030E0F801D7FE0DC0C6
:1052600061917191819191918F01A5010E94BA295B
:10527000C82ECA18E894D7F86BCF6191719190E06D
:1052800080E0F2CF52FC02C083947ECF839483945B
:105290007BCF852D867809F477CFF6CFB70180E2F2
:1052A00090E00E948A2983948414C0F3312C79CF32
:1052B000342C3818841408F474CFF8CF852D8678F0
:1052C00009F481CF8BE251FE80E257FC8DE2B701F9
:1052D00090E077CFB70180E390E00E948A299A940A
:1052E00072CF8FEF9FEF9DCFFC0105906150704012
:1052F0000110D8F7809590958E0F9F1F0895FC019F
:105300006150704001900110D8F7809590958E0FF4
:105310009F1F08950F931F93CF93DF93182F092F8B
:10532000EB018B8181FD09C01FEF0FEF812F902FC3
:10533000DF91CF911F910F91089582FF14C02E81AC
:105340003F818C819D81281739073CF4E881F981E0
:10535000CF0101969983888310838E819F81019666
:105360009F838E83E3CFE885F985812F0995892B6B
:10537000A1F3DACFFA01AA27283051F1203181F1C7
:10538000E8946F936E7F6E5F7F4F8F4F9F4FAF4F4D
:10539000B1E03ED0B4E03CD0670F781F891F9A1F60
:1053A000A11D680F791F8A1F911DA11D6A0F711D14
:1053B000811D911DA11D20D009F468943F912AE020
:1053C000269F11243019305D3193DEF6CF01089508
:1053D000462F4770405D4193B3E00FD0C9F7F6CF39
:1053E000462F4F70405D4A3318F0495D31FD405201
:1053F000419302D0A9F7EACFB4E0A6959795879597
:1054000077956795BA95C9F7009761057105089575
:105410009B01AC010A2E0694579547953795279521
:10542000BA95C9F7620F731F841F951FA01D0895B9
:10543000F999FECF92BD81BDF89A992780B508955C
:10544000A8E1B0E042E050E00C944C2A262FF999F4
:10545000FECF92BD81BDF89A019700B4021639F0D3
:105460001FBA20BD0FB6F894FA9AF99A0FBE0895A4
:105470000396272F0E94272A0E94262A252F0E9462
:10548000272A242F0C94272A0196272F0E94272AA7
:105490000C94262ADC01CB01FC01F999FECF06C051
:1054A000F2BDE1BDF89A319600B40D9241505040E2
:1054B000B8F708952F923F924F925F926F927F922A
:1054C0008F929F92AF92BF92CF92DF92EF92FF9214
:1054D0000F931F93CF93DF93CDB7DEB7CA1BDB0BC0
:1054E0000FB6F894DEBF0FBECDBF09942A88398865
:1054F00048885F846E847D848C849B84AA84B9846C
:10550000C884DF80EE80FD800C811B81AA81B98177
:10551000CE0FD11D0FB6F894DEBF0FBECDBFED018B
:105520000895F894FFCF5E085E088F088F0822095F
:105530003E09BE08BE084909B009BF09BF09170ADC
:10554000BE08BE08200AA70AA70AB00AB00AB20A13
:10555000B00AB00AB00AA70AA70AB70AB00AB00A86
:10556000B70A7B178817AF17BB17C617D117D41701
:10557000D417D417D417D417D717DB17E317F0179E
:10558000FD17001803181018FF25272610272726B7
:0C55900010275A267B261027D226DE2684
:10559C00C80015022808641E140A321E01AF00CF81
:1055AC001FF41FD31F4F204B20D21F01F4F5F6F729
:1055BC00313332C691909466970000000000E200EF
:1055CC00E900EA00B500B600B700CD008301CC00BD
:1055DC008A0192019401210223022402250226024F
:1055EC0027022A02B300B4006F007000818283E2AC
:1055FC0000E900EA00B500B600B700CD008301CC8D
:10560C00008A019201940121022302240225022620
:10561C000227022A02B300B4006F0070008182835B
:10562C000A25640A0040227B1405770499041C04A3
:04563C0035045504D8
:00000001FF
