:100000000C94AA020C94F1020C94F1020C94F102EB
:100010000C94F1020C94F1020C94F1020C94F10294
:100020000C94F1020C94F1020C94C5230C949924C5
:100030000C945E1E0C94F1020C94F1020C94F102EB
:100040000C94F1020C94F1020C94F1020C94F10264
:100050000C94F1020C94B51E0C94F1020C94F10274
:100060000C94F1020C94F1020C94F1020C94F10244
:100070000C94F1020C94F1020C94F1020C94F10234
:100080000C94F1020C94F1020C94F1020C94F10224
:100090000C94F1020C94F1020C94F1020C94F10214
:1000A0000C94F1020C94F1020C94F10229001E0050
:1000B0001F00200021002200240025002B00140036
:1000C0001A000800150023001C0018003541040028
:1000D00016000700090017000B000D00E1001D00CD
:1000E0001B00060019000A0011001000E300E200E6
:1000F0008B002C002C0005002C000000260027009F
:100100002D002E0089002A004A0000000C00120079
:1001100013002F00300025004D0000000E000F00DE
:1001200033003400320028004B0000003600370056
:100130003800877252004E00E00000002C008A0058
:1001400088006500500051004F000000005C3A003C
:100150003B003C003D003E0040004100010001002A
:100160000100010001003F00010001000100C25C2C
:10017000C35C010001000100010001000100CA5C34
:10018000C95CC65CC55C0100C75C010001000100E0
:10019000010001000100C85C0100000042004300B2
:1001A0004400450001004C00460000000100010031
:1001B00001000100010001004900000001000100F0
:1001C0000100010001000100010000000100010028
:1001D0000100010001000100010000000100010018
:1001E0000100010001000100010000000100010008
:1001F00001000100010001000100010001000100F7
:1002000001000100010001000100010001000100E6
:1002100001000100010001000100010001000100D6
:1002200001000100010001000100010001000100C6
:1002300001000100010001000100000001000100B7
:1002400001000100010001000100000001000100A7
:100250000100010001000100010000000100010097
:100260000100010001000100010000000100010087
:100270000100010001000100010000000100010077
:100280000100010001000100010000000100010067
:100290000100010001000100010001000100010056
:1002A0000100010001000100010001000100010046
:1002B0000100010001000100010001000100010036
:1002C0000100010001000100010001000100010026
:1002D0000100010001000100010000000100010017
:1002E0000100010001000100010000000100010007
:1002F00001000100010001000100000001000100F7
:1003000001000100010001000100000001000100E6
:1003100001000100010001000100000001000100D6
:1003200001000100010001000100000000000000C8
:10033000000000002A2B2800000000000000000040
:100340000000000000000029000000002C1E3420E6
:10035000212224342627252E362D3738271E1F200C
:100360002122232425263333362E37381F04050651
:100370000708090A0B0C0D0E0F1011121314151695
:100380001718191A1B1C1D2F3130232D3504050693
:100390000708090A0B0C0D0E0F1011121314151675
:1003A0001718191A1B1C1D2F3130354C0000000086
:1003B000000000000000000000000000000000003D
:1003C000000000000000000000000000000000002D
:1003D0007E0F00D4FFFFFFC7000000780E03390036
:1003E00036003700340047004C00000018036F004F
:1003F00074006100680069006E006F0073006100A6
:100400006D00650000000403090409025B0003019C
:1004100000A03209040000010301010009211101BB
:1004200000012240000705810308000A09040100B9
:10043000020300000009211101000122220007052A
:1004400082032000010705030320000109040200C4
:100450000103000000092111010001227B000705B2
:10046000840320000A120110010000000816F57430
:10047000960100010200010660FF0961A101096205
:10048000150026FF009520750881020963150026D6
:10049000FF00952075089102C005010902A10185A0
:1004A000020901A100050919012908150025019576
:1004B00008750181020501093009311581257F95F3
:1004C000027508810609381581257F950175088117
:1004D00006050C0A38021581257F950175088106ED
:1004E000C0C005010980A101850319012AB70015C3
:1004F0000126B700950175108100C0050C0901A106
:1005000001850419012AA002150126A00295017592
:10051000108100C005010906A101050719E029E7BE
:100520001500250195087501810295017508810165
:100530000507190029FF150026FF0095067508819B
:1005400000050819012905950575019102950175A8
:10055000039101C011241FBECFEFDAE0DEBFCDBF93
:1005600004B603FE27C08091860290918702A09175
:100570008802B09189028730904BA740B04BD1F4EC
:1005800010928602109287021092880210928902BD
:1005900014BE84B7877F84BF0FB6F894A895809166
:1005A0006000886180936000109260000FBEE0E000
:1005B000F8E3099511E0A0E0B1E0EAEAF3E502C052
:1005C00005900D92A03AB107D9F722E0A0EAB1E078
:1005D00001C01D92A638B207E1F70E9485200C9455
:1005E00098290C940000089508950C94F402E82FC3
:1005F000F0E0EE55FE4F808108950895FF920F932D
:100600001F93CF93DF93A0E2B1E0ED0161E070E0D2
:100610008991E82FE295EF70F0E041A18F709B0186
:1006200001C0220F8A95EAF7922F9095942391A307
:1006300082A1822B82A381E0CA32D80749F7C8E1A0
:10064000D1E020E231E0AE0161E070E0FA01819199
:10065000AF01E82FE295EF70F0E0F1A08F708B0111
:1006600001C0000F8A95EAF7902F90959F2191A3E2
:1006700082A1802B82A32417350741F761E070E047
:100680008991E82FE295EF70F0E011A18F70AB0136
:1006900001C0440F8A95EAF7942F9095912391A376
:1006A00082A1842B82A32C173D0751F761E070E0F3
:1006B0008D91E82FE295EF70F0E041A18F709B01E2
:1006C00001C0220F8A95EAF7922F9095942391A367
:1006D00082A1822B82A3F1E0AA32BF0749F7ECEA9C
:1006E000F1E0A2EAB1E086EB91E011921D928E1743
:1006F0009F07D9F78AE00E94D208DF91CF911F911E
:100700000F91FF900C9444052F923F925F926F924D
:100710007F928F929F92AF92BF92CF92DF92EF9291
:10072000FF920F931F93CF93DF938CEA91E021EB1D
:10073000822E21E0922E30E2E32E31E0F32EC0E053
:10074000AA24A394B12CDC017D90CD01FD0112926D
:100750001F01D7012D917D01E22FE295EF70F0E0AE
:1007600031A12F70B50101C0660F2A95EAF7232F3A
:10077000262B21A322A1D62FD0952D2322A3B0EA88
:10078000BA95F1F748E151E06A0130E020E0D60186
:100790005D906D01052D02950F7010E0D8019096C7
:1007A0000C91D1016C9010E0B52DBF7002C0159571
:1007B0000795BA95E2F710E000FD06C01A2D022E4B
:1007C00001C0110F0A94EAF71629D1011C932F5F7B
:1007D0003F4F28303105D9F621A1D223D1A322A140
:1007E000622B62A321E03C91371101C020E0C22BB3
:1007F0008816990609F0A7CF30E020E061E070E0AC
:10080000A5E2B1E0FA018191AF01E82FE295EF7026
:10081000F0E0D1A18F708B0102C0000F111F8A95EB
:10082000E2F7C8019D2F982B91A392A1809589236F
:1008300082A310EA1A95F1F7CB01022E01C0880FAE
:100840000A94EAF7C82E882E809481EBE82E81E086
:10085000F82E00E211E0D12CF701D1917F01F801CF
:1008600091908F01892D82958F7090E0FC0180A17D
:10087000A82EB12CE92DEF7002C0B594A794EA958B
:10088000E2F7C7010197BC2CBD2AA0FE02C0B82C1C
:10089000BD22FC01B0828081D81711F0DD24D394F1
:1008A000A017B107C9F6FA0131978081E82FE295C8
:1008B000EF70F0E0D1A18F708B0101C0000F8A951D
:1008C000EAF7902F90959D2391A382A1802B82A37C
:1008D000CD292F5F3F4F2830310509F093CF2C2FC2
:1008E0004AE062EA71E08CEA91E00E94D3080E943B
:1008F00048058C2FDF91CF911F910F91FF90EF90C2
:10090000DF90CF90BF90AF909F908F907F906F902F
:100910005F903F902F9008950C94F30281E008952A
:1009200081E008950C94900408950C9494041F930E
:10093000CF93DF9300D000D00F92CDB7DEB74983BD
:100940005A836B833091E70189819A8131111DC0EF
:100950006623B9F02223A9F00E94921B182F682F5A
:1009600089819A810E943D1B69817A81812F0F9034
:100970000F900F900F900F90DF91CF911F910C94DB
:10098000A40D0E946A1B182FEFCF0E94921B698151
:100990007A81EDCFFC01262F4081518162817381E4
:1009A00084810C949704CF93DF93EC0160E00E9464
:1009B000CA04BE01DF91CF910C9495048F929F924F
:1009C000AF92BF92CF92DF92EF92FF920F931F935D
:1009D0006B017C0181E090E0A0E0B0E04C015D01A2
:1009E00004C0880C991CAA1CBB1C4A95D2F7B501FF
:1009F000A4014C015D0104C0880C991CAA1CBB1CFD
:100A00002A95D2F7482959296A297B2904C0880FD9
:100A1000991FAA1FBB1F0A95D2F78A019B010C21BF
:100A20001D212E213F21041715072607370789F4BA
:100A30008C299D29AE29BF29BC01CD011F910F91A1
:100A4000FF90EF90DF90CF90BF90AF909F908F90EE
:100A5000089580959095A095B0958C219D21AE210B
:100A6000BF21EACF0F93382F262F60915202709149
:100A700053028091540290915502042F432F0E94FB
:100A8000DE040F910C947B1A0E94AE080C948C0427
:100A90000E94C6100C94F50208950E94A7160E94A9
:100AA0004C052FEF84E39CE0215080409040E1F71B
:100AB00000C000000C94D91E0F931F93CF93DF93B7
:100AC0008C0161E00E94CA04EC01B8010E94EB0BAA
:100AD000882309F441C0B801CE010E949204882302
:100AE000D9F1B801CE010E943D118823A9F1B801C6
:100AF000CE010E94DB0E882379F1B801CE010E945D
:100B00002D0F882349F1B801CE010E94501088238F
:100B100019F1F8018281882361F0CA35FDE5DF070C
:100B200021F170F4C115ECE5DE07A1F0CE3DDC4506
:100B3000C9F0C801DF91CF911F910F910C948E04E1
:100B4000CB358DE5D807A1F0CC35DD4591F70E9476
:100B5000391CEFCF0E944D0580E0DF91CF911F91AE
:100B60000F9108950E94B21DF7CF0E94421CE1CF61
:100B70000E94451CDECFDF92EF92FF920F931F93EE
:100B8000CF93DF93E82FF0E0E45DFC4FD490282F63
:100B900026952695269530E0F901E453FC4F049103
:100BA000877010E0082E02C0159507950A94E2F7A9
:100BB00001701127F901E454FC4FE490F12C082E48
:100BC00002C0F594E7940A94E2F791E0E922FF2449
:100BD000F901E455FC4FC491D0E002C0D595C7950A
:100BE0008A95E2F7C170DD270115110519F081EE34
:100BF0000E942713E114F10419F086EE0E942713D6
:100C00008D2D0E942614EF2819F086EE0E94B9134C
:100C1000012B19F081EE0E94B913CD2B51F08CE21B
:100C2000DF91CF911F910F91FF90EF90DF900C9487
:100C30002614DF91CF911F910F91FF90EF90DF90DD
:100C40000895EF92FF920F931F93CF93DF93EC01E0
:100C5000162F0AE08881882309F454C0813009F0F6
:100C60004EC08981813099F47E0122E0E20EF11CB0
:100C70008A810E942614E7012196812F815050F32A
:100C8000EFE9FFE03197F1F700C00000F7CF8230C5
:100C900041F47E0182E0E80EF11C8A810E94271354
:100CA000EACF833041F47E01E2E0EE0EF11C8A814E
:100CB0000E94B913E0CF843011F02196DDCF2A8154
:100CC000229690E080E0AE014F5F5F4F2053330BE0
:100CD0002A30310548F0019778F2EFE9FFE03197CB
:100CE000F1F700C00000F7CF089FB001099F700D19
:100CF0001124C901860F971F2981EA01E4CF0E94C0
:100D0000BB05BACFDF91CF911F910F91FF90EF906C
:100D1000089560E00C94210608950C948C0681E0FF
:100D200008950C948F06CF93C82F0E948D068C2FA8
:100D3000CF910C94910690E080E008950895FC0115
:100D4000EE0FFF1FE452FC4F859194910895CF93CD
:100D5000DF930E94A40D0E94BC07EC01811520E5E1
:100D6000920708F042C0811530E4930708F0BDC037
:100D7000883E910528F5803E910508F09DC0883A8F
:100D8000910588F4853A910508F08FC0813091056E
:100D900009F492C0009709F48FC0049708F08CC042
:100DA000D0E0C0E089C08F3B910508F489C0805C29
:100DB0009109C03CD105A0F30E949F06EC017CC0C4
:100DC0008115904250F4C11581E0D80708F074C035
:100DD000C03FD10528F3D0656FC0C11590E3D90796
:100DE00008F079C0CE019F70E7CF811525E5920705
:100DF00058F5811534E5930708F0A6C0811542E542
:100E0000940750F4C11581E5D80708F471C0DC2FB0
:100E1000CC27C16FD06A50C0982F969596959E01A9
:100E200023703327C115D34508F07FC0C1E0D0E05F
:100E300002C0CC0FDD1F2A95E2F720E2929FC0018D
:100E40001124C82BD92B6FC0C11589E5D807A8F488
:100E5000C11598E5D90708F07CC0C11526E5D20771
:100E600008F09ECF8C2F0E945308C82FD0E0DC2FB3
:100E7000CC27CC27DF71D0621FC0C1153AE5D3075C
:100E800008F46CC0CE0190568115904208F088CFCE
:100E90008D2F8F710E94530890E0982F8827882704
:100EA0009F719C012C2BE901E6CFC55AD0E0C85AAE
:100EB000DE4FC881D0E0D064CE01DF91CF9108959C
:100EC000C85AD0E0CC0FDD1FC65DDE4F0990D88137
:100ED000C02DD464F1CFCE019927D3FF03C0EC011C
:100EE000D86CEACFEC01D06CE7CFDF70D06AE4CFEA
:100EF000CE01E4E096958795EA95E1F783702C2F73
:100F000026952695237090E2299F90011124382B75
:100F10008C2F8370C1E0D0E002C0CC0FDD1F8A951A
:100F2000E2F7C22BD32BDC68C7CFC1E0D0E002C010
:100F3000CC0FDD1F2A95E2F730E2939FC001112408
:100F4000C82BD92BDA68B8CFD82FCC27C46FD06A7A
:100F5000B3CFDC2FCC27C06FD06AAECF8C2F8F7071
:100F60000E94530834E0D695C7953A95E1F7CF70C3
:100F70009C2FEC01D069A0CF82389105B1F1B0F47B
:100F80008133910509F475C048F48932910509F45B
:100F900069C08A32910509F473C0089585339105BB
:100FA00009F459C08933910501F10895833E9105F3
:100FB000A9F138F4803E9105F9F0823E910549F19E
:100FC0000895863E9105A9F1873E9105C9F1843EB9
:100FD000910519F52091740221FF1FC080917302C1
:100FE00084FD14C087EE90E0089520917302237071
:100FF000A1F080EE90E008952091730220FD47C09B
:101000003091740230FF09C024FF44C090E080E0BA
:1010100004C02091730222FDF7CF0895209173023E
:1010200022FD3BC03091740230FDE3CF24FFF5CFA9
:10103000EDCF2091730223FFF0CF24FDE7CFD2CF75
:101040002091730223FD2CC03091740231FFEECF4A
:1010500084EE90E008952091730225FFDECF89E2AF
:1010600090E008952091730225FFD7CF85E390E0AB
:1010700008952091730226FFD0CF8AE290E0089570
:101080002091730226FFC9CF81E390E0089589E3A0
:1010900090E0089583EE90E0089582EE90E0089548
:1010A00086EE90E008959091730292FF06C0282F7B
:1010B00028712830F9F4877F846093FF06C0282FB9
:1010C00028712831F1F4877E84612091740220FF19
:1010D00006C0382F38713830D9F4877F816021FFFE
:1010E00006C0282F28712831D1F4877E816194FDB4
:1010F000877E0895282F24712430F9F68B7F88602D
:10110000DCCF282F2471243101F78B7E8861DDCF5D
:10111000382F3171313019F78E7F8860E0CF282F5A
:101120002171213121F78E7E8861E1CF0C94C50BAE
:101130000E9484038FE39CE90197F1F700C000004F
:101140000E94840380E00E94F70280FF04C00E9496
:1011500096080C94D91E08950C9498080E940D1DB1
:10116000811102C00E94B21D0E94181D8093670267
:101170000E94201D90937402809373020E94AC0819
:101180000E941C1D682F70E090E080E00E943F1AD2
:1011900060915202709153028091540290915502D5
:1011A0000C94791A0895FF920F931F93CF93DF93B6
:1011B000F82E092F162FD72FC42F222349F081E0B4
:1011C0008093B8010E948E1E9093B7018093B60160
:1011D0008091B8018823A1F08091B6019091B70168
:1011E0000E94A61E069760F0EF2DF02FA12FBD2FB5
:1011F000CE0FDF2FD11DEC17FD0741F41092B8017F
:10120000DF91CF911F910F91FF90089581918D9360
:10121000F2CF8091BF0180FF12C06091050185E08F
:10122000689FB0011124759567957595679560382D
:101230007105A8F561157105A1F1862F089581FF4B
:1012400009C06091050185E0689FB0011124759582
:101250006795EDCF6091050182FD0AC08091BE01C6
:101260008823D1F09091040160910501891728F03D
:1012700085E0689FB0011124DACF869FB001112468
:1012800085E0869F9001879F300D1124692F70E0C3
:10129000C9010E944B26CBCF65E070E0CECF8FE72F
:1012A000089581E008958091BF0180FF0CC0609196
:1012B000010170E0759567957595679561157105E4
:1012C00049F1862F089581FF06C06091010170E009
:1012D00075956795F3CF6091010182FD0BC09091E8
:1012E000BD019923A1F06091000180910101961741
:1012F00038F0682F70E06038710500F38FE70895CB
:10130000899FC001112470E00E944B26F4CF61E058
:1013100070E0D7CF81E00895803F31F40E94090941
:1013200081958093C3010895813F19F40E940909B2
:10133000F8CF823F31F40E94090981958093C20160
:101340000895833F19F40E940909F8CF893F29F4D1
:101350000E9453098093C40108958A3F21F40E949A
:1013600053098195F7CF8B3F31F40E945309819542
:101370008093C50108958C3F19F40E945309F8CF5A
:101380009CE0980F953070F4845F990B21E030E079
:1013900001C0220F8A95EAF78091C101822B8093C8
:1013A000C10108958D3F31F48091BF018160809328
:1013B000BF0108958E3F21F48091BF018260F7CF75
:1013C0008F3FB9F78091BF018460F1CF4091C20196
:1013D000803F59F48091C30187FF0DC01092C30173
:1013E00041110BC01092BE0108C0813F81F4809171
:1013F000C30118169CF3442381F08091C40190919D
:10140000C501892B09F05AC01092BD010895823F91
:1014100049F447FFF0CF1092C2018091C3018111BE
:10142000ECCFE0CF833F19F41416ACF3E4CF9091E6
:10143000C401893F29F41916F4F61092C401DBCFD8
:101440008A3F19F497FFD7CFF8CF9091C5018B3F12
:1014500029F497FFD0CF1092C501CDCF8C3F19F45E
:101460001916CCF3C8CF9CE0980F953090F4845FA8
:10147000990B21E030E0B90102C0660F771F8A9511
:10148000E2F7CB0180959091C10189238093C1013E
:10149000B2CF8D3F31F48091BF018E7F8093BF0129
:1014A000AACF8E3F21F48091BF018D7FF7CF8F3F70
:1014B00009F0A1CF8091BF018B7FF0CF08950E94EA
:1014C0008E1E9C019091C2018091C301982B21F046
:1014D0003093BC012093BB019091C4018091C50160
:1014E000982B21F03093BA012093B90180EC91E060
:1014F0000C94DC11EF92FF920F931F93CF93DF9325
:1015000000D000D000D0CDB7DEB786E0E0ECF1E04F
:10151000DE01119601900D928A95E1F7E090C201EB
:10152000F090C3010091C4011091C5011092C20155
:101530001092C3011092C4011092C5018E2D8F2903
:1015400091F08091BB019091BC010E94A61EAC015C
:101550009091BE01992309F43FC080910601841740
:10156000150608F447C0802F812B91F08091B901B6
:101570009091BA010E94A61EAC019091BD019923E1
:1015800009F477C0809102018417150608F47FC022
:101590008091C2019091C301892B9091C401892B44
:1015A0009091C501892B11F00E945F0A86E0FE012F
:1015B0003196A0ECB1E001900D928A95E1F7269664
:1015C0000FB6F894DEBF0FBECDBFDF91CF911F9154
:1015D0000F91FF90EF900895209107018AE0289FD6
:1015E000900111242417350708F0BDCF9F5F909319
:1015F000BE0102C09F3FD1F7EE2059F00E940909B9
:101600009FEF1E140CF491E0899F802D112480938C
:10161000C201FF2059F00E9409099FEF1F140CF42A
:1016200091E0899F802D11248093C3013091C201E4
:10163000332309F498CF2091C301222309F493CFD7
:1016400045EB3403C0011124992359F09093C20152
:1016500045EB240390011124332339F03093C30167
:1016600082CF81E08093C201F3CF81E08093C301F8
:101670007ACF209103018AE0289F9001112424173A
:10168000350708F085CF9F5F9093BD0102C09F3F53
:10169000D1F7002359F00E9453099FEF10160CF464
:1016A00091E0899F802D11248093C401112359F06A
:1016B0000E9453099FEF11160CF491E0899F802D31
:1016C00011248093C5013091C401332309F460CF04
:1016D0002091C501222309F45BCF45EB3403C001FF
:1016E0001124992359F09093C40145EB24039001F0
:1016F0001124332339F03093C5014ACF81E0809320
:10170000C401F3CF81E08093C50142CF86E0E0ECD5
:10171000F1E0DF011D928A95E9F71092BE01109267
:10172000BD011092BF01089583E290E00E941F293D
:10173000813289F484E290E00E941F29823159F4B9
:1017400085E290E00E941F2991E0893209F090E043
:10175000892F8170089580E0FCCFCF93C82F6FEF61
:10176000811161E283E290E00E942D296FEFC111A7
:1017700062E184E290E00E942D296FEFC11169E2DD
:1017800085E290E0CF910C942D2980E00E94AD0B72
:101790000C94071D089586E290E00E941F29682F8F
:1017A00070E090E080E0089586E290E00C942D29AE
:1017B0000E94CA0B0E94940B81110CC060E070E083
:1017C000CB010E94D40B0E941C0D0E94080E81E0E8
:1017D0000C94AD0B0895CF93FB01C281CC2309F18A
:1017E0009C0122513F452031310520F582510E9454
:1017F000180EC0E08C2FCF91089581E00E94A11AAD
:1018000043E062E081E00E943205F3CF81E00E9474
:10181000C21A43E062E081E00E943205EBCF82E031
:10182000F6CF8031FFE59F0789F381319F45B9F3FA
:10183000C1E0E0CF8031EFE59E07F9F281319F45AD
:10184000C9F682E0DBCF2FEFFC0120830895EF92F1
:10185000FF920F931F93CF93DF93EC01062FE88144
:10186000E150E33108F05EC0F0E0E656F64D0C942E
:101870005F26198289E08A83602FCE01DF91CF91A4
:101880001F910F91FF90EF900C947A1F8981823005
:1018900069F0833071F08130D9F40E949A1E0E9461
:1018A00065266A837B838C839D83E6CF0E94CB0B66
:1018B000F6CF7E0182E0E80EF11C10E0812F0E943D
:1018C000F702F70181937F011F5F1A30B9F7D4CF78
:1018D000602FCE010E94230CCFCF89818230C1F7C7
:1018E0006A817B818C819D810E9465260E94D40B38
:1018F000C3CF4B816A8189810E94EE0C982789278A
:1019000098279D838C83B8CF2C813D813227232754
:1019100032274B816A8189810E94070DADCF0E94D9
:101920001C0DAACF8FEF8883A7CF0E94B10D8983AA
:10193000A3CF0E94B30D9827892798279A8389837C
:101940009BCF6B8170E089819A81AE014C5F5F4FC4
:101950009827892798270E94B60D8ECF6B8170E05B
:1019600089819A81AE014C5F5F4F9827892798271C
:101970000E94DD0D81CF0E94080E7ECF0E94DB0CFD
:10198000D6CF6B8170E089819A81AE014C5F5F4F49
:101990009827892798270E94540D6ECF6B8170E09D
:1019A00089819A81AE014C5F5F4F982789279827DC
:1019B0000E947A0D61CF84E0089590E1699FB001A3
:1019C000112450E0440F551F640F751F90EA899F42
:1019D000600D711D1124CB01879608950F931F93FD
:1019E000CF93DF930E94DD0C8C010E941F29C82F2A
:1019F000D0E0DC2FCC27C80101960E941F299E0150
:101A0000282BC901DF91CF911F910F9108950F935A
:101A10001F93CF93DF93122F032F0E94DD0CEC0155
:101A2000602F0E942D29612FCE010196DF91CF9169
:101A30001F910F910C942D29AF92BF92CF92DF92FC
:101A4000EF92FF921F93CF93DF938CEAC82E80E032
:101A5000D82ED0E07601C0E014C0F5012591349174
:101A6000412F6C2F8D2F0E94070D82E0A80EB11C14
:101A70001F5F183091F780E1E80EF11CCF5FCA308C
:101A800019F0570110E0E9CFDF5F80EAC80ED11CE2
:101A9000D43001F7DF91CF911F91FF90EF90DF904D
:101AA000CF90BF90AF900895EF92FF920F931F9346
:101AB000CF93DF93EC018A017C01E60EF71ECE0185
:101AC0008796CE15DF0539F4DF91CF911F910F91E5
:101AD000FF90EF900895C03822E0D20740F40E94B2
:101AE0001F29F80180830F5F1F4F2196E8CFF8016F
:101AF0001082F9CFCF92DF92EF92FF920F931F9354
:101B0000CF93DF937C016A018C01060F171FEC0154
:101B1000CE018796C017D10749F4DF91CF911F916D
:101B20000F91FF90EF90DF90CF900895C03822E0A2
:101B3000D20740F4FE01EE19FF09EC0DFD1D608196
:101B40000E942D292196E4CF462F843038F47A3034
:101B500028F4683018F4672F0C94EE0C90E080E0C5
:101B6000089580E1089589E591E00895EF92FF924C
:101B70000F931F93CF93DF93EC018A017C01E60E54
:101B8000F71ECE0189559D4FCE15DF0539F4DF9143
:101B9000CF911F910F91FF90EF900895C93521E0EB
:101BA000D20740F40E941F29F80180830F5F1F4F66
:101BB0002196E7CFF8011082F9CFCF92DF92EF9212
:101BC000FF920F931F93CF93DF937C016A018C01E7
:101BD000060F171FEC01CE0189559D4FC017D10785
:101BE00049F4DF91CF911F910F91FF90EF90DF901B
:101BF000CF900895C93521E0D20740F4FE01EE19D7
:101C0000FF09EC0DFD1D60810E942D292196E3CF77
:101C1000CF93DF93C7EAD2E060E0CE010E942D2986
:101C20002196C11584E0D807B9F7DF91CF910895C7
:101C3000DF92EF92FF920F931F93CF93DF9300D029
:101C400000D0CDB7DEB7F82E8FE08F1540F08FEFC4
:101C500093E00E941F2907EA12E08823C1F00F9049
:101C60000F900F900F90DF91CF911F910F91FF90E8
:101C7000EF90DF900895011584E0180781F3C80103
:101C80000E941F29811101C0FA940F5F1F4FF110AC
:101C9000F2CF19821A821B821C82DD24D394780130
:101CA0008FEFE81AF80AC8010E941F2989831A8257
:101CB0008823A9F29FEF980F933078F48A83D98212
:101CC0000E5F1F4FC7010E941F298B83882339F2A3
:101CD000CE0101960E948906E2CF8701F9CF0F93CA
:101CE0001F93CF93DF93C42FD22FFC0182818823CF
:101CF000C9F04093C8010E948E1E9093C701809343
:101D0000C60180E28C0F883008F050C0C77081E0B7
:101D100001C0880FCA95EAF7DF91CF911F910F910B
:101D20000C942E141091C801141335C08091C60173
:101D30009091C7010E94A61E883C910560F5C0E203
:101D4000CD0F1D17B9F080E2810F883040F4177075
:101D500081E001C0880F1A95EAF70E943514C83057
:101D600048F481E09D2F977001C0880F9A95EAF79B
:101D70000E942E14802F0E942614C830B8F4D77009
:101D800081E001C0880FDA95EAF7DF91CF911F91CA
:101D90000F910C94351480E28C0F883038F4C770A2
:101DA00081E001C0880FCA95EAF7EFCFDF91CF91AC
:101DB0001F910F9108950F939C01CB01233F4CE598
:101DC000340759F1A8F4283DFCE53F0701F1293D0E
:101DD0004CE53407D1F1273D3C4591F406E221EE74
:101DE00041EE67ED7CE50E946F0E80E00F91089553
:101DF000253FFCE53F07E9F0B0F0263F3C45F9F010
:101E0000FC018281882339F11092C801EFCF07E2EB
:101E100025EE45EE68ED7CE5E6CF06E221EE40EEEC
:101E200063EF7CE5E0CF07E225EE44EE64EF7CE56E
:101E3000DACF06E221EE42EE65EF7CE5D4CF07E291
:101E400025EE46EE66EF7CE5CECF08E221E045EEDA
:101E500069ED7CE5C8CF81E0C9CFCF93DF93EC017A
:101E6000FB018281882309F419C1C230FCE5DF0738
:101E7000C0F1C6319CE5D90730F09E012A5F3C4590
:101E80002930310570F50E94201D909374028093D3
:101E90007302C031ECE5DE0709F4CFC008F05BC087
:101EA000C8308CE5D80709F4B6C088F5C430ECE535
:101EB000DE0709F4A8C0C0F4C2308CE5D80709F4E5
:101EC0009CC0809173028260C330DC4509F498C0E5
:101ED00080917302909174020E942E1D0E94A71699
:101EE00080E0DF91CF910895809173028061C630C8
:101EF000ECE5DE0709F484C0809173028860C73086
:101F0000DC4508F47DC080917302806279C0CC30DA
:101F10008CE5D80709F489C070F4809173028C6055
:101F2000CA30ECE5DE0709F46BC008F478C0809194
:101F300073028E7F65C0CE308CE5D80709F479C076
:101F4000809173028B7FCF30DC4508F459C08091BB
:101F500073028F7E55C0CB3FECE5DE0709F457C016
:101F600030F5C3318CE5D80709F46FC078F4C1317E
:101F7000ECE5DE0709F465C0C231DC4509F0A8CF05
:101F80000E94A716809173028F773AC0C5318CE505
:101F9000D80709F462C008F476C0809174028160A9
:101FA000CA3FDC4509F094CF8093740291CFCF3FB4
:101FB000FCE5DF0709F44DC088F4809174028D7F41
:101FC000CD3F9CE5D90781F3809174028E7FCE3F8F
:101FD000DC4550F3809174028360E6CFC130FDE5AB
:101FE000DF0709F459C008F444C080E0C230DD4581
:101FF00009F06ECF0E94B41D6BCF80917302816097
:102000008093730265CF809173028460F9CF8091D1
:1020100074028260C9CF809173028064F1CF0E9404
:10202000A716809173028068EBCF809173028D7F39
:10203000E7CF80917302877FE3CF809173028F7D1A
:10204000DFCF809173028F7BDBCF80917302837F20
:10205000D7CF809174028C7FA7CF8091730282FBCF
:10206000992790F921E0922790FB82F990FB83F960
:10207000C7CF80917402982F909591708E7F892B95
:1020800090FB81F991CF0E94A71690917302892F3E
:1020900097FB87F98058B4CF81E0ACCF81E021CFA6
:1020A000CF93DF93EB0186319C4511F50E94481CCC
:1020B0009A81992399F08A7A91E009F490E09093BB
:1020C000C901811109C089E20E94021C0E94981C6A
:1020D00080E0DF91CF91089585E3F6CF8091C9012B
:1020E000811104C089E20E94091CF0CF85E3FBCF77
:1020F00081E0EFCF0F931F93CF93DF938C01EB0120
:102100008091080182FF2DC08B7F80930801809110
:10211000CC019091CD019B01281B390B80910901C5
:1021200090910A012817390788F48091CA010E940A
:102130002713809108018D7F809308018091CA0147
:102140000E94B91382E00E94611C15C082E00E94C7
:102150005B1C8091CA010E94271380910801826054
:10216000EBCF802F0E94B9138091CA019091CB01CF
:102170000817190739F30E94981CD093CD01C0931A
:10218000CC01DF91CF911F910F91089580910801AB
:1021900082FF18C00E948E1E2091CC013091CD018B
:1021A000AC01421B530B9A014091090150910A0165
:1021B0002417350738F0BC018091CA019091CB01FA
:1021C0000C947A10089590910801892F8E7F90FFCA
:1021D00081608093080182E00C94611C8091080169
:1021E0008E7F8093080182E00C94611C0F931F93F3
:1021F000CF93DF93CDB7DEB728970FB6F894DEBF45
:102200000FBECDBF80910A018F93809109018F93FA
:102210008BE591E09F938F931F9288E08F938E01BF
:102220000F5F1F4F1F930F930E948026C8010E94CB
:1022300089060FB6F894DEBF0FBECDBF28960FB645
:10224000F894DEBF0FBECDBFDF91CF911F910F91EC
:1022500008958B32910521F028F40497849758F45F
:1022600081E008958D32910530F089339105C0F3F6
:1022700084369105A9F380E00895CF92DF92EF9222
:10228000FF921F93CF93DF93EC016B010E948E1E90
:102290007C01F60112811123F1F08091080182FF87
:1022A00005C0B70190E080E00E947A1082E00E94B1
:1022B000611CC931FCE5DF07E9F1A8F4C731ECE5A1
:1022C000DE0771F18091090190910A010597C831EB
:1022D000FCE5DF0751F1B601CE010E942911811101
:1022E0002CC011E00EC0CB318CE5D80799F038F046
:1022F000CC31FCE5DF0779F70E94EE1002C00E94A6
:10230000E310812FDF91CF911F91FF90EF90DF902D
:10231000CF90089580910801816080930801F1CFEA
:102320008091090190910A01059690930A0180938A
:102330000901E7CF0E94F610E4CFF60112811123C4
:10234000D1F08091080180FFCCCF0E94481C811100
:10235000C8CFD093CB01C093CA01F092CD01E092D7
:10236000CC018091080184608093080182E00E9482
:10237000E91C10E0C6CFB701CE010E947A10C1CF90
:102380009093D3018093D2010895E091D201F0910E
:10239000D301309721F00190F081E02D099480E085
:1023A0000895E091D201F091D301309721F002809D
:1023B000F381E02D09940895E091D201F091D301C9
:1023C000309739F022E0DC012C930480F581E02D78
:1023D000099408952091D0013091D101281739072F
:1023E00071F09093D1018093D001E091D201F091EE
:1023F000D301309721F00680F781E02D09940895EC
:102400002091CE013091CF012817390771F09093B8
:10241000CF018093CE01E091D201F091D3013097AA
:1024200021F00084F185E02D099408950E949A1E00
:102430006093E3017093E4018093E5019093E601DA
:102440006093DF017093E0018093E1019093E201DA
:10245000089585B7806885BF85B7806885BF089572
:10246000089508950C94301208950C9434120E942B
:10247000291285E09DE10E94EA1E0E9431120C940F
:10248000321281E008950C944112089508950E943B
:1024900045120C9446120E94851E0E94FE020E9464
:1024A000D80B0C943512AF92BF92CF92DF92EF927D
:1024B000FF920F931F93CF93DF93CDB7DEB72A9789
:1024C0000FB6F894DEBF0FBECDBF0E94840381110A
:1024D0000E94161285EDA82E81E0B82E10E000E0D3
:1024E000C02E802F0E94F702E82EF501F1905F01C7
:1024F000F81609F44DC08091670281FD0E94FD022B
:102500008F2D8E25D12CFF24F394982F9F21D9F164
:102510000E944312882399F0DE82CF82EF2081E06F
:1025200009F480E088870E948E1E8160782F9A8748
:1025300089874E815F8168858A850E94F012F80143
:10254000EB52FE4F8081F826F0820E947A0A0E94A8
:10255000C5119091D401891791F10E94C511809302
:10256000D4012A960FB6F894DEBF0FBECDBFDF911F
:10257000CF911F910F91FF90EF90DF90CF90BF9080
:10258000AF900C949306D394FF0CF8E0DF12BDCF0C
:102590000F5F1F4F0A30110509F0A2CF8FEF89831B
:1025A0008A831B820E948E1E8160782F9D838C837C
:1025B00049815A816B818D810E94F012C6CF2A9683
:1025C0000FB6F894DEBF0FBECDBFDF91CF911F9144
:1025D0000F91FF90EF90DF90CF90BF90AF90089554
:1025E000DF92EF92FF920F931F93CF93DF93CDB7BC
:1025F000DEB72B970FB6F894DEBF0FBECDBF7A873C
:102600008B87F42E052F162FE72ED82E61110E94EE
:10261000681C1E821D827E2DEC82DD824F2D502F84
:10262000612F8D2D9E812B960FB6F894DEBF0FBEC5
:10263000CDBFDF91CF911F910F91FF90EF90DF9071
:102640000C941D19FC01808191810C94D41BCF93B3
:10265000C82F882309F48BC08238C1F40E94C511A9
:1026600081FD85C089E30E94021C0E94981C2FEF07
:1026700081EE94E0215080409040E1F700C00000DE
:1026800089E30E94091CCF910C94981C8338A1F413
:102690000E94C51180FD6BC083E50E94021C0E9450
:1026A000981C2FEF81EE94E0215080409040E1F79C
:1026B00000C0000083E5E5CF8438A1F40E94C51175
:1026C00082FD55C087E40E94021C0E94981C2FEFD7
:1026D00081EE94E0215080409040E1F700C000007E
:1026E00087E4CFCF8CEF8C0F813A90F46C2F8091E0
:1026F0000B0190910C010E94CB1D882329F08C2F97
:102700000E94091C0E94981C8C2F0E94021CBBCFA7
:1027100080E28C0F883048F4C77081E001C0880FD8
:10272000CA95EAF70E944B1CAECFEBE5EC0FE33005
:1027300040F4F0E0E257FE4F808190E0CF910C949E
:10274000EA11E8E5EC0FE73150F4F0E0EE0FFF1F7F
:10275000E05AFE4F80819181CF910C940012C03FCE
:1027600030F08C2F0E948C09CF910C945F0ACF918E
:102770000895882309F452C0823871F40E94C5116B
:1027800081FF4CC089E30E94021C0E94981C89E3CF
:102790000E94091C0C94981C833859F40E94C5119E
:1027A00080FF3CC083E50E94021C0E94981C83E5C8
:1027B000EFCF843859F40E94C51182FF2FC087E4FF
:1027C0000E94021C0E94981C87E4E2CF9CEF980FA5
:1027D000913AF0F290E2980F983050F4877091E0BF
:1027E00001C0990F8A95EAF7892F0E94511CD2CF18
:1027F0009BE5980F933020F490E080E00C94EA1170
:1028000098E5980F973120F490E080E00C94001246
:10281000803F20F00E94E6090C945F0A08951F9300
:10282000CF93DF93182FEB010E942713209731F4E9
:10283000812FDF91CF911F910C94B9138FE99FE005
:102840000197F1F700C000002197F0CF70E060E041
:10285000893311F460E570E00C940F14882321F0A3
:102860000E944B1C0C94981C0895882321F00E9410
:10287000511C0C94981C0895BF92CF92DF92EF9256
:10288000FF920F931F93CF93DF936C01D62FC72F27
:10289000FC011281058102950F700E94201CE82E18
:1028A0008823A1F0E12E112389F08C2F807F8034C2
:1028B00029F080E28D0FE12C883040F082E00E9408
:1028C000E91C0E94201C91E0E82EE926BC2EB2945F
:1028D0009FE0B922EB2DF0E0E355F64D0C945F2616
:1028E0000C2F0F70C07F11F00295007F1123A9F00B
:1028F000002359F080E28D0F883010F0D11109C00B
:10290000802F0E944B1C0E94981C8D2F0E94271321
:1029100014C0802F0E945B1CF6CF8D2F0E94B9132C
:10292000002359F080E28D0F883010F0D1112CC0B7
:10293000802F0E94511C0E94981C2B2D2850330B75
:102940002430310520F40E94C5110E949306EE2028
:1029500009F49EC10E941C1C80FD9AC1F6011282DE
:102960000E94161C0E94A11AC6010E9469160E94AC
:10297000161CDF91CF911F910F91FF90EF90DF9088
:10298000CF90BF900C94C21A802F0E94611CD3CFAD
:10299000FC2FFF70FF2EC07FC03219F0F29480EF41
:1029A000F822DD2369F0D13049F1112391F10023A0
:1029B00051F1F601858180FFA8CF8F70858323C0F8
:1029C000112381F0011106C00E947B1C8F290E94F7
:1029D0002E14B3CF0130C1F70E947B1C8F290E94B7
:1029E000811CABCF011106C00E948E1C8F2D0E944E
:1029F0003514A3CF013009F4A0CFF6CF112329F06D
:102A0000063008F09ACF8F2DE2CF053008F095CF31
:102A1000EDCF002359F3D93349F4FFEF27EE33E02C
:102A2000F15020403040E1F700C000008D2F0E949F
:102A3000B91383CF8C2F86958695837069F081308A
:102A400009F07BCF8D2F9C2F9370111102C090E065
:102A500080E00E94001271CF8D2F9C2F9370111176
:102A600002C090E080E00E94EA1167CF8D2F112311
:102A700029F00E948C090E945F0A5FCF0E94E6093C
:102A8000FACF8C2F837009F041C0111156CF4D2F12
:102A9000429546954770440F440F0D2F0F7010E07C
:102AA00030E020E0042E04C0000F111F221F331F4E
:102AB0000A94D2F760E070E0CB01D4FF0FC06FE062
:102AC00070E080E090E004C0660F771F881F991FB8
:102AD0004A95D2F76095709580959095C695C69564
:102AE000C370602B712B822B932BC23049F058F4AA
:102AF000C13019F00E94531A20CF0E94411A1DCFF5
:102B00000E94651A1ACF0E943F1A17CF869511238B
:102B100011F08C2F8170882309F40FCF4D2F42952F
:102B200046954770440F440F0D2F0F7010E030E0B2
:102B300020E0042E04C0000F111F221F331F0A942F
:102B4000D2F760E070E0CB01D4FF0FC06FE070E01F
:102B500080E090E004C0660F771F881F991F4A9598
:102B6000D2F76095709580959095C695C695C3707F
:102B7000602B712B822B932BC23049F058F4C1305B
:102B800019F00E94181BD9CE0E94061BD6CE0E94B7
:102B90002A1BD3CE0E947B1AD0CECF70112329F0EE
:102BA0008C2F0E94A11A8D2F12CF8D2F0E943514C9
:102BB0008C2F0E94C21AC1CED23F89F160F4D03F5F
:102BC000C9F0D13F29F1112309F442C001119DCE72
:102BD0008C2F8F7121C0D33F39F1D43FA1F711233E
:102BE00069F1CF718C2F0E94A11A63E08C2F0E9493
:102BF000CE1CA3CE112341F0053008F09ECE8C2FC1
:102C00008F710E94E51A99CE063008F096CEF7CF64
:102C10008C2F8F71112369F20E94A11A8ECE8C2FF6
:102C20008F711123C9F3C5CF112329F08C2F8F7118
:102C30000E948C1A82CE0E94871A7FCE81E00E9469
:102C4000E91C023008F479CE82E00E94E91C75CEBE
:102C5000002359F0D93309F0E9CE8FEF97EEE3E086
:102C600081509040E040E1F7DFCE8C2F8F71A1CFF3
:102C70004C2F4F706D2FC6010E949B060E94B71902
:102C80005CCE4C2F4F706D2FC6010E949E0655CE14
:102C9000DF91CF911F910F91FF90EF90DF90CF9038
:102CA000BF9008950F931F93CF93DF93EC0168813A
:102CB00079818A810E94DE1B8C010E943C1B0E944C
:102CC0003E1AB801CE01DF91CF911F910F910C9464
:102CD0003C14CF93DF93EC018B819C81892B29F0ED
:102CE0008881998189238F3F59F4DF91CF9108958D
:102CF000CE010E945216CE01DF91CF910C94D304E5
:102D0000CE010E945C058111F3CF0E94201C882314
:102D100061F38A81882349F382E0DF91CF910C949B
:102D2000E91C90E080E00E94EA1190E080E00E94BF
:102D300000120E94681C0E94781C0E94981C0E942D
:102D4000860B0C945F0A0E94101C0C9491160E9432
:102D5000581C0C94A316E92FE295EF70E250EE3068
:102D600070F4F0E0E354F64D0C945F26803F19F0C8
:102D700020F4883E20F481E00895843FE1F380E070
:102D80000895883EC0F3813FD1F7F5CF93FB8827A4
:102D900080F908950E94D41B0C94AB16CF93DF9357
:102DA00000D000D00F92CDB7DEB70F900F900F90EC
:102DB0000F900F90DF91CF910895CF93DF9300D0C4
:102DC00000D000D0CDB7DEB726960FB6F894DEBFA0
:102DD0000FBECDBFDF91CF9108951F93CF93DF93A7
:102DE000C091E80116E08091E9018C1304C0DF91E5
:102DF000CF911F910895D0E01C9FF0011D9FF00D11
:102E00001124E651FE4F408151816281738184819A
:102E100095810E94DD162196C770E5CF40911A0278
:102E200050911B0260911C0270911D0280911E0244
:102E300090911F020C94DD161F93CF93DF93809126
:102E40001F02807FA9F480911C02882389F0809161
:102E5000E801C091E90160911A0270911B02A091F2
:102E60001D02B0911E02D62FD72316E0C81304C04E
:102E7000DF91CF911F91089590E0109711F0DF3FFF
:102E800019F401968770F2CF189F9001199F300DA9
:102E90001124F901E651FE4F41814713F2CF4081E1
:102EA0004613EFCF42814111ECCF438154814A1B3D
:102EB0005B0B483C510528F780911F028F708061A1
:102EC00080931F02F901E151FE4F80818F70806174
:102ED00080838AE192E00E946916DF91CF911F9171
:102EE0000C94ED16AF92BF92CF92DF92EF92FF92C9
:102EF0000F931F93CF93DF93CDB7DEB761970FB6D4
:102F0000F894DEBF0FBECDBF8C0185E0F801DE0175
:102F10001D9601900D928A95E1F7F801408151814B
:102F2000E2808AE1C82E82E0D82E60911D02709165
:102F30001E026115710509F461C190911A02209178
:102F40001B02892F82238F3F09F458C1A380B480CC
:102F5000F0901C02F501E61BF70BFF2009F4FCC002
:102F600080911F02382F307FE83CF10508F0B2C095
:102F7000311179C0FE2C251323C0941321C0E11018
:102F80001FC08F70806180931F020E940E17C601C0
:102F90000E94691680911F02F80185838F2D61962A
:102FA0000FB6F894DEBF0FBECDBFDF91CF911F915A
:102FB0000F91FF90EF90DF90CF90BF90AF9008956A
:102FC000AB2829F0842F85238F3F09F033C180E09F
:102FD000F82FF170DF2E80FF3CC08091E801209136
:102FE000E90136E0821315C04D875E878D859E8589
:102FF0000E94D41B292F22952F702230F0F024300C
:1030000018F59F70F1F0F8019581907FD1F4D12CE3
:103010001EC090E0389FF001399FF00D1124E65159
:10302000FE4F6181651306C06081641303C0628135
:103030006E110FC001968770D5CF9F7011F0882355
:1030400031F3805E883018F3C8010E946916FD2CA8
:10305000A5CFEE2009F4A2CF80911F02816080935A
:103060001F02F12C9BCF251306C0941304C0F80156
:10307000EE2009F48DC04D875E878D859E850E9468
:10308000CA16882319F1EE2009F180911F028032BF
:1030900070F020911A0230911B0238872F83198615
:1030A000BB86AA868C87CE0107960E94691686E0A9
:1030B000F801AAE1B2E001900D928A95E1F70E9431
:1030C0001C170E940E17FF24F39468CFC8010E94BA
:1030D0006916F9CF311113C07A2DB98AA88A6E2DDD
:1030E00089890E94CE168AE192E00E94691686E0E4
:1030F000F60111928A95E9F70E940E17B2CF2513B7
:103100000FC094130DC0E1100BC0F8018583C801F6
:103110000E94691686E0F60111928A95E9F73ECF82
:103120004D875E878D859E850E94CA16882371F221
:10313000EE2061F280911F02803208F4B8CF209116
:103140001A0230911B023A8329831B82BD82AC8212
:103150008E83CE010196A9CFE83CF10508F041C06D
:10316000FE2CEE2009F4B2CF25132AC0941328C0F8
:1031700080911F0280FD1BC0982F907FC1F0F80145
:103180008583903F31F0982F907F905F8F70892BCF
:103190008583C8010E94691686E0F801AAE1B2E0C1
:1031A00001900D928A95E1F70E940E17F7CE86E006
:1031B000F801AAE1B2E001900D928A95E1F7EECE16
:1031C0004D875E878D859E850E94CA1681116FCFBF
:1031D00080911F02816080931F02C8010E946916BE
:1031E000DDCE7A2DB98AA88A6E2D89890E94CE16E5
:1031F00086E0F60111928A95E9F7D6CFEE2009F420
:1032000065CF4D875E878D859E850E94CA16F82EF4
:10321000882309F45BCF86E0F801AAE1B2E00190CF
:103220000D928A95E1F78AE192E00E9422130E94B2
:103230001C17BACF81E08E25CBCE1F93CF93DF939F
:10324000CDB7DEB72C970FB6F894DEBF0FBECDBF5B
:103250004F83588769877A878B879C87CE0107962B
:103260000E947217882369F08A859B85892B39F023
:103270004F815885842F85238F3F09F071C016E058
:103280005FC086E0FE013796DE01119601900D9237
:103290008A95E1F78A859B85892B89F38F819885AB
:1032A00089238F3F61F32091E90130E0C901019644
:1032B000877099274091E8014817190671F40E9418
:1032C000A7161092E9011092E80186E0EAE1F2E027
:1032D000DF011D928A95E9F7D2CF96E0929FD00147
:1032E000939FB00D1124A651BE4FFE01319601905F
:1032F0000D929A95E1F78093E9010E94ED16BFCFF8
:10330000819FC001112486519E4F0E94721788230D
:10331000E9F0E091E8011E9FF0011124E651FE4F13
:103320004081518162817381848195810E94DD1683
:103330008091E80190E00196877099278093E801D9
:103340008091E8019091E9018913DACF2C960FB6AC
:10335000F894DEBF0FBECDBFDF91CF911F910895CE
:1033600069857A858B859C850E94DD1688CFEF92D2
:10337000FF920F931F93CF93DF938C01892B81F0E2
:10338000F12CEE24E394E8012196F801849184372E
:1033900070F4843008F05FC08130B1F08230A1F168
:1033A000DF91CF911F910F91FF90EF900895853796
:1033B00009F44CC008F43DC09CE7980F903780F7A3
:1033C0008F770E94B91349C00E5F1F4FFE01849191
:1033D00090E2980F983060F48770FE2D01C0FF0FC7
:1033E0008A95EAF78F2F0E946B1C0E94981C02C0DE
:1033F0000E9427138F2D815030F2EFE9FFE03197C3
:10340000F1F700C00000F7CF0E5F1F4FFE0184915F
:1034100090E2980F983050F48770FE2D01C0FF0F96
:103420008A95EAF78F2F0E94711CDFCF0E94B91393
:10343000E1CF0E5F1F4FFE01C491C150D8F28FE95A
:103440009FE00197F1F700C00000F7CF0E5F1F4F1C
:10345000FE01F490CFCF0E9427138E01CBCF0895A9
:103460000C942F1A0E94301A6093560270935702E0
:1034700080935802909359020C94911608950C94DD
:10348000321A0F931F930091560210915702209108
:10349000580230915902602B712B822B932B1F9174
:1034A0000F910C94321A0F931F93009156021091B2
:1034B00057022091580230915902602371238223D0
:1034C00093231F910F910C94321A0F931F93009125
:1034D00056021091570220915802309159026027EC
:1034E0007127822793271F910F910C94321A0C9405
:1034F0002F1A0C94771A0E94791A609352027093D3
:10350000530280935402909355020C94911660E0FC
:1035100070E0CB010C947B1A0F931F9341E050E0B5
:1035200060E070E08A019B0104C0000F111F221FA0
:10353000331F8A95D2F7C901B8011F910F910C94DE
:103540007B1A0F931F9341E050E060E070E004C0ED
:10355000440F551F661F771F8A95D2F7809152023C
:1035600090915302A0915402B09155028A019B019F
:10357000082B192B2A2B3B2BC901B8011F910F9146
:103580000C947B1A0F931F9341E050E060E070E0D1
:1035900004C0440F551F661F771F8A95D2F7CB01D1
:1035A000BA016095709580959095009152021091A6
:1035B00053022091540230915502602371238223DB
:1035C00093231F910F910C947B1A0F931F9341E04B
:1035D00050E060E070E004C0440F551F661F771F85
:1035E0008A95D2F78091520290915302A091540291
:1035F000B09155028A019B01082719272A273B27EA
:10360000C901B8011F910F910C947B1A0F931F935E
:1036100000915202109153022091540230915502B0
:10362000602B712B822B932B1F910F910C947B1A83
:103630000F931F9300915202109153022091540254
:103640003091550260237123822393231F910F91A0
:103650000C947B1A0F931F93009152021091530206
:1036600020915402309155026027712782279327B9
:103670001F910F910C947B1A0895990F990F990F30
:10368000890F982F977041E001C0440F9A95EAF78F
:1036900086958695869595E0899FF0011124E05ED8
:1036A000FD4F30E020E070E05191DF011197CB0138
:1036B000022E02C0969587950A94E2F78170819553
:1036C0008527842385278C932F5F3F4F2530310535
:1036D00059F70895990F990F990F890F982F97709F
:1036E00086958695869525E0829FF0011124E05EFF
:1036F000FD4F50E040E080E0219130E0092E02C013
:10370000369527950A94E2F721703327042E01C0DD
:10371000220F0A94EAF7822B4F5F5F4F4530510525
:1037200059F70895BF92CF92DF92EF92FF920F93D5
:103730001F93CF93DF938C01C0905202D09053021D
:10374000E0905402F09055028091560290915702F9
:10375000A0915802B0915902C82AD92AEA2AFB2A14
:10376000CFE1D0E0BC2ED701C6010C2E04C0B69527
:10377000A795979587950A94D2F780FD0EC021975B
:1037800088F7B12C8B2DDF91CF911F910F91FF9076
:10379000EF90DF90CF90BF900895B8018C2F0E94DA
:1037A000A706019761F3EECFCF93DF93EC010E9460
:1037B000921BBE01DF91CF910C94A7061F93CF936C
:1037C000DF93EB019091E701992331F0CB01DF9179
:1037D000CF911F910C94D41B882379F0CB010E94C8
:1037E000921B182F682FCE010E943D1BBE01812F16
:1037F000DF91CF911F910C94A706CB010E946A1B09
:10380000182FF4CF682F80910B0190910C010C942C
:10381000011E682F80910B0190910C010C94031EE6
:1038200080910B0190910C010C94051E80915A021D
:10383000859585958595089580915A02877008959C
:1038400090915A02977081E009F480E00895909178
:10385000740292FB222720F9281751F080FB92F97D
:103860009093740280917302909174020C942E1DB7
:1038700008958091740282FB882780F991E089275E
:103880000C94271C81E00C94271C80E00C94271CCE
:1038900080916602089590916602892B809366025A
:1038A00008958095909166029823909366020895FA
:1038B00010926602089590916502892B80936502AB
:1038C00008958095909165029823909365020895DC
:1038D00010926502089590916402892B809364028E
:1038E00008958095909164029823909364020895BE
:1038F00010926402089580915B02089508950C94DB
:103900007E1C9091740292FD08C090915B02981702
:1039100021F080935B020C947F1C089580915B02E0
:10392000882329F010925B0280E00C947F1C08959C
:10393000E0910B01F0910C01809166028083E0918F
:103940000B01F0910C01808190916502892B80839D
:10395000E0910B01F0910C01808190916402892B20
:10396000808390915B02992381F0E0910B01F091AB
:103970000C018081892B808380910B0190910C0137
:103980000E94B91D81110E948E1C80910B019091A3
:103990000C010C94D11108950C94CB1C90917402DD
:1039A00092FD10C098E0899F90011124622B6093D2
:1039B0005A020E94A11A80915A0285958595859593
:1039C0000C94CC1C0C94A11A10925A0280E00C9416
:1039D000CC1C90915A028095892380935A02282FFB
:1039E000277039F4282F082E000C330B921713067A
:1039F00021F49091740292FF07C085958595859575
:103A00000E94C21A0C94E41C089580E008956FEFA0
:103A10007FEF90E080E00C944B2990E080E00E94E2
:103A2000272921E08A3E9E4F09F020E0822F089549
:103A300082E090E00C941F2983E090E00C941F2911
:103A4000CF9384E090E00E941F29C82F82E290E08B
:103A50000E941F29982F8C2FCF910895CF93C92FA3
:103A6000682F84E090E00E942D296C2F82E290E084
:103A7000CF910C942D29AB01BC018FE090E00C9408
:103A80003F29AB01BC0183E190E00C943F2960E049
:103A900070E0CB010C94411D60E070E0CB010E940E
:103AA0003B1D0C94471D6AEE7EEF90E080E00E9483
:103AB0004B2960E082E090E00E942D2960E083E0E5
:103AC00090E00E942D2910925602109257021092F7
:103AD00058021092590260E084E090E00E942D2983
:103AE00060E082E290E00E942D2960E085E090E0B5
:103AF0000E942D2960E086E090E00E942D296FEF62
:103B000087E090E00E942D2940E050E0BA0188E073
:103B100090E00E943F2960E08DE090E00E942D2916
:103B200040E050E0BA0188E190E00E943F2960E067
:103B300087E190E00E942D2940E050E0BA018CE13D
:103B400090E00E943F2970E060E080E290E00E94F7
:103B50004B2940E050E0BA0188E190E00E943F2903
:103B60000C944C1D0C94531D682F8EE090E00C9427
:103B70002D299C012E5F3F4FAC01485F5F4F80E0D5
:103B80002417350709F40895F90191919F019923AC
:103B9000B9F38F5FF5CF662349F0FC0132960896A2
:103BA0002191261729F0E817F907D1F780E0089549
:103BB00081E008959C01FC0132969FEF80E04191E5
:103BC000461751F09F3F19F4411101C0982F8F5FA4
:103BD0008630A9F79F3F09F40895290F311D97FDFD
:103BE0003A95F90162830895FC0132960896219175
:103BF000261303C0DF0111971C92E817F907B9F7E4
:103C000008950C94DA1D0C94F41D029626E0FC0134
:103C100011922A95E9F70895089508950C940D1EC0
:103C200080917D02843049F10E940E1E80E00E9446
:103C300093061092680288E190E020E40FB6F894B1
:103C4000A895809360000FBE2093600083B7817FAA
:103C5000846083BF83B7816083BF7894889583B77E
:103C60008E7F83BF0FB6F894A8958091600088611D
:103C700080936000109260000FBE08950895CF9366
:103C80000E940C1E0E9484030E943E1EC0E08C2FE6
:103C90000E94F702811105C0CF5FCA30C1F7CF91F2
:103CA000089581E0FCCF08950C94531E0E94A7163E
:103CB0000E94C5110E9493060C94541E1F921FB6B9
:103CC0001F9211248F939F93AF93BF9380916802AB
:103CD000811113C08091750290917602A0917702B4
:103CE000B09178024196A11DB11D80937502909309
:103CF0007602A0937702B0937802BF91AF919F9123
:103D00008F911F901FBE1F90189582E084BD93E095
:103D100095BD9AEF97BD80936E0008952FB7F894E4
:103D20008091750290917602A0917702B09178020D
:103D30002FBF08952FB7F8946091750270917602A5
:103D400080917702909178022FBF08959C014FB720
:103D5000F8948091750290917602A0917702B091CB
:103D600078024FBF821B930B089578941F921FB661
:103D70001F9211248F939F93AF93BF9380917502ED
:103D800090917602A0917702B09178020196A11DE0
:103D9000B11D8093750290937602A0937702B09341
:103DA0007802BF91AF919F918F911F901FBE1F907E
:103DB000189587E797E7909301088093000888E1BA
:103DC0009AE00FB6F894A895809360000FBE909388
:103DD0006000FFCF9093A1018093A001089580918E
:103DE00071020895CF93DF9300D00F92CDB7DEB765
:103DF00090917D02943011F589837B836A8390933F
:103E0000E9008FEF9091E800815095FD06C095ED97
:103E10009A95F1F700008111F5CF8091E80085FFB8
:103E20000DC050E040E063E070E0CE0101960E94DA
:103E30006B218091E8008E778093E8000F900F90BF
:103E40000F90DF91CF910895BC0184E00C94F21E95
:103E5000BC0183E00C94F21E9C0184E08093E90095
:103E60009FEF8091E800915085FD06C085ED8A9511
:103E7000F1F700009111F5CF8091E80085FF0CC0AB
:103E800050E040E066E070E0C9010E946B21809143
:103E9000E8008E778093E8000895CF93DF93EC01DC
:103EA00081E08093E9008FEF9091E800815095FDCB
:103EB00006C095ED9A95F1F700008111F5CF80913C
:103EC000E80085FF14C050E040E068E070E0CE01FB
:103ED0000E946B218091E8008E778093E80088E053
:103EE000FE01A9E6B2E001900D928A95E1F7DF911B
:103EF000CF910895CF93FC01603221F580917D022E
:103F0000843001F5C091E900CF702091EC00922F30
:103F1000917020FD90E8C92B82E08093E9008091A8
:103F2000E80080FF0CC050E040E060E270E0CF01AC
:103F30000E946B218091E8008E778093E800CF701B
:103F4000C093E900CF91089580917C02811109C04E
:103F50000E944A230E94A7238091E20084608093FC
:103F6000E200089510927C0208950895089508953E
:103F700042E061EC81E00E94C62242E261EC84E012
:103F80000E94C62242E261EC82E00E94C62242E226
:103F900060EC83E00C94C62280917F02833009F4A8
:103FA00061C030F48130D1F1823009F49DC00895B0
:103FB0008A3009F489C08B3009F46FC0893009F068
:103FC00050C080917E02813209F04BC08091820204
:103FD00090918302009719F0029709F042C08091F6
:103FE000E800877F8093E8008091E80082FF35C079
:103FF0009091F3008091F200029729F48091F100F2
:104000008B7F813021F48091F10080937102809147
:10401000E8008B778093E8000C94FA2280917E026E
:10402000813AF9F48091E800877F8093E8008091DD
:10403000820290918302892B61F468E089E692E024
:1040400070E00E9409228091E8008B778093E8005D
:10405000089560E090E080E0F3CF80917D028111CF
:10406000C3CF089580917E02813AD9F78091820270
:1040700090918302892BA9F78091E800877F809334
:10408000E8008091E80080FFFCCF809117018093C9
:10409000F1008091E8008E77BDCF80917E02813261
:1040A00001F78091820290918302892BD1F6809151
:1040B000E800877F8093E8000E94FA2280918002C6
:1040C000809317010C94A71680917E02813249F6E5
:1040D0008091E800877F8093E8000E94FA22809117
:1040E000810280937202089580917E02813A09F0E4
:1040F000B8CF8091E800877F8093E8008091E80046
:1041000080FFFCCF80917202C2CFCDB7DEB7A097FF
:104110000FB6F894DEBF0FBECDBF84B7877F84BFD4
:104120000FB6F894A8958091600088618093600034
:10413000109260000FBE80E890E00FB6F894809374
:104140006100909361000FBE0E9437120E944A23C3
:104150000E94A7238091E20084608093E20078941B
:104160000E9430260E944B128DE091E00E94C01107
:1041700013E080917D028530B9F00E945312809146
:104180007D028430C1F00E944712F3CF0E94101EBE
:1041900080917B02882341F00E943F1E882321F0FA
:1041A0000E9455210E94A71680917D02853071F3EF
:1041B0000E94561EE2CF1093E9008091E80082FF32
:1041C000E2CF8091E80090E085FF09C050E040E038
:1041D00060E270E0CE0101960E94BA2191E08091E8
:1041E000E8008B778093E800992369F260E2CE01C2
:1041F00001960E94270CC7CF0C94FE20292F33274D
:104200002330310521F168F42130310509F443C030
:104210002230310509F444C090E080E030E020E035
:1042200026C02132310551F122323105A9F7633020
:10423000710590F7FB01EE0FFF1FEC56FE4F20813A
:1042400031816F567E4FFB01808190E010C099272D
:104250008130910581F0009729F00297E9F6ECEDA5
:10426000F3E002C0E6E0F4E0849190E09F01FA01FF
:10427000318320830895ECEEF3E0F6CF63307105CF
:1042800058F6660F771FFB01E656FE4F20813181FD
:1042900089E090E0ECCF82E190E025E634E0E7CFE2
:1042A0008BE590E02AE034E0E2CF80E189BD82E155
:1042B00089BD09B400FEFDCF8091D8008F7D809329
:1042C000D8008091E00082608093E0008091E0005F
:1042D00081FDFCCF0895AF92BF92CF92DF92FF9203
:1042E0000F931F93CF93DF936C01EB018A010E9420
:1042F0001923F82E811123C00115110539F0F80199
:1043000080819181C81BD90BC80ED91EB12CA12C5C
:104310002097A9F08091E80085FD22C08091E800F7
:104320008E778093E80001151105A1F0F8018081D6
:104330009181A80EB91EB182A08285E0F82E8F2D42
:10434000DF91CF911F910F91FF90DF90CF90BF90A1
:10435000AF9008950E9419238823D1F2F82EEFCF51
:10436000F60181916F018093F1002197FFEFAF1A61
:10437000BF0ACECFAF92BF92CF92DF92FF920F9340
:104380001F93CF93DF936C01EB018A010E941923E5
:10439000F82E811123C00115110539F0F801808133
:1043A0009181C81BD90BC80ED91EB12CA12C209706
:1043B000A9F08091E80085FD22C08091E8008B770C
:1043C0008093E80001151105A1F0F8018081918129
:1043D000A80EB91EB182A08285E0F82E8F2DDF9144
:1043E000CF911F910F91FF90DF90CF90BF90AF9032
:1043F00008950E9419238823D1F2F82EEFCF8091DF
:10440000F100F60181936F012197FFEFAF1ABF0A08
:10441000CECFFC0180918402909185028617970788
:10442000A0F06115710529F49091E8009E779093B2
:10443000E80090E06115710551F4911108C0809178
:10444000E80082FF34C080E00895BC01F2CF809183
:104450007D028823C1F18530C1F18091E80083FDA0
:1044600030C08091E80082FDEACF8091E80080FFB3
:10447000E1CF8091F3002091F200382F6115710592
:1044800019F02830310558F091E02830310509F055
:1044900090E02091E8002E772093E800CBCF819127
:1044A0008093F100615071092F5F3F4FE7CF8091FA
:1044B0007D02882341F0853041F08091E80083FF40
:1044C000BECF81E0089582E0089583E00895FC0165
:1044D000809184029091850286179707A0F061155C
:1044E000710529F48091E8008E778093E80090E0D0
:1044F0006115710551F4911108C08091E80082FFA7
:1045000035C080E00895BC01F2CF80917D02882300
:10451000C9F18530C9F18091E80083FD31C08091F7
:10452000E80082FDEACF8091E80080FFE1CF809132
:10453000F3002091F200382F6115710519F0283031
:10454000310558F091E02830310509F090E0809174
:10455000E8008E778093E800CBCF84918093F100C0
:104560003196615071092F5F3F4FE6CF80917D02F8
:10457000882341F0853041F08091E80083FFBDCF72
:1045800081E0089582E0089583E00895982F9730A0
:1045900028F08F708093E90081E008959093E900FE
:1045A000242F762F50E0981731F07091EC00209175
:1045B000ED005091F00021FD02C09F5FE8CF3091E7
:1045C000EB003E7F3093EB003091ED003D7F309368
:1045D000ED003091EB0031603093EB007093EC0014
:1045E0002093ED005093F0002091EE0027FDE5CFE1
:1045F00080E0089580917E0287FF13C08091E800DB
:1046000082FF06C08091E8008B778093E80004C0A9
:1046100080917D028111F2CF089580917D028823DF
:10462000D9F38091E80080FFF8CF8091E8008E7781
:10463000ECCF2091E4003091E50095E6A9012091AE
:10464000EC00822F817020FF06C08091E80080FF7F
:1046500006C080E008952091E80022FD1AC08091F4
:104660007D02882389F0853089F08091EB0085FDFB
:104670000FC02091E4003091E50042175307F9F292
:104680009150E1F684E0089582E0089583E0089572
:1046900081E008950E94B8230E94C023E0EEF0E07C
:1046A000808181608083E8EDF0E080818F77808376
:1046B00019BCA7EDB0E08C918E7F8C9380818F7EAA
:1046C000808310927C0208950F931F93CF93DF9302
:1046D0000E94B8230E94C023C8EDD0E088818F7764
:1046E000888388818068888388818F7D888319BCCE
:1046F00010927D021092790210927B0210927A023F
:1047000000EE10E0F80180818B7F808388818160DA
:10471000888342E060E080E00E94C622E1EEF0E0A3
:1047200080818E7F8083E2EEF0E0808181608083F3
:10473000808188608083F80180818E7F808388817A
:1047400080618883DF91CF911F910F910895E8EDEB
:10475000F0E080818F7E8083E7EDF0E080818160F2
:10476000808384E082BF81E080937C020C94642388
:10477000E8EDF0E080818E7F80831092E200089562
:104780001092DA001092E10008951F920F920FB676
:104790000F9211242F933F934F935F936F937F93C7
:1047A0008F939F93AF93BF93EF93FF938091E1001B
:1047B00082FF0BC08091E20082FF07C08091E10080
:1047C0008B7F8093E1000E942F268091DA0080FF8A
:1047D00019C08091D80080FF15C08091DA008E7FCB
:1047E0008093DA008091D90080FF96C080E189BD76
:1047F00082E189BD09B400FEFDCF81E080937D0296
:104800000E94A41F8091E10080FF19C08091E20006
:1048100080FF15C08091E2008E7F8093E20080913E
:10482000E20080618093E2008091D80080628093F2
:10483000D80019BC85E080937D020E94B61F80914C
:10484000E10084FF2BC08091E20084FF27C080E15B
:1048500089BD82E189BD89B5982F917080FFFBCF1A
:104860008091D8008F7D8093D8008091E1008F7E69
:104870008093E1008091E2008F7E8093E20080913E
:10488000E20081608093E20080917902882309F43C
:1048900049C084E080937D020E94B71F8091E100AF
:1048A00083FF29C08091E20083FF25C08091E10051
:1048B000877F8093E10082E080937D0210927902ED
:1048C0008091E1008E7F8093E1008091E2008E7FF5
:1048D0008093E2008091E20080618093E20042E0F8
:1048E00060E080E00E94C6228091F00088608093A2
:1048F000F0000E94B51FFF91EF91BF91AF919F9182
:104900008F917F916F915F914F913F912F910F9078
:104910000FBE0F901F90189519BC10927D020E9437
:10492000B21F70CF8091E30087FD93E090937D02EA
:10493000B3CF1F920F920FB60F9211242F933F9374
:104940004F935F936F937F938F939F93AF93BF9397
:10495000CF93DF93EF93FF93D091E900DF708091C5
:10496000EC00C82FC17080FDC0E81092E900809172
:10497000F000877F8093F00078940E94DD241092ED
:10498000E9008091F00088608093F000CD2BCF701B
:10499000C093E900FF91EF91DF91CF91BF91AF916B
:1049A0009F918F917F916F915F914F913F912F9147
:1049B0000F900FBE0F901F9018951F93CF93DF930A
:1049C000CDB7DEB7AA970FB6F894DEBF0FBECDBF46
:1049D0008EE792E02091F100FC012193CF01F2E0FB
:1049E00086389F07B9F70E94CC1F8091E80083FFAB
:1049F0001EC180917E0290917F029A3008F017C10B
:104A0000E92FF0E0E553F64D0C945F26803899F0DD
:104A1000823809F00CC1809182028F70873008F0D3
:104A200006C18093E9008091EB0085FB882780F91F
:104A30001092E90006C080917A0290917B02911158
:104A400082609091E800977F9093E8008093F10056
:104A50001092F1008091E8008E77E5C0882309F478
:104A6000D3C0823009F0E3C0809180028111D6C0AA
:104A7000809182028F702FEF280F263008F0D7C068
:104A80008093E9002091EB0020FFC8C0933031F4FF
:104A90008091EB0080628093EB00C0C09091EB00AE
:104AA00090619093EB0021E030E001C0220F8A95E5
:104AB000EAF72093EA001092EA008091EB00886008
:104AC000EACF8111B4C0109180021F778091E3007A
:104AD0008078812B8093E3008091E800877F80932A
:104AE000E8000E94FA228091E80080FFFCCF8091CC
:104AF000E30080688093E30082E0111183E08093FB
:104B00007D0295C08058823008F091C0809180026B
:104B1000909181028C3D23E09207A1F583E08A8386
:104B20008AE289834FB7F894DE01139620E03EE0D5
:104B300051E2E32FF0E050935700E49120FF03C0CF
:104B4000E295EF703F5FEF708E2F90E0EA30C0F09B
:104B5000C7968D939D932F5F243159F74FBF809156
:104B6000E800877F8093E8006AE270E0CE0101965A
:104B70000E9409228091E8008B778093E80057C05B
:104B8000C096E7CF6091820270918302AE014F5FC1
:104B90005F4F0E94FC20BC01892B09F448C0909112
:104BA000E800977F9093E80089819A810E946722AC
:104BB000E1CF8038E1F58091E800877F8093E800BD
:104BC000809179028093F10045CF811130C090919E
:104BD0008002923060F58091E800877F8093E80042
:104BE000909379020E94FA2280917902882311F031
:104BF00084E005C08091E30087FDFACF81E08093D7
:104C00007D020E94B81F13C080918002813079F428
:104C100081E0933009F080E080937B021092E900FC
:104C20008091E800877F8093E8000E94FA228091BB
:104C3000E80083FF0AC08091E800877F8093E80046
:104C40008091EB0080628093EB00AA960FB6F894F7
:104C5000DEBF0FBECDBFDF91CF911F9108950895A4
:104C6000CF9380917D028823A1F0C091E900CF709D
:104C70009091EC00892F817090FD80E8C82B1092F4
:104C8000E9008091E80083FD0E94DD24CF70C0938D
:104C9000E900CF91089597FB072E16F4009407D0F2
:104CA00077FD09D00E946C2607FC05D03EF4909554
:104CB00081959F4F0895709561957F4F0895EE0FF0
:104CC000FF1F0590F491E02D099469279627692725
:104CD0007827872778270895AA1BBB1B51E107C0B7
:104CE000AA1FBB1FA617B70710F0A61BB70B881F7C
:104CF000991F5A95A9F780959095BC01CD0108950B
:104D0000AEE0B0E0E6E8F6E20C946F290D891E896A
:104D10008F89988D26E02C831A83098397FF02C020
:104D200080E090E801979E838D83AE01455E5F4FE2
:104D3000698D7A8DCE0101960E94B0264D815E81EB
:104D400057FD0AC02F813885421753070CF49A018A
:104D5000020F131FF80110822E96E4E00C948B29A9
:104D6000ABE0B0E0E6EBF6E20C9461297C013B019C
:104D70008A01FC0117821682838181FFB9C19AE002
:104D8000292ECE0101965C01F7019381F30193FD79
:104D9000859193FF81913F01882309F446C18532B3
:104DA00039F493FD859193FF81913F01853229F478
:104DB000B70190E00E949128E7CF912C412C512C13
:104DC000FFE1F51538F08B3209F188F4803201F1FA
:104DD000833221F157FC3AC020ED280F2A3040F5EC
:104DE00056FE1FC0929C200D1124922E06C08D32BB
:104DF00091F0803379F7689450F8F30193FD859131
:104E000093FF81913F018111DBCF20C0689451F85D
:104E1000689452F8F2CF689453F8EFCF689454F83E
:104E2000ECCF429C200D1124422E689455F8E5CF1A
:104E30008E3229F456FCF9C0689456F8DECF8C36D1
:104E400019F4689457F8D9CF8836B9F2982F9F7D16
:104E500095549330C0F08336A1F18337C1F1833587
:104E600009F05BC0F801C190D1908F01692D70E00D
:104E700056FC02C06FEF7FEFC6010E947B284C01F9
:104E8000689457F80AC00C5F1F4F2FE329838824CA
:104E90008394912C6501E89457F853FC04C048149E
:104EA000190409F018F5342C8114910431F53320DC
:104EB00009F46ACFB70180E290E00E9491283A9409
:104EC000F6CFF801808189830E5F1F4FE0CFF80194
:104ED000C190D1908F01692D70E056FC02C06FEF38
:104EE0007FEFC6010E9486284C01D5CFB70180E232
:104EF00090E00E9491284A94D2CFF60157FC859108
:104F000057FE81916F01B70190E00E949128311006
:104F10003A94F1E08F1A9108C7CF843619F0893698
:104F200009F074C0F80157FE6AC0619171918191D6
:104F300091918F01252D2F76D22E97FF09C0909544
:104F40008095709561957F4F8F4F9F4F6894D7F8EC
:104F50002AE030E0A5010E94C128C82ECA188C2C76
:104F60005D2CD6FE0CC0E89450F8C91440F4D4FE71
:104F700005C0D2FC03C0FD2DFE7E5F2E892C54FEA1
:104F80008FC0FE01EC0DF11D8081803309F081C0DE
:104F9000252D297E522E852D8870382E53FC8FC0EA
:104FA00050FE89C09C2C841418F44C0C942C981836
:104FB00054FE8BC0B70180E390E00E94912852FE1E
:104FC00009C088E790E051FE02C088E590E0B70193
:104FD0000E949128C91408F484C0CA94D12C9FEF70
:104FE000C91AD90ACA0CDB1CF60182916F01B701FC
:104FF00090E00E949128AC14BD04B1F758CF6191A4
:105000007191072E000C880B990B93CFD52CE89447
:10501000D4F82AE030E0853739F1952D997FD92EE3
:105020008F3601F148F48835A9F0F7018681978120
:105030002B96E2E10C947D29803749F08837A9F757
:10504000D4FE02C06894D2F820E130E00DC068942C
:10505000D4F8F6CF54FE03C0E92FE660DE2E20E13F
:1050600032E002C028E030E0F801D7FE0DC06191C7
:105070007191819191918F01A5010E94C128C82E43
:10508000CA18E894D7F86BCF6191719190E080E0F5
:10509000F2CF52FC02C083947ECF839483947BCF63
:1050A000852D867809F477CFF6CFB70180E290E0BE
:1050B0000E94912883948414C0F3312C79CF342C2E
:1050C0003818841408F474CFF8CF852D867809F445
:1050D00081CF8BE251FE80E257FC8DE2B70190E078
:1050E00077CFB70180E390E00E9491289A9472CF25
:1050F0008FEF9FEF9DCFFC01059061507040011034
:10510000D8F7809590958E0F9F1F0895FC016150F0
:10511000704001900110D8F7809590958E0F9F1FD9
:1051200008950F931F93CF93DF93182F092FEB014F
:105130008B8181FD09C01FEF0FEF812F902FDF9131
:10514000CF911F910F91089582FF14C02E813F814E
:105150008C819D81281739073CF4E881F981CF01C2
:1051600001969983888310838E819F8101969F8306
:105170008E83E3CFE885F985812F0995892BA1F3EB
:10518000DACFFA01AA27283051F1203181F1E894D1
:105190006F936E7F6E5F7F4F8F4F9F4FAF4FB1E02A
:1051A0003ED0B4E03CD0670F781F891F9A1FA11D25
:1051B000680F791F8A1F911DA11D6A0F711D811D26
:1051C000911DA11D20D009F468943F912AE0269FEB
:1051D00011243019305D3193DEF6CF010895462F4A
:1051E0004770405D4193B3E00FD0C9F7F6CF462F2B
:1051F0004F70405D4A3318F0495D31FD4052419394
:1052000002D0A9F7EACFB4E0A69597958795779550
:105210006795BA95C9F700976105710508959B01D7
:10522000AC010A2E06945795479537952795BA9560
:10523000C9F7620F731F841F951FA01D0895F99968
:10524000FECF92BD81BDF89A992780B50895A8E157
:10525000B0E042E050E00C945329262FF999FECF9C
:1052600092BD81BDF89A019700B4021639F01FBAB9
:1052700020BD0FB6F894FA9AF99A0FBE08950396D6
:10528000272F0E942E290E942D29252F0E942E298A
:10529000242F0C942E290196272F0E942E290C943E
:1052A0002D29DC01CB01FC01F999FECF06C0F2BD2E
:1052B000E1BDF89A319600B40D9241505040B8F7D4
:1052C00008952F923F924F925F926F927F928F92AA
:1052D0009F92AF92BF92CF92DF92EF92FF920F9385
:1052E0001F93CF93DF93CDB7DEB7CA1BDB0B0FB68F
:1052F000F894DEBF0FBECDBF09942A88398848884C
:105300005F846E847D848C849B84AA84B984C884E1
:10531000DF80EE80FD800C811B81AA81B981CE0FD8
:10532000D11D0FB6F894DEBF0FBECDBFED010895BD
:10533000F894FFCF390C460C6D0C790C840C8F0C53
:10534000920C920C920C920C920C950C990CA10C54
:10535000AE0CBB0CBE0CC10CCE0C70147014C81477
:10536000C8141A1536159D149D144115CD15DC155C
:10537000DC1538169D149D144116B616B616BF16C8
:10538000BF16C116BF16BF16BF16B616B616C6167E
:10539000BF16BF16C61606252E2517262E2517263C
:0A53A000612582251726D925E52591
:1053AA002808641E140A321E01AF005C02EF1E4D6B
:1053BA001F2C1F281F241F01F4F5F6F7313332C6BC
:1053CA0091909466970000000000E200E900EA006C
:1053DA00B500B600B700CD008301CC008A01920166
:1053EA0094012102230224022502260227022A020C
:1053FA00B300B4006F0070008182830A25640A003A
:10540A00E200E900EA00B500B600B700CD0083016A
:10541A00CC008A019201940121022302240225026E
:10542A00260227022A02B300B4006F0070008182AC
:10543A008340227B1405770499041C04350455041F
:00000001FF
